{
	"SuperBoInuStaking.sol": {
		"SuperBoInuStaking": {
			"abi": [
				{
					"inputs": [
						{
							"internalType": "address",
							"name": "tokenAddress",
							"type": "address"
						}
					],
					"stateMutability": "nonpayable",
					"type": "constructor"
				},
				{
					"inputs": [
						{
							"internalType": "address",
							"name": "owner",
							"type": "address"
						}
					],
					"name": "OwnableInvalidOwner",
					"type": "error"
				},
				{
					"inputs": [
						{
							"internalType": "address",
							"name": "account",
							"type": "address"
						}
					],
					"name": "OwnableUnauthorizedAccount",
					"type": "error"
				},
				{
					"anonymous": false,
					"inputs": [
						{
							"indexed": true,
							"internalType": "address",
							"name": "previousOwner",
							"type": "address"
						},
						{
							"indexed": true,
							"internalType": "address",
							"name": "newOwner",
							"type": "address"
						}
					],
					"name": "OwnershipTransferred",
					"type": "event"
				},
				{
					"inputs": [],
					"name": "SECONDS_PER_YEAR",
					"outputs": [
						{
							"internalType": "uint256",
							"name": "",
							"type": "uint256"
						}
					],
					"stateMutability": "view",
					"type": "function"
				},
				{
					"inputs": [],
					"name": "claim",
					"outputs": [],
					"stateMutability": "nonpayable",
					"type": "function"
				},
				{
					"inputs": [],
					"name": "owner",
					"outputs": [
						{
							"internalType": "address",
							"name": "",
							"type": "address"
						}
					],
					"stateMutability": "view",
					"type": "function"
				},
				{
					"inputs": [],
					"name": "renounceOwnership",
					"outputs": [],
					"stateMutability": "nonpayable",
					"type": "function"
				},
				{
					"inputs": [],
					"name": "rewardRate",
					"outputs": [
						{
							"internalType": "uint256",
							"name": "",
							"type": "uint256"
						}
					],
					"stateMutability": "view",
					"type": "function"
				},
				{
					"inputs": [
						{
							"internalType": "uint256",
							"name": "newRate",
							"type": "uint256"
						}
					],
					"name": "setRewardRate",
					"outputs": [],
					"stateMutability": "nonpayable",
					"type": "function"
				},
				{
					"inputs": [
						{
							"internalType": "uint256",
							"name": "amount",
							"type": "uint256"
						}
					],
					"name": "stake",
					"outputs": [],
					"stateMutability": "nonpayable",
					"type": "function"
				},
				{
					"inputs": [
						{
							"internalType": "address",
							"name": "",
							"type": "address"
						}
					],
					"name": "stakes",
					"outputs": [
						{
							"internalType": "uint256",
							"name": "amount",
							"type": "uint256"
						},
						{
							"internalType": "uint256",
							"name": "startTime",
							"type": "uint256"
						}
					],
					"stateMutability": "view",
					"type": "function"
				},
				{
					"inputs": [],
					"name": "token",
					"outputs": [
						{
							"internalType": "contract IERC20",
							"name": "",
							"type": "address"
						}
					],
					"stateMutability": "view",
					"type": "function"
				},
				{
					"inputs": [
						{
							"internalType": "address",
							"name": "newOwner",
							"type": "address"
						}
					],
					"name": "transferOwnership",
					"outputs": [],
					"stateMutability": "nonpayable",
					"type": "function"
				},
				{
					"inputs": [],
					"name": "unstake",
					"outputs": [],
					"stateMutability": "nonpayable",
					"type": "function"
				}
			],
			"devdoc": {
				"errors": {
					"OwnableInvalidOwner(address)": [
						{
							"details": "The owner is not a valid owner account. (eg. `address(0)`)"
						}
					],
					"OwnableUnauthorizedAccount(address)": [
						{
							"details": "The caller account is not authorized to perform an operation."
						}
					]
				},
				"kind": "dev",
				"methods": {
					"owner()": {
						"details": "Returns the address of the current owner."
					},
					"renounceOwnership()": {
						"details": "Leaves the contract without owner. It will not be possible to call `onlyOwner` functions. Can only be called by the current owner. NOTE: Renouncing ownership will leave the contract without an owner, thereby disabling any functionality that is only available to the owner."
					},
					"transferOwnership(address)": {
						"details": "Transfers ownership of the contract to a new account (`newOwner`). Can only be called by the current owner."
					}
				},
				"version": 1
			},
			"evm": {
				"assembly": "    /* \"SuperBoInuStaking.sol\":175:1832  contract SuperBoInuStaking is Ownable {... */\n  mstore(0x40, 0x80)\n    /* \"SuperBoInuStaking.sol\":276:278  10 */\n  0x0a\n    /* \"SuperBoInuStaking.sol\":248:278  uint256 public rewardRate = 10 */\n  0x02\n  sstore\n    /* \"SuperBoInuStaking.sol\":496:597  constructor(address tokenAddress) Ownable(msg.sender) {... */\n  callvalue\n  dup1\n  iszero\n  tag_1\n  jumpi\n  revert(0x00, 0x00)\ntag_1:\n  pop\n  mload(0x40)\n  sub(codesize, bytecodeSize)\n  dup1\n  bytecodeSize\n  dup4\n  codecopy\n  dup2\n  dup2\n  add\n  0x40\n  mstore\n  dup2\n  add\n  swap1\n  tag_2\n  swap2\n  swap1\n  tag_3\n  jump\t// in\ntag_2:\n    /* \"SuperBoInuStaking.sol\":538:548  msg.sender */\n  caller\n    /* \"@openzeppelin/contracts/access/Ownable.sol\":1297:1298  0 */\n  0x00\n    /* \"@openzeppelin/contracts/access/Ownable.sol\":1273:1299  initialOwner == address(0) */\n  0xffffffffffffffffffffffffffffffffffffffff\n  and\n    /* \"@openzeppelin/contracts/access/Ownable.sol\":1273:1285  initialOwner */\n  dup2\n    /* \"@openzeppelin/contracts/access/Ownable.sol\":1273:1299  initialOwner == address(0) */\n  0xffffffffffffffffffffffffffffffffffffffff\n  and\n  sub\n    /* \"@openzeppelin/contracts/access/Ownable.sol\":1269:1364  if (initialOwner == address(0)) {... */\n  tag_7\n  jumpi\n    /* \"@openzeppelin/contracts/access/Ownable.sol\":1350:1351  0 */\n  0x00\n    /* \"@openzeppelin/contracts/access/Ownable.sol\":1322:1353  OwnableInvalidOwner(address(0)) */\n  mload(0x40)\n  0x1e4fbdf700000000000000000000000000000000000000000000000000000000\n  dup2\n  mstore\n  0x04\n  add\n  tag_8\n  swap2\n  swap1\n  tag_9\n  jump\t// in\ntag_8:\n  mload(0x40)\n  dup1\n  swap2\n  sub\n  swap1\n  revert\n    /* \"@openzeppelin/contracts/access/Ownable.sol\":1269:1364  if (initialOwner == address(0)) {... */\ntag_7:\n    /* \"@openzeppelin/contracts/access/Ownable.sol\":1373:1405  _transferOwnership(initialOwner) */\n  tag_10\n    /* \"@openzeppelin/contracts/access/Ownable.sol\":1392:1404  initialOwner */\n  dup2\n    /* \"@openzeppelin/contracts/access/Ownable.sol\":1373:1391  _transferOwnership */\n  shl(0x20, tag_11)\n    /* \"@openzeppelin/contracts/access/Ownable.sol\":1373:1405  _transferOwnership(initialOwner) */\n  0x20\n  shr\n  jump\t// in\ntag_10:\n    /* \"@openzeppelin/contracts/access/Ownable.sol\":1225:1412  constructor(address initialOwner) {... */\n  pop\n    /* \"SuperBoInuStaking.sol\":576:588  tokenAddress */\n  dup1\n    /* \"SuperBoInuStaking.sol\":561:566  token */\n  0x01\n  0x00\n    /* \"SuperBoInuStaking.sol\":561:589  token = IERC20(tokenAddress) */\n  0x0100\n  exp\n  dup2\n  sload\n  dup2\n  0xffffffffffffffffffffffffffffffffffffffff\n  mul\n  not\n  and\n  swap1\n  dup4\n  0xffffffffffffffffffffffffffffffffffffffff\n  and\n  mul\n  or\n  swap1\n  sstore\n  pop\n    /* \"SuperBoInuStaking.sol\":496:597  constructor(address tokenAddress) Ownable(msg.sender) {... */\n  pop\n    /* \"SuperBoInuStaking.sol\":175:1832  contract SuperBoInuStaking is Ownable {... */\n  jump(tag_13)\n    /* \"@openzeppelin/contracts/access/Ownable.sol\":2912:3099  function _transferOwnership(address newOwner) internal virtual {... */\ntag_11:\n    /* \"@openzeppelin/contracts/access/Ownable.sol\":2985:3001  address oldOwner */\n  0x00\n    /* \"@openzeppelin/contracts/access/Ownable.sol\":3004:3010  _owner */\n  0x00\n  0x00\n  swap1\n  sload\n  swap1\n  0x0100\n  exp\n  swap1\n  div\n  0xffffffffffffffffffffffffffffffffffffffff\n  and\n    /* \"@openzeppelin/contracts/access/Ownable.sol\":2985:3010  address oldOwner = _owner */\n  swap1\n  pop\n    /* \"@openzeppelin/contracts/access/Ownable.sol\":3029:3037  newOwner */\n  dup2\n    /* \"@openzeppelin/contracts/access/Ownable.sol\":3020:3026  _owner */\n  0x00\n  0x00\n    /* \"@openzeppelin/contracts/access/Ownable.sol\":3020:3037  _owner = newOwner */\n  0x0100\n  exp\n  dup2\n  sload\n  dup2\n  0xffffffffffffffffffffffffffffffffffffffff\n  mul\n  not\n  and\n  swap1\n  dup4\n  0xffffffffffffffffffffffffffffffffffffffff\n  and\n  mul\n  or\n  swap1\n  sstore\n  pop\n    /* \"@openzeppelin/contracts/access/Ownable.sol\":3083:3091  newOwner */\n  dup2\n    /* \"@openzeppelin/contracts/access/Ownable.sol\":3052:3092  OwnershipTransferred(oldOwner, newOwner) */\n  0xffffffffffffffffffffffffffffffffffffffff\n  and\n    /* \"@openzeppelin/contracts/access/Ownable.sol\":3073:3081  oldOwner */\n  dup2\n    /* \"@openzeppelin/contracts/access/Ownable.sol\":3052:3092  OwnershipTransferred(oldOwner, newOwner) */\n  0xffffffffffffffffffffffffffffffffffffffff\n  and\n  0x8be0079c531659141344cd1fd0a4f28419497f9722a3daafe3b4186f6b6457e0\n  mload(0x40)\n  mload(0x40)\n  dup1\n  swap2\n  sub\n  swap1\n  log3\n    /* \"@openzeppelin/contracts/access/Ownable.sol\":2975:3099  {... */\n  pop\n    /* \"@openzeppelin/contracts/access/Ownable.sol\":2912:3099  function _transferOwnership(address newOwner) internal virtual {... */\n  pop\n  jump\t// out\n    /* \"#utility.yul\":88:205   */\ntag_16:\n    /* \"#utility.yul\":197:198   */\n  0x00\n    /* \"#utility.yul\":194:195   */\n  0x00\n    /* \"#utility.yul\":187:199   */\n  revert\n    /* \"#utility.yul\":334:460   */\ntag_18:\n    /* \"#utility.yul\":371:378   */\n  0x00\n    /* \"#utility.yul\":411:453   */\n  0xffffffffffffffffffffffffffffffffffffffff\n    /* \"#utility.yul\":404:409   */\n  dup3\n    /* \"#utility.yul\":400:454   */\n  and\n    /* \"#utility.yul\":389:454   */\n  swap1\n  pop\n    /* \"#utility.yul\":334:460   */\n  swap2\n  swap1\n  pop\n  jump\t// out\n    /* \"#utility.yul\":466:562   */\ntag_19:\n    /* \"#utility.yul\":503:510   */\n  0x00\n    /* \"#utility.yul\":532:556   */\n  tag_29\n    /* \"#utility.yul\":550:555   */\n  dup3\n    /* \"#utility.yul\":532:556   */\n  tag_18\n  jump\t// in\ntag_29:\n    /* \"#utility.yul\":521:556   */\n  swap1\n  pop\n    /* \"#utility.yul\":466:562   */\n  swap2\n  swap1\n  pop\n  jump\t// out\n    /* \"#utility.yul\":568:690   */\ntag_20:\n    /* \"#utility.yul\":641:665   */\n  tag_31\n    /* \"#utility.yul\":659:664   */\n  dup2\n    /* \"#utility.yul\":641:665   */\n  tag_19\n  jump\t// in\ntag_31:\n    /* \"#utility.yul\":634:639   */\n  dup2\n    /* \"#utility.yul\":631:666   */\n  eq\n    /* \"#utility.yul\":621:684   */\n  tag_32\n  jumpi\n    /* \"#utility.yul\":680:681   */\n  0x00\n    /* \"#utility.yul\":677:678   */\n  0x00\n    /* \"#utility.yul\":670:682   */\n  revert\n    /* \"#utility.yul\":621:684   */\ntag_32:\n    /* \"#utility.yul\":568:690   */\n  pop\n  jump\t// out\n    /* \"#utility.yul\":696:839   */\ntag_21:\n    /* \"#utility.yul\":753:758   */\n  0x00\n    /* \"#utility.yul\":784:790   */\n  dup2\n    /* \"#utility.yul\":778:791   */\n  mload\n    /* \"#utility.yul\":769:791   */\n  swap1\n  pop\n    /* \"#utility.yul\":800:833   */\n  tag_34\n    /* \"#utility.yul\":827:832   */\n  dup2\n    /* \"#utility.yul\":800:833   */\n  tag_20\n  jump\t// in\ntag_34:\n    /* \"#utility.yul\":696:839   */\n  swap3\n  swap2\n  pop\n  pop\n  jump\t// out\n    /* \"#utility.yul\":845:1196   */\ntag_3:\n    /* \"#utility.yul\":915:921   */\n  0x00\n    /* \"#utility.yul\":964:966   */\n  0x20\n    /* \"#utility.yul\":952:961   */\n  dup3\n    /* \"#utility.yul\":943:950   */\n  dup5\n    /* \"#utility.yul\":939:962   */\n  sub\n    /* \"#utility.yul\":935:967   */\n  slt\n    /* \"#utility.yul\":932:1051   */\n  iszero\n  tag_36\n  jumpi\n    /* \"#utility.yul\":970:1049   */\n  tag_37\n  tag_16\n  jump\t// in\ntag_37:\n    /* \"#utility.yul\":932:1051   */\ntag_36:\n    /* \"#utility.yul\":1090:1091   */\n  0x00\n    /* \"#utility.yul\":1115:1179   */\n  tag_38\n    /* \"#utility.yul\":1171:1178   */\n  dup5\n    /* \"#utility.yul\":1162:1168   */\n  dup3\n    /* \"#utility.yul\":1151:1160   */\n  dup6\n    /* \"#utility.yul\":1147:1169   */\n  add\n    /* \"#utility.yul\":1115:1179   */\n  tag_21\n  jump\t// in\ntag_38:\n    /* \"#utility.yul\":1105:1179   */\n  swap2\n  pop\n    /* \"#utility.yul\":1061:1189   */\n  pop\n    /* \"#utility.yul\":845:1196   */\n  swap3\n  swap2\n  pop\n  pop\n  jump\t// out\n    /* \"#utility.yul\":1202:1320   */\ntag_22:\n    /* \"#utility.yul\":1289:1313   */\n  tag_40\n    /* \"#utility.yul\":1307:1312   */\n  dup2\n    /* \"#utility.yul\":1289:1313   */\n  tag_19\n  jump\t// in\ntag_40:\n    /* \"#utility.yul\":1284:1287   */\n  dup3\n    /* \"#utility.yul\":1277:1314   */\n  mstore\n    /* \"#utility.yul\":1202:1320   */\n  pop\n  pop\n  jump\t// out\n    /* \"#utility.yul\":1326:1548   */\ntag_9:\n    /* \"#utility.yul\":1419:1423   */\n  0x00\n    /* \"#utility.yul\":1457:1459   */\n  0x20\n    /* \"#utility.yul\":1446:1455   */\n  dup3\n    /* \"#utility.yul\":1442:1460   */\n  add\n    /* \"#utility.yul\":1434:1460   */\n  swap1\n  pop\n    /* \"#utility.yul\":1470:1541   */\n  tag_42\n    /* \"#utility.yul\":1538:1539   */\n  0x00\n    /* \"#utility.yul\":1527:1536   */\n  dup4\n    /* \"#utility.yul\":1523:1540   */\n  add\n    /* \"#utility.yul\":1514:1520   */\n  dup5\n    /* \"#utility.yul\":1470:1541   */\n  tag_22\n  jump\t// in\ntag_42:\n    /* \"#utility.yul\":1326:1548   */\n  swap3\n  swap2\n  pop\n  pop\n  jump\t// out\n    /* \"SuperBoInuStaking.sol\":175:1832  contract SuperBoInuStaking is Ownable {... */\ntag_13:\n  dataSize(sub_0)\n  dup1\n  dataOffset(sub_0)\n  0x00\n  codecopy\n  0x00\n  return\nstop\n\nsub_0: assembly {\n        /* \"SuperBoInuStaking.sol\":175:1832  contract SuperBoInuStaking is Ownable {... */\n      mstore(0x40, 0x80)\n      callvalue\n      dup1\n      iszero\n      tag_1\n      jumpi\n      revert(0x00, 0x00)\n    tag_1:\n      pop\n      jumpi(tag_2, lt(calldatasize, 0x04))\n      shr(0xe0, calldataload(0x00))\n      dup1\n      0x8da5cb5b\n      gt\n      tag_14\n      jumpi\n      dup1\n      0x8da5cb5b\n      eq\n      tag_8\n      jumpi\n      dup1\n      0x9e447fc6\n      eq\n      tag_9\n      jumpi\n      dup1\n      0xa694fc3a\n      eq\n      tag_10\n      jumpi\n      dup1\n      0xe6a69ab8\n      eq\n      tag_11\n      jumpi\n      dup1\n      0xf2fde38b\n      eq\n      tag_12\n      jumpi\n      dup1\n      0xfc0c546a\n      eq\n      tag_13\n      jumpi\n      jump(tag_2)\n    tag_14:\n      dup1\n      0x16934fc4\n      eq\n      tag_3\n      jumpi\n      dup1\n      0x2def6620\n      eq\n      tag_4\n      jumpi\n      dup1\n      0x4e71d92d\n      eq\n      tag_5\n      jumpi\n      dup1\n      0x715018a6\n      eq\n      tag_6\n      jumpi\n      dup1\n      0x7b0a47ee\n      eq\n      tag_7\n      jumpi\n    tag_2:\n      revert(0x00, 0x00)\n        /* \"SuperBoInuStaking.sol\":448:487  mapping(address => Stake) public stakes */\n    tag_3:\n      tag_15\n      0x04\n      dup1\n      calldatasize\n      sub\n      dup2\n      add\n      swap1\n      tag_16\n      swap2\n      swap1\n      tag_17\n      jump\t// in\n    tag_16:\n      tag_18\n      jump\t// in\n    tag_15:\n      mload(0x40)\n      tag_19\n      swap3\n      swap2\n      swap1\n      tag_20\n      jump\t// in\n    tag_19:\n      mload(0x40)\n      dup1\n      swap2\n      sub\n      swap1\n      return\n        /* \"SuperBoInuStaking.sol\":997:1293  function unstake() external {... */\n    tag_4:\n      tag_21\n      tag_22\n      jump\t// in\n    tag_21:\n      stop\n        /* \"SuperBoInuStaking.sol\":1301:1723  function claim() public {... */\n    tag_5:\n      tag_23\n      tag_24\n      jump\t// in\n    tag_23:\n      stop\n        /* \"@openzeppelin/contracts/access/Ownable.sol\":2293:2394  function renounceOwnership() public virtual onlyOwner {... */\n    tag_6:\n      tag_25\n      tag_26\n      jump\t// in\n    tag_25:\n      stop\n        /* \"SuperBoInuStaking.sol\":248:278  uint256 public rewardRate = 10 */\n    tag_7:\n      tag_27\n      tag_28\n      jump\t// in\n    tag_27:\n      mload(0x40)\n      tag_29\n      swap2\n      swap1\n      tag_30\n      jump\t// in\n    tag_29:\n      mload(0x40)\n      dup1\n      swap2\n      sub\n      swap1\n      return\n        /* \"@openzeppelin/contracts/access/Ownable.sol\":1638:1723  function owner() public view virtual returns (address) {... */\n    tag_8:\n      tag_31\n      tag_32\n      jump\t// in\n    tag_31:\n      mload(0x40)\n      tag_33\n      swap2\n      swap1\n      tag_34\n      jump\t// in\n    tag_33:\n      mload(0x40)\n      dup1\n      swap2\n      sub\n      swap1\n      return\n        /* \"SuperBoInuStaking.sol\":1731:1829  function setRewardRate(uint256 newRate) external onlyOwner {... */\n    tag_9:\n      tag_35\n      0x04\n      dup1\n      calldatasize\n      sub\n      dup2\n      add\n      swap1\n      tag_36\n      swap2\n      swap1\n      tag_37\n      jump\t// in\n    tag_36:\n      tag_38\n      jump\t// in\n    tag_35:\n      stop\n        /* \"SuperBoInuStaking.sol\":605:989  function stake(uint256 amount) external {... */\n    tag_10:\n      tag_39\n      0x04\n      dup1\n      calldatasize\n      sub\n      dup2\n      add\n      swap1\n      tag_40\n      swap2\n      swap1\n      tag_37\n      jump\t// in\n    tag_40:\n      tag_41\n      jump\t// in\n    tag_39:\n      stop\n        /* \"SuperBoInuStaking.sol\":306:357  uint256 public constant SECONDS_PER_YEAR = 365 days */\n    tag_11:\n      tag_42\n      tag_43\n      jump\t// in\n    tag_42:\n      mload(0x40)\n      tag_44\n      swap2\n      swap1\n      tag_30\n      jump\t// in\n    tag_44:\n      mload(0x40)\n      dup1\n      swap2\n      sub\n      swap1\n      return\n        /* \"@openzeppelin/contracts/access/Ownable.sol\":2543:2758  function transferOwnership(address newOwner) public virtual onlyOwner {... */\n    tag_12:\n      tag_45\n      0x04\n      dup1\n      calldatasize\n      sub\n      dup2\n      add\n      swap1\n      tag_46\n      swap2\n      swap1\n      tag_17\n      jump\t// in\n    tag_46:\n      tag_47\n      jump\t// in\n    tag_45:\n      stop\n        /* \"SuperBoInuStaking.sol\":220:239  IERC20 public token */\n    tag_13:\n      tag_48\n      tag_49\n      jump\t// in\n    tag_48:\n      mload(0x40)\n      tag_50\n      swap2\n      swap1\n      tag_51\n      jump\t// in\n    tag_50:\n      mload(0x40)\n      dup1\n      swap2\n      sub\n      swap1\n      return\n        /* \"SuperBoInuStaking.sol\":448:487  mapping(address => Stake) public stakes */\n    tag_18:\n      mstore(0x20, 0x03)\n      dup1\n      0x00\n      mstore\n      keccak256(0x00, 0x40)\n      0x00\n      swap2\n      pop\n      swap1\n      pop\n      dup1\n      0x00\n      add\n      sload\n      swap1\n      dup1\n      0x01\n      add\n      sload\n      swap1\n      pop\n      dup3\n      jump\t// out\n        /* \"SuperBoInuStaking.sol\":997:1293  function unstake() external {... */\n    tag_22:\n        /* \"SuperBoInuStaking.sol\":1072:1073  0 */\n      0x00\n        /* \"SuperBoInuStaking.sol\":1044:1050  stakes */\n      0x03\n        /* \"SuperBoInuStaking.sol\":1044:1062  stakes[msg.sender] */\n      0x00\n        /* \"SuperBoInuStaking.sol\":1051:1061  msg.sender */\n      caller\n        /* \"SuperBoInuStaking.sol\":1044:1062  stakes[msg.sender] */\n      0xffffffffffffffffffffffffffffffffffffffff\n      and\n      0xffffffffffffffffffffffffffffffffffffffff\n      and\n      dup2\n      mstore\n      0x20\n      add\n      swap1\n      dup2\n      mstore\n      0x20\n      add\n      0x00\n      keccak256\n        /* \"SuperBoInuStaking.sol\":1044:1069  stakes[msg.sender].amount */\n      0x00\n      add\n      sload\n        /* \"SuperBoInuStaking.sol\":1044:1073  stakes[msg.sender].amount > 0 */\n      gt\n        /* \"SuperBoInuStaking.sol\":1036:1092  require(stakes[msg.sender].amount > 0, \"Nothing staked\") */\n      tag_53\n      jumpi\n      mload(0x40)\n      0x08c379a000000000000000000000000000000000000000000000000000000000\n      dup2\n      mstore\n      0x04\n      add\n      tag_54\n      swap1\n      tag_55\n      jump\t// in\n    tag_54:\n      mload(0x40)\n      dup1\n      swap2\n      sub\n      swap1\n      revert\n    tag_53:\n        /* \"SuperBoInuStaking.sol\":1105:1112  claim() */\n      tag_56\n        /* \"SuperBoInuStaking.sol\":1105:1110  claim */\n      tag_24\n        /* \"SuperBoInuStaking.sol\":1105:1112  claim() */\n      jump\t// in\n    tag_56:\n        /* \"SuperBoInuStaking.sol\":1156:1170  uint256 amount */\n      0x00\n        /* \"SuperBoInuStaking.sol\":1173:1179  stakes */\n      0x03\n        /* \"SuperBoInuStaking.sol\":1173:1191  stakes[msg.sender] */\n      0x00\n        /* \"SuperBoInuStaking.sol\":1180:1190  msg.sender */\n      caller\n        /* \"SuperBoInuStaking.sol\":1173:1191  stakes[msg.sender] */\n      0xffffffffffffffffffffffffffffffffffffffff\n      and\n      0xffffffffffffffffffffffffffffffffffffffff\n      and\n      dup2\n      mstore\n      0x20\n      add\n      swap1\n      dup2\n      mstore\n      0x20\n      add\n      0x00\n      keccak256\n        /* \"SuperBoInuStaking.sol\":1173:1198  stakes[msg.sender].amount */\n      0x00\n      add\n      sload\n        /* \"SuperBoInuStaking.sol\":1156:1198  uint256 amount = stakes[msg.sender].amount */\n      swap1\n      pop\n        /* \"SuperBoInuStaking.sol\":1237:1238  0 */\n      0x00\n        /* \"SuperBoInuStaking.sol\":1209:1215  stakes */\n      0x03\n        /* \"SuperBoInuStaking.sol\":1209:1227  stakes[msg.sender] */\n      0x00\n        /* \"SuperBoInuStaking.sol\":1216:1226  msg.sender */\n      caller\n        /* \"SuperBoInuStaking.sol\":1209:1227  stakes[msg.sender] */\n      0xffffffffffffffffffffffffffffffffffffffff\n      and\n      0xffffffffffffffffffffffffffffffffffffffff\n      and\n      dup2\n      mstore\n      0x20\n      add\n      swap1\n      dup2\n      mstore\n      0x20\n      add\n      0x00\n      keccak256\n        /* \"SuperBoInuStaking.sol\":1209:1234  stakes[msg.sender].amount */\n      0x00\n      add\n        /* \"SuperBoInuStaking.sol\":1209:1238  stakes[msg.sender].amount = 0 */\n      dup2\n      swap1\n      sstore\n      pop\n        /* \"SuperBoInuStaking.sol\":1251:1256  token */\n      0x01\n      0x00\n      swap1\n      sload\n      swap1\n      0x0100\n      exp\n      swap1\n      div\n      0xffffffffffffffffffffffffffffffffffffffff\n      and\n        /* \"SuperBoInuStaking.sol\":1251:1265  token.transfer */\n      0xffffffffffffffffffffffffffffffffffffffff\n      and\n      0xa9059cbb\n        /* \"SuperBoInuStaking.sol\":1266:1276  msg.sender */\n      caller\n        /* \"SuperBoInuStaking.sol\":1278:1284  amount */\n      dup4\n        /* \"SuperBoInuStaking.sol\":1251:1285  token.transfer(msg.sender, amount) */\n      mload(0x40)\n      dup4\n      0xffffffff\n      and\n      0xe0\n      shl\n      dup2\n      mstore\n      0x04\n      add\n      tag_57\n      swap3\n      swap2\n      swap1\n      tag_58\n      jump\t// in\n    tag_57:\n      0x20\n      mload(0x40)\n      dup1\n      dup4\n      sub\n      dup2\n      0x00\n      dup8\n      gas\n      call\n      iszero\n      dup1\n      iszero\n      tag_60\n      jumpi\n      returndatacopy(0x00, 0x00, returndatasize)\n      revert(0x00, returndatasize)\n    tag_60:\n      pop\n      pop\n      pop\n      pop\n      mload(0x40)\n      returndatasize\n      not(0x1f)\n      0x1f\n      dup3\n      add\n      and\n      dup3\n      add\n      dup1\n      0x40\n      mstore\n      pop\n      dup2\n      add\n      swap1\n      tag_61\n      swap2\n      swap1\n      tag_62\n      jump\t// in\n    tag_61:\n      pop\n        /* \"SuperBoInuStaking.sol\":1025:1293  {... */\n      pop\n        /* \"SuperBoInuStaking.sol\":997:1293  function unstake() external {... */\n      jump\t// out\n        /* \"SuperBoInuStaking.sol\":1301:1723  function claim() public {... */\n    tag_24:\n        /* \"SuperBoInuStaking.sol\":1336:1359  Stake storage userStake */\n      0x00\n        /* \"SuperBoInuStaking.sol\":1362:1368  stakes */\n      0x03\n        /* \"SuperBoInuStaking.sol\":1362:1380  stakes[msg.sender] */\n      0x00\n        /* \"SuperBoInuStaking.sol\":1369:1379  msg.sender */\n      caller\n        /* \"SuperBoInuStaking.sol\":1362:1380  stakes[msg.sender] */\n      0xffffffffffffffffffffffffffffffffffffffff\n      and\n      0xffffffffffffffffffffffffffffffffffffffff\n      and\n      dup2\n      mstore\n      0x20\n      add\n      swap1\n      dup2\n      mstore\n      0x20\n      add\n      0x00\n      keccak256\n        /* \"SuperBoInuStaking.sol\":1336:1380  Stake storage userStake = stakes[msg.sender] */\n      swap1\n      pop\n        /* \"SuperBoInuStaking.sol\":1418:1419  0 */\n      0x00\n        /* \"SuperBoInuStaking.sol\":1399:1408  userStake */\n      dup2\n        /* \"SuperBoInuStaking.sol\":1399:1415  userStake.amount */\n      0x00\n      add\n      sload\n        /* \"SuperBoInuStaking.sol\":1399:1419  userStake.amount > 0 */\n      gt\n        /* \"SuperBoInuStaking.sol\":1391:1439  require(userStake.amount > 0, \"No active stake\") */\n      tag_64\n      jumpi\n      mload(0x40)\n      0x08c379a000000000000000000000000000000000000000000000000000000000\n      dup2\n      mstore\n      0x04\n      add\n      tag_65\n      swap1\n      tag_66\n      jump\t// in\n    tag_65:\n      mload(0x40)\n      dup1\n      swap2\n      sub\n      swap1\n      revert\n    tag_64:\n        /* \"SuperBoInuStaking.sol\":1452:1468  uint256 duration */\n      0x00\n        /* \"SuperBoInuStaking.sol\":1489:1498  userStake */\n      dup2\n        /* \"SuperBoInuStaking.sol\":1489:1508  userStake.startTime */\n      0x01\n      add\n      sload\n        /* \"SuperBoInuStaking.sol\":1471:1486  block.timestamp */\n      timestamp\n        /* \"SuperBoInuStaking.sol\":1471:1508  block.timestamp - userStake.startTime */\n      tag_67\n      swap2\n      swap1\n      tag_68\n      jump\t// in\n    tag_67:\n        /* \"SuperBoInuStaking.sol\":1452:1508  uint256 duration = block.timestamp - userStake.startTime */\n      swap1\n      pop\n        /* \"SuperBoInuStaking.sol\":1519:1533  uint256 reward */\n      0x00\n        /* \"SuperBoInuStaking.sol\":349:357  365 days */\n      0x01e13380\n        /* \"SuperBoInuStaking.sol\":1582:1585  100 */\n      0x64\n        /* \"SuperBoInuStaking.sol\":1582:1604  100 * SECONDS_PER_YEAR */\n      tag_69\n      swap2\n      swap1\n      tag_70\n      jump\t// in\n    tag_69:\n        /* \"SuperBoInuStaking.sol\":1569:1577  duration */\n      dup3\n        /* \"SuperBoInuStaking.sol\":1556:1566  rewardRate */\n      sload(0x02)\n        /* \"SuperBoInuStaking.sol\":1537:1546  userStake */\n      dup6\n        /* \"SuperBoInuStaking.sol\":1537:1553  userStake.amount */\n      0x00\n      add\n      sload\n        /* \"SuperBoInuStaking.sol\":1537:1566  userStake.amount * rewardRate */\n      tag_71\n      swap2\n      swap1\n      tag_70\n      jump\t// in\n    tag_71:\n        /* \"SuperBoInuStaking.sol\":1537:1577  userStake.amount * rewardRate * duration */\n      tag_72\n      swap2\n      swap1\n      tag_70\n      jump\t// in\n    tag_72:\n        /* \"SuperBoInuStaking.sol\":1536:1605  (userStake.amount * rewardRate * duration) / (100 * SECONDS_PER_YEAR) */\n      tag_73\n      swap2\n      swap1\n      tag_74\n      jump\t// in\n    tag_73:\n        /* \"SuperBoInuStaking.sol\":1519:1605  uint256 reward = (userStake.amount * rewardRate * duration) / (100 * SECONDS_PER_YEAR) */\n      swap1\n      pop\n        /* \"SuperBoInuStaking.sol\":1640:1655  block.timestamp */\n      timestamp\n        /* \"SuperBoInuStaking.sol\":1618:1627  userStake */\n      dup4\n        /* \"SuperBoInuStaking.sol\":1618:1637  userStake.startTime */\n      0x01\n      add\n        /* \"SuperBoInuStaking.sol\":1618:1655  userStake.startTime = block.timestamp */\n      dup2\n      swap1\n      sstore\n      pop\n        /* \"SuperBoInuStaking.sol\":1681:1686  token */\n      0x01\n      0x00\n      swap1\n      sload\n      swap1\n      0x0100\n      exp\n      swap1\n      div\n      0xffffffffffffffffffffffffffffffffffffffff\n      and\n        /* \"SuperBoInuStaking.sol\":1681:1695  token.transfer */\n      0xffffffffffffffffffffffffffffffffffffffff\n      and\n      0xa9059cbb\n        /* \"SuperBoInuStaking.sol\":1696:1706  msg.sender */\n      caller\n        /* \"SuperBoInuStaking.sol\":1708:1714  reward */\n      dup4\n        /* \"SuperBoInuStaking.sol\":1681:1715  token.transfer(msg.sender, reward) */\n      mload(0x40)\n      dup4\n      0xffffffff\n      and\n      0xe0\n      shl\n      dup2\n      mstore\n      0x04\n      add\n      tag_75\n      swap3\n      swap2\n      swap1\n      tag_58\n      jump\t// in\n    tag_75:\n      0x20\n      mload(0x40)\n      dup1\n      dup4\n      sub\n      dup2\n      0x00\n      dup8\n      gas\n      call\n      iszero\n      dup1\n      iszero\n      tag_77\n      jumpi\n      returndatacopy(0x00, 0x00, returndatasize)\n      revert(0x00, returndatasize)\n    tag_77:\n      pop\n      pop\n      pop\n      pop\n      mload(0x40)\n      returndatasize\n      not(0x1f)\n      0x1f\n      dup3\n      add\n      and\n      dup3\n      add\n      dup1\n      0x40\n      mstore\n      pop\n      dup2\n      add\n      swap1\n      tag_78\n      swap2\n      swap1\n      tag_62\n      jump\t// in\n    tag_78:\n      pop\n        /* \"SuperBoInuStaking.sol\":1325:1723  {... */\n      pop\n      pop\n      pop\n        /* \"SuperBoInuStaking.sol\":1301:1723  function claim() public {... */\n      jump\t// out\n        /* \"@openzeppelin/contracts/access/Ownable.sol\":2293:2394  function renounceOwnership() public virtual onlyOwner {... */\n    tag_26:\n        /* \"@openzeppelin/contracts/access/Ownable.sol\":1531:1544  _checkOwner() */\n      tag_80\n        /* \"@openzeppelin/contracts/access/Ownable.sol\":1531:1542  _checkOwner */\n      tag_81\n        /* \"@openzeppelin/contracts/access/Ownable.sol\":1531:1544  _checkOwner() */\n      jump\t// in\n    tag_80:\n        /* \"@openzeppelin/contracts/access/Ownable.sol\":2357:2387  _transferOwnership(address(0)) */\n      tag_83\n        /* \"@openzeppelin/contracts/access/Ownable.sol\":2384:2385  0 */\n      0x00\n        /* \"@openzeppelin/contracts/access/Ownable.sol\":2357:2375  _transferOwnership */\n      tag_84\n        /* \"@openzeppelin/contracts/access/Ownable.sol\":2357:2387  _transferOwnership(address(0)) */\n      jump\t// in\n    tag_83:\n        /* \"@openzeppelin/contracts/access/Ownable.sol\":2293:2394  function renounceOwnership() public virtual onlyOwner {... */\n      jump\t// out\n        /* \"SuperBoInuStaking.sol\":248:278  uint256 public rewardRate = 10 */\n    tag_28:\n      sload(0x02)\n      dup2\n      jump\t// out\n        /* \"@openzeppelin/contracts/access/Ownable.sol\":1638:1723  function owner() public view virtual returns (address) {... */\n    tag_32:\n        /* \"@openzeppelin/contracts/access/Ownable.sol\":1684:1691  address */\n      0x00\n        /* \"@openzeppelin/contracts/access/Ownable.sol\":1710:1716  _owner */\n      0x00\n      0x00\n      swap1\n      sload\n      swap1\n      0x0100\n      exp\n      swap1\n      div\n      0xffffffffffffffffffffffffffffffffffffffff\n      and\n        /* \"@openzeppelin/contracts/access/Ownable.sol\":1703:1716  return _owner */\n      swap1\n      pop\n        /* \"@openzeppelin/contracts/access/Ownable.sol\":1638:1723  function owner() public view virtual returns (address) {... */\n      swap1\n      jump\t// out\n        /* \"SuperBoInuStaking.sol\":1731:1829  function setRewardRate(uint256 newRate) external onlyOwner {... */\n    tag_38:\n        /* \"@openzeppelin/contracts/access/Ownable.sol\":1531:1544  _checkOwner() */\n      tag_87\n        /* \"@openzeppelin/contracts/access/Ownable.sol\":1531:1542  _checkOwner */\n      tag_81\n        /* \"@openzeppelin/contracts/access/Ownable.sol\":1531:1544  _checkOwner() */\n      jump\t// in\n    tag_87:\n        /* \"SuperBoInuStaking.sol\":1814:1821  newRate */\n      dup1\n        /* \"SuperBoInuStaking.sol\":1801:1811  rewardRate */\n      0x02\n        /* \"SuperBoInuStaking.sol\":1801:1821  rewardRate = newRate */\n      dup2\n      swap1\n      sstore\n      pop\n        /* \"SuperBoInuStaking.sol\":1731:1829  function setRewardRate(uint256 newRate) external onlyOwner {... */\n      pop\n      jump\t// out\n        /* \"SuperBoInuStaking.sol\":605:989  function stake(uint256 amount) external {... */\n    tag_41:\n        /* \"SuperBoInuStaking.sol\":673:674  0 */\n      0x00\n        /* \"SuperBoInuStaking.sol\":664:670  amount */\n      dup2\n        /* \"SuperBoInuStaking.sol\":664:674  amount > 0 */\n      gt\n        /* \"SuperBoInuStaking.sol\":656:693  require(amount > 0, \"Cannot stake 0\") */\n      tag_90\n      jumpi\n      mload(0x40)\n      0x08c379a000000000000000000000000000000000000000000000000000000000\n      dup2\n      mstore\n      0x04\n      add\n      tag_91\n      swap1\n      tag_92\n      jump\t// in\n    tag_91:\n      mload(0x40)\n      dup1\n      swap2\n      sub\n      swap1\n      revert\n    tag_90:\n        /* \"SuperBoInuStaking.sol\":817:818  0 */\n      0x00\n        /* \"SuperBoInuStaking.sol\":789:795  stakes */\n      0x03\n        /* \"SuperBoInuStaking.sol\":789:807  stakes[msg.sender] */\n      0x00\n        /* \"SuperBoInuStaking.sol\":796:806  msg.sender */\n      caller\n        /* \"SuperBoInuStaking.sol\":789:807  stakes[msg.sender] */\n      0xffffffffffffffffffffffffffffffffffffffff\n      and\n      0xffffffffffffffffffffffffffffffffffffffff\n      and\n      dup2\n      mstore\n      0x20\n      add\n      swap1\n      dup2\n      mstore\n      0x20\n      add\n      0x00\n      keccak256\n        /* \"SuperBoInuStaking.sol\":789:814  stakes[msg.sender].amount */\n      0x00\n      add\n      sload\n        /* \"SuperBoInuStaking.sol\":789:818  stakes[msg.sender].amount > 0 */\n      gt\n        /* \"SuperBoInuStaking.sol\":785:854  if (stakes[msg.sender].amount > 0) {... */\n      iszero\n      tag_93\n      jumpi\n        /* \"SuperBoInuStaking.sol\":835:842  claim() */\n      tag_94\n        /* \"SuperBoInuStaking.sol\":835:840  claim */\n      tag_24\n        /* \"SuperBoInuStaking.sol\":835:842  claim() */\n      jump\t// in\n    tag_94:\n        /* \"SuperBoInuStaking.sol\":785:854  if (stakes[msg.sender].amount > 0) {... */\n    tag_93:\n        /* \"SuperBoInuStaking.sol\":866:871  token */\n      0x01\n      0x00\n      swap1\n      sload\n      swap1\n      0x0100\n      exp\n      swap1\n      div\n      0xffffffffffffffffffffffffffffffffffffffff\n      and\n        /* \"SuperBoInuStaking.sol\":866:884  token.transferFrom */\n      0xffffffffffffffffffffffffffffffffffffffff\n      and\n      0x23b872dd\n        /* \"SuperBoInuStaking.sol\":885:895  msg.sender */\n      caller\n        /* \"SuperBoInuStaking.sol\":905:909  this */\n      address\n        /* \"SuperBoInuStaking.sol\":912:918  amount */\n      dup5\n        /* \"SuperBoInuStaking.sol\":866:919  token.transferFrom(msg.sender, address(this), amount) */\n      mload(0x40)\n      dup5\n      0xffffffff\n      and\n      0xe0\n      shl\n      dup2\n      mstore\n      0x04\n      add\n      tag_95\n      swap4\n      swap3\n      swap2\n      swap1\n      tag_96\n      jump\t// in\n    tag_95:\n      0x20\n      mload(0x40)\n      dup1\n      dup4\n      sub\n      dup2\n      0x00\n      dup8\n      gas\n      call\n      iszero\n      dup1\n      iszero\n      tag_98\n      jumpi\n      returndatacopy(0x00, 0x00, returndatasize)\n      revert(0x00, returndatasize)\n    tag_98:\n      pop\n      pop\n      pop\n      pop\n      mload(0x40)\n      returndatasize\n      not(0x1f)\n      0x1f\n      dup3\n      add\n      and\n      dup3\n      add\n      dup1\n      0x40\n      mstore\n      pop\n      dup2\n      add\n      swap1\n      tag_99\n      swap2\n      swap1\n      tag_62\n      jump\t// in\n    tag_99:\n      pop\n        /* \"SuperBoInuStaking.sol\":951:981  Stake(amount, block.timestamp) */\n      mload(0x40)\n      dup1\n      0x40\n      add\n      0x40\n      mstore\n      dup1\n        /* \"SuperBoInuStaking.sol\":957:963  amount */\n      dup3\n        /* \"SuperBoInuStaking.sol\":951:981  Stake(amount, block.timestamp) */\n      dup2\n      mstore\n      0x20\n      add\n        /* \"SuperBoInuStaking.sol\":965:980  block.timestamp */\n      timestamp\n        /* \"SuperBoInuStaking.sol\":951:981  Stake(amount, block.timestamp) */\n      dup2\n      mstore\n      pop\n        /* \"SuperBoInuStaking.sol\":930:936  stakes */\n      0x03\n        /* \"SuperBoInuStaking.sol\":930:948  stakes[msg.sender] */\n      0x00\n        /* \"SuperBoInuStaking.sol\":937:947  msg.sender */\n      caller\n        /* \"SuperBoInuStaking.sol\":930:948  stakes[msg.sender] */\n      0xffffffffffffffffffffffffffffffffffffffff\n      and\n      0xffffffffffffffffffffffffffffffffffffffff\n      and\n      dup2\n      mstore\n      0x20\n      add\n      swap1\n      dup2\n      mstore\n      0x20\n      add\n      0x00\n      keccak256\n        /* \"SuperBoInuStaking.sol\":930:981  stakes[msg.sender] = Stake(amount, block.timestamp) */\n      0x00\n      dup3\n      add\n      mload\n      dup2\n      0x00\n      add\n      sstore\n      0x20\n      dup3\n      add\n      mload\n      dup2\n      0x01\n      add\n      sstore\n      swap1\n      pop\n      pop\n        /* \"SuperBoInuStaking.sol\":605:989  function stake(uint256 amount) external {... */\n      pop\n      jump\t// out\n        /* \"SuperBoInuStaking.sol\":306:357  uint256 public constant SECONDS_PER_YEAR = 365 days */\n    tag_43:\n        /* \"SuperBoInuStaking.sol\":349:357  365 days */\n      0x01e13380\n        /* \"SuperBoInuStaking.sol\":306:357  uint256 public constant SECONDS_PER_YEAR = 365 days */\n      dup2\n      jump\t// out\n        /* \"@openzeppelin/contracts/access/Ownable.sol\":2543:2758  function transferOwnership(address newOwner) public virtual onlyOwner {... */\n    tag_47:\n        /* \"@openzeppelin/contracts/access/Ownable.sol\":1531:1544  _checkOwner() */\n      tag_101\n        /* \"@openzeppelin/contracts/access/Ownable.sol\":1531:1542  _checkOwner */\n      tag_81\n        /* \"@openzeppelin/contracts/access/Ownable.sol\":1531:1544  _checkOwner() */\n      jump\t// in\n    tag_101:\n        /* \"@openzeppelin/contracts/access/Ownable.sol\":2647:2648  0 */\n      0x00\n        /* \"@openzeppelin/contracts/access/Ownable.sol\":2627:2649  newOwner == address(0) */\n      0xffffffffffffffffffffffffffffffffffffffff\n      and\n        /* \"@openzeppelin/contracts/access/Ownable.sol\":2627:2635  newOwner */\n      dup2\n        /* \"@openzeppelin/contracts/access/Ownable.sol\":2627:2649  newOwner == address(0) */\n      0xffffffffffffffffffffffffffffffffffffffff\n      and\n      sub\n        /* \"@openzeppelin/contracts/access/Ownable.sol\":2623:2714  if (newOwner == address(0)) {... */\n      tag_103\n      jumpi\n        /* \"@openzeppelin/contracts/access/Ownable.sol\":2700:2701  0 */\n      0x00\n        /* \"@openzeppelin/contracts/access/Ownable.sol\":2672:2703  OwnableInvalidOwner(address(0)) */\n      mload(0x40)\n      0x1e4fbdf700000000000000000000000000000000000000000000000000000000\n      dup2\n      mstore\n      0x04\n      add\n      tag_104\n      swap2\n      swap1\n      tag_34\n      jump\t// in\n    tag_104:\n      mload(0x40)\n      dup1\n      swap2\n      sub\n      swap1\n      revert\n        /* \"@openzeppelin/contracts/access/Ownable.sol\":2623:2714  if (newOwner == address(0)) {... */\n    tag_103:\n        /* \"@openzeppelin/contracts/access/Ownable.sol\":2723:2751  _transferOwnership(newOwner) */\n      tag_105\n        /* \"@openzeppelin/contracts/access/Ownable.sol\":2742:2750  newOwner */\n      dup2\n        /* \"@openzeppelin/contracts/access/Ownable.sol\":2723:2741  _transferOwnership */\n      tag_84\n        /* \"@openzeppelin/contracts/access/Ownable.sol\":2723:2751  _transferOwnership(newOwner) */\n      jump\t// in\n    tag_105:\n        /* \"@openzeppelin/contracts/access/Ownable.sol\":2543:2758  function transferOwnership(address newOwner) public virtual onlyOwner {... */\n      pop\n      jump\t// out\n        /* \"SuperBoInuStaking.sol\":220:239  IERC20 public token */\n    tag_49:\n      0x01\n      0x00\n      swap1\n      sload\n      swap1\n      0x0100\n      exp\n      swap1\n      div\n      0xffffffffffffffffffffffffffffffffffffffff\n      and\n      dup2\n      jump\t// out\n        /* \"@openzeppelin/contracts/access/Ownable.sol\":1796:1958  function _checkOwner() internal view virtual {... */\n    tag_81:\n        /* \"@openzeppelin/contracts/access/Ownable.sol\":1866:1878  _msgSender() */\n      tag_107\n        /* \"@openzeppelin/contracts/access/Ownable.sol\":1866:1876  _msgSender */\n      tag_108\n        /* \"@openzeppelin/contracts/access/Ownable.sol\":1866:1878  _msgSender() */\n      jump\t// in\n    tag_107:\n        /* \"@openzeppelin/contracts/access/Ownable.sol\":1855:1878  owner() != _msgSender() */\n      0xffffffffffffffffffffffffffffffffffffffff\n      and\n        /* \"@openzeppelin/contracts/access/Ownable.sol\":1855:1862  owner() */\n      tag_109\n        /* \"@openzeppelin/contracts/access/Ownable.sol\":1855:1860  owner */\n      tag_32\n        /* \"@openzeppelin/contracts/access/Ownable.sol\":1855:1862  owner() */\n      jump\t// in\n    tag_109:\n        /* \"@openzeppelin/contracts/access/Ownable.sol\":1855:1878  owner() != _msgSender() */\n      0xffffffffffffffffffffffffffffffffffffffff\n      and\n      eq\n        /* \"@openzeppelin/contracts/access/Ownable.sol\":1851:1952  if (owner() != _msgSender()) {... */\n      tag_110\n      jumpi\n        /* \"@openzeppelin/contracts/access/Ownable.sol\":1928:1940  _msgSender() */\n      tag_111\n        /* \"@openzeppelin/contracts/access/Ownable.sol\":1928:1938  _msgSender */\n      tag_108\n        /* \"@openzeppelin/contracts/access/Ownable.sol\":1928:1940  _msgSender() */\n      jump\t// in\n    tag_111:\n        /* \"@openzeppelin/contracts/access/Ownable.sol\":1901:1941  OwnableUnauthorizedAccount(_msgSender()) */\n      mload(0x40)\n      0x118cdaa700000000000000000000000000000000000000000000000000000000\n      dup2\n      mstore\n      0x04\n      add\n      tag_112\n      swap2\n      swap1\n      tag_34\n      jump\t// in\n    tag_112:\n      mload(0x40)\n      dup1\n      swap2\n      sub\n      swap1\n      revert\n        /* \"@openzeppelin/contracts/access/Ownable.sol\":1851:1952  if (owner() != _msgSender()) {... */\n    tag_110:\n        /* \"@openzeppelin/contracts/access/Ownable.sol\":1796:1958  function _checkOwner() internal view virtual {... */\n      jump\t// out\n        /* \"@openzeppelin/contracts/access/Ownable.sol\":2912:3099  function _transferOwnership(address newOwner) internal virtual {... */\n    tag_84:\n        /* \"@openzeppelin/contracts/access/Ownable.sol\":2985:3001  address oldOwner */\n      0x00\n        /* \"@openzeppelin/contracts/access/Ownable.sol\":3004:3010  _owner */\n      0x00\n      0x00\n      swap1\n      sload\n      swap1\n      0x0100\n      exp\n      swap1\n      div\n      0xffffffffffffffffffffffffffffffffffffffff\n      and\n        /* \"@openzeppelin/contracts/access/Ownable.sol\":2985:3010  address oldOwner = _owner */\n      swap1\n      pop\n        /* \"@openzeppelin/contracts/access/Ownable.sol\":3029:3037  newOwner */\n      dup2\n        /* \"@openzeppelin/contracts/access/Ownable.sol\":3020:3026  _owner */\n      0x00\n      0x00\n        /* \"@openzeppelin/contracts/access/Ownable.sol\":3020:3037  _owner = newOwner */\n      0x0100\n      exp\n      dup2\n      sload\n      dup2\n      0xffffffffffffffffffffffffffffffffffffffff\n      mul\n      not\n      and\n      swap1\n      dup4\n      0xffffffffffffffffffffffffffffffffffffffff\n      and\n      mul\n      or\n      swap1\n      sstore\n      pop\n        /* \"@openzeppelin/contracts/access/Ownable.sol\":3083:3091  newOwner */\n      dup2\n        /* \"@openzeppelin/contracts/access/Ownable.sol\":3052:3092  OwnershipTransferred(oldOwner, newOwner) */\n      0xffffffffffffffffffffffffffffffffffffffff\n      and\n        /* \"@openzeppelin/contracts/access/Ownable.sol\":3073:3081  oldOwner */\n      dup2\n        /* \"@openzeppelin/contracts/access/Ownable.sol\":3052:3092  OwnershipTransferred(oldOwner, newOwner) */\n      0xffffffffffffffffffffffffffffffffffffffff\n      and\n      0x8be0079c531659141344cd1fd0a4f28419497f9722a3daafe3b4186f6b6457e0\n      mload(0x40)\n      mload(0x40)\n      dup1\n      swap2\n      sub\n      swap1\n      log3\n        /* \"@openzeppelin/contracts/access/Ownable.sol\":2975:3099  {... */\n      pop\n        /* \"@openzeppelin/contracts/access/Ownable.sol\":2912:3099  function _transferOwnership(address newOwner) internal virtual {... */\n      pop\n      jump\t// out\n        /* \"@openzeppelin/contracts/utils/Context.sol\":656:752  function _msgSender() internal view virtual returns (address) {... */\n    tag_108:\n        /* \"@openzeppelin/contracts/utils/Context.sol\":709:716  address */\n      0x00\n        /* \"@openzeppelin/contracts/utils/Context.sol\":735:745  msg.sender */\n      caller\n        /* \"@openzeppelin/contracts/utils/Context.sol\":728:745  return msg.sender */\n      swap1\n      pop\n        /* \"@openzeppelin/contracts/utils/Context.sol\":656:752  function _msgSender() internal view virtual returns (address) {... */\n      swap1\n      jump\t// out\n        /* \"#utility.yul\":88:205   */\n    tag_116:\n        /* \"#utility.yul\":197:198   */\n      0x00\n        /* \"#utility.yul\":194:195   */\n      0x00\n        /* \"#utility.yul\":187:199   */\n      revert\n        /* \"#utility.yul\":334:460   */\n    tag_118:\n        /* \"#utility.yul\":371:378   */\n      0x00\n        /* \"#utility.yul\":411:453   */\n      0xffffffffffffffffffffffffffffffffffffffff\n        /* \"#utility.yul\":404:409   */\n      dup3\n        /* \"#utility.yul\":400:454   */\n      and\n        /* \"#utility.yul\":389:454   */\n      swap1\n      pop\n        /* \"#utility.yul\":334:460   */\n      swap2\n      swap1\n      pop\n      jump\t// out\n        /* \"#utility.yul\":466:562   */\n    tag_119:\n        /* \"#utility.yul\":503:510   */\n      0x00\n        /* \"#utility.yul\":532:556   */\n      tag_150\n        /* \"#utility.yul\":550:555   */\n      dup3\n        /* \"#utility.yul\":532:556   */\n      tag_118\n      jump\t// in\n    tag_150:\n        /* \"#utility.yul\":521:556   */\n      swap1\n      pop\n        /* \"#utility.yul\":466:562   */\n      swap2\n      swap1\n      pop\n      jump\t// out\n        /* \"#utility.yul\":568:690   */\n    tag_120:\n        /* \"#utility.yul\":641:665   */\n      tag_152\n        /* \"#utility.yul\":659:664   */\n      dup2\n        /* \"#utility.yul\":641:665   */\n      tag_119\n      jump\t// in\n    tag_152:\n        /* \"#utility.yul\":634:639   */\n      dup2\n        /* \"#utility.yul\":631:666   */\n      eq\n        /* \"#utility.yul\":621:684   */\n      tag_153\n      jumpi\n        /* \"#utility.yul\":680:681   */\n      0x00\n        /* \"#utility.yul\":677:678   */\n      0x00\n        /* \"#utility.yul\":670:682   */\n      revert\n        /* \"#utility.yul\":621:684   */\n    tag_153:\n        /* \"#utility.yul\":568:690   */\n      pop\n      jump\t// out\n        /* \"#utility.yul\":696:835   */\n    tag_121:\n        /* \"#utility.yul\":742:747   */\n      0x00\n        /* \"#utility.yul\":780:786   */\n      dup2\n        /* \"#utility.yul\":767:787   */\n      calldataload\n        /* \"#utility.yul\":758:787   */\n      swap1\n      pop\n        /* \"#utility.yul\":796:829   */\n      tag_155\n        /* \"#utility.yul\":823:828   */\n      dup2\n        /* \"#utility.yul\":796:829   */\n      tag_120\n      jump\t// in\n    tag_155:\n        /* \"#utility.yul\":696:835   */\n      swap3\n      swap2\n      pop\n      pop\n      jump\t// out\n        /* \"#utility.yul\":841:1170   */\n    tag_17:\n        /* \"#utility.yul\":900:906   */\n      0x00\n        /* \"#utility.yul\":949:951   */\n      0x20\n        /* \"#utility.yul\":937:946   */\n      dup3\n        /* \"#utility.yul\":928:935   */\n      dup5\n        /* \"#utility.yul\":924:947   */\n      sub\n        /* \"#utility.yul\":920:952   */\n      slt\n        /* \"#utility.yul\":917:1036   */\n      iszero\n      tag_157\n      jumpi\n        /* \"#utility.yul\":955:1034   */\n      tag_158\n      tag_116\n      jump\t// in\n    tag_158:\n        /* \"#utility.yul\":917:1036   */\n    tag_157:\n        /* \"#utility.yul\":1075:1076   */\n      0x00\n        /* \"#utility.yul\":1100:1153   */\n      tag_159\n        /* \"#utility.yul\":1145:1152   */\n      dup5\n        /* \"#utility.yul\":1136:1142   */\n      dup3\n        /* \"#utility.yul\":1125:1134   */\n      dup6\n        /* \"#utility.yul\":1121:1143   */\n      add\n        /* \"#utility.yul\":1100:1153   */\n      tag_121\n      jump\t// in\n    tag_159:\n        /* \"#utility.yul\":1090:1153   */\n      swap2\n      pop\n        /* \"#utility.yul\":1046:1163   */\n      pop\n        /* \"#utility.yul\":841:1170   */\n      swap3\n      swap2\n      pop\n      pop\n      jump\t// out\n        /* \"#utility.yul\":1176:1253   */\n    tag_122:\n        /* \"#utility.yul\":1213:1220   */\n      0x00\n        /* \"#utility.yul\":1242:1247   */\n      dup2\n        /* \"#utility.yul\":1231:1247   */\n      swap1\n      pop\n        /* \"#utility.yul\":1176:1253   */\n      swap2\n      swap1\n      pop\n      jump\t// out\n        /* \"#utility.yul\":1259:1377   */\n    tag_123:\n        /* \"#utility.yul\":1346:1370   */\n      tag_162\n        /* \"#utility.yul\":1364:1369   */\n      dup2\n        /* \"#utility.yul\":1346:1370   */\n      tag_122\n      jump\t// in\n    tag_162:\n        /* \"#utility.yul\":1341:1344   */\n      dup3\n        /* \"#utility.yul\":1334:1371   */\n      mstore\n        /* \"#utility.yul\":1259:1377   */\n      pop\n      pop\n      jump\t// out\n        /* \"#utility.yul\":1383:1715   */\n    tag_20:\n        /* \"#utility.yul\":1504:1508   */\n      0x00\n        /* \"#utility.yul\":1542:1544   */\n      0x40\n        /* \"#utility.yul\":1531:1540   */\n      dup3\n        /* \"#utility.yul\":1527:1545   */\n      add\n        /* \"#utility.yul\":1519:1545   */\n      swap1\n      pop\n        /* \"#utility.yul\":1555:1626   */\n      tag_164\n        /* \"#utility.yul\":1623:1624   */\n      0x00\n        /* \"#utility.yul\":1612:1621   */\n      dup4\n        /* \"#utility.yul\":1608:1625   */\n      add\n        /* \"#utility.yul\":1599:1605   */\n      dup6\n        /* \"#utility.yul\":1555:1626   */\n      tag_123\n      jump\t// in\n    tag_164:\n        /* \"#utility.yul\":1636:1708   */\n      tag_165\n        /* \"#utility.yul\":1704:1706   */\n      0x20\n        /* \"#utility.yul\":1693:1702   */\n      dup4\n        /* \"#utility.yul\":1689:1707   */\n      add\n        /* \"#utility.yul\":1680:1686   */\n      dup5\n        /* \"#utility.yul\":1636:1708   */\n      tag_123\n      jump\t// in\n    tag_165:\n        /* \"#utility.yul\":1383:1715   */\n      swap4\n      swap3\n      pop\n      pop\n      pop\n      jump\t// out\n        /* \"#utility.yul\":1721:1943   */\n    tag_30:\n        /* \"#utility.yul\":1814:1818   */\n      0x00\n        /* \"#utility.yul\":1852:1854   */\n      0x20\n        /* \"#utility.yul\":1841:1850   */\n      dup3\n        /* \"#utility.yul\":1837:1855   */\n      add\n        /* \"#utility.yul\":1829:1855   */\n      swap1\n      pop\n        /* \"#utility.yul\":1865:1936   */\n      tag_167\n        /* \"#utility.yul\":1933:1934   */\n      0x00\n        /* \"#utility.yul\":1922:1931   */\n      dup4\n        /* \"#utility.yul\":1918:1935   */\n      add\n        /* \"#utility.yul\":1909:1915   */\n      dup5\n        /* \"#utility.yul\":1865:1936   */\n      tag_123\n      jump\t// in\n    tag_167:\n        /* \"#utility.yul\":1721:1943   */\n      swap3\n      swap2\n      pop\n      pop\n      jump\t// out\n        /* \"#utility.yul\":1949:2067   */\n    tag_124:\n        /* \"#utility.yul\":2036:2060   */\n      tag_169\n        /* \"#utility.yul\":2054:2059   */\n      dup2\n        /* \"#utility.yul\":2036:2060   */\n      tag_119\n      jump\t// in\n    tag_169:\n        /* \"#utility.yul\":2031:2034   */\n      dup3\n        /* \"#utility.yul\":2024:2061   */\n      mstore\n        /* \"#utility.yul\":1949:2067   */\n      pop\n      pop\n      jump\t// out\n        /* \"#utility.yul\":2073:2295   */\n    tag_34:\n        /* \"#utility.yul\":2166:2170   */\n      0x00\n        /* \"#utility.yul\":2204:2206   */\n      0x20\n        /* \"#utility.yul\":2193:2202   */\n      dup3\n        /* \"#utility.yul\":2189:2207   */\n      add\n        /* \"#utility.yul\":2181:2207   */\n      swap1\n      pop\n        /* \"#utility.yul\":2217:2288   */\n      tag_171\n        /* \"#utility.yul\":2285:2286   */\n      0x00\n        /* \"#utility.yul\":2274:2283   */\n      dup4\n        /* \"#utility.yul\":2270:2287   */\n      add\n        /* \"#utility.yul\":2261:2267   */\n      dup5\n        /* \"#utility.yul\":2217:2288   */\n      tag_124\n      jump\t// in\n    tag_171:\n        /* \"#utility.yul\":2073:2295   */\n      swap3\n      swap2\n      pop\n      pop\n      jump\t// out\n        /* \"#utility.yul\":2301:2423   */\n    tag_125:\n        /* \"#utility.yul\":2374:2398   */\n      tag_173\n        /* \"#utility.yul\":2392:2397   */\n      dup2\n        /* \"#utility.yul\":2374:2398   */\n      tag_122\n      jump\t// in\n    tag_173:\n        /* \"#utility.yul\":2367:2372   */\n      dup2\n        /* \"#utility.yul\":2364:2399   */\n      eq\n        /* \"#utility.yul\":2354:2417   */\n      tag_174\n      jumpi\n        /* \"#utility.yul\":2413:2414   */\n      0x00\n        /* \"#utility.yul\":2410:2411   */\n      0x00\n        /* \"#utility.yul\":2403:2415   */\n      revert\n        /* \"#utility.yul\":2354:2417   */\n    tag_174:\n        /* \"#utility.yul\":2301:2423   */\n      pop\n      jump\t// out\n        /* \"#utility.yul\":2429:2568   */\n    tag_126:\n        /* \"#utility.yul\":2475:2480   */\n      0x00\n        /* \"#utility.yul\":2513:2519   */\n      dup2\n        /* \"#utility.yul\":2500:2520   */\n      calldataload\n        /* \"#utility.yul\":2491:2520   */\n      swap1\n      pop\n        /* \"#utility.yul\":2529:2562   */\n      tag_176\n        /* \"#utility.yul\":2556:2561   */\n      dup2\n        /* \"#utility.yul\":2529:2562   */\n      tag_125\n      jump\t// in\n    tag_176:\n        /* \"#utility.yul\":2429:2568   */\n      swap3\n      swap2\n      pop\n      pop\n      jump\t// out\n        /* \"#utility.yul\":2574:2903   */\n    tag_37:\n        /* \"#utility.yul\":2633:2639   */\n      0x00\n        /* \"#utility.yul\":2682:2684   */\n      0x20\n        /* \"#utility.yul\":2670:2679   */\n      dup3\n        /* \"#utility.yul\":2661:2668   */\n      dup5\n        /* \"#utility.yul\":2657:2680   */\n      sub\n        /* \"#utility.yul\":2653:2685   */\n      slt\n        /* \"#utility.yul\":2650:2769   */\n      iszero\n      tag_178\n      jumpi\n        /* \"#utility.yul\":2688:2767   */\n      tag_179\n      tag_116\n      jump\t// in\n    tag_179:\n        /* \"#utility.yul\":2650:2769   */\n    tag_178:\n        /* \"#utility.yul\":2808:2809   */\n      0x00\n        /* \"#utility.yul\":2833:2886   */\n      tag_180\n        /* \"#utility.yul\":2878:2885   */\n      dup5\n        /* \"#utility.yul\":2869:2875   */\n      dup3\n        /* \"#utility.yul\":2858:2867   */\n      dup6\n        /* \"#utility.yul\":2854:2876   */\n      add\n        /* \"#utility.yul\":2833:2886   */\n      tag_126\n      jump\t// in\n    tag_180:\n        /* \"#utility.yul\":2823:2886   */\n      swap2\n      pop\n        /* \"#utility.yul\":2779:2896   */\n      pop\n        /* \"#utility.yul\":2574:2903   */\n      swap3\n      swap2\n      pop\n      pop\n      jump\t// out\n        /* \"#utility.yul\":2909:2969   */\n    tag_127:\n        /* \"#utility.yul\":2937:2940   */\n      0x00\n        /* \"#utility.yul\":2958:2963   */\n      dup2\n        /* \"#utility.yul\":2951:2963   */\n      swap1\n      pop\n        /* \"#utility.yul\":2909:2969   */\n      swap2\n      swap1\n      pop\n      jump\t// out\n        /* \"#utility.yul\":2975:3117   */\n    tag_128:\n        /* \"#utility.yul\":3025:3034   */\n      0x00\n        /* \"#utility.yul\":3058:3111   */\n      tag_183\n        /* \"#utility.yul\":3076:3110   */\n      tag_184\n        /* \"#utility.yul\":3085:3109   */\n      tag_185\n        /* \"#utility.yul\":3103:3108   */\n      dup5\n        /* \"#utility.yul\":3085:3109   */\n      tag_118\n      jump\t// in\n    tag_185:\n        /* \"#utility.yul\":3076:3110   */\n      tag_127\n      jump\t// in\n    tag_184:\n        /* \"#utility.yul\":3058:3111   */\n      tag_118\n      jump\t// in\n    tag_183:\n        /* \"#utility.yul\":3045:3111   */\n      swap1\n      pop\n        /* \"#utility.yul\":2975:3117   */\n      swap2\n      swap1\n      pop\n      jump\t// out\n        /* \"#utility.yul\":3123:3249   */\n    tag_129:\n        /* \"#utility.yul\":3173:3182   */\n      0x00\n        /* \"#utility.yul\":3206:3243   */\n      tag_187\n        /* \"#utility.yul\":3237:3242   */\n      dup3\n        /* \"#utility.yul\":3206:3243   */\n      tag_128\n      jump\t// in\n    tag_187:\n        /* \"#utility.yul\":3193:3243   */\n      swap1\n      pop\n        /* \"#utility.yul\":3123:3249   */\n      swap2\n      swap1\n      pop\n      jump\t// out\n        /* \"#utility.yul\":3255:3395   */\n    tag_130:\n        /* \"#utility.yul\":3319:3328   */\n      0x00\n        /* \"#utility.yul\":3352:3389   */\n      tag_189\n        /* \"#utility.yul\":3383:3388   */\n      dup3\n        /* \"#utility.yul\":3352:3389   */\n      tag_129\n      jump\t// in\n    tag_189:\n        /* \"#utility.yul\":3339:3389   */\n      swap1\n      pop\n        /* \"#utility.yul\":3255:3395   */\n      swap2\n      swap1\n      pop\n      jump\t// out\n        /* \"#utility.yul\":3401:3560   */\n    tag_131:\n        /* \"#utility.yul\":3502:3553   */\n      tag_191\n        /* \"#utility.yul\":3547:3552   */\n      dup2\n        /* \"#utility.yul\":3502:3553   */\n      tag_130\n      jump\t// in\n    tag_191:\n        /* \"#utility.yul\":3497:3500   */\n      dup3\n        /* \"#utility.yul\":3490:3554   */\n      mstore\n        /* \"#utility.yul\":3401:3560   */\n      pop\n      pop\n      jump\t// out\n        /* \"#utility.yul\":3566:3816   */\n    tag_51:\n        /* \"#utility.yul\":3673:3677   */\n      0x00\n        /* \"#utility.yul\":3711:3713   */\n      0x20\n        /* \"#utility.yul\":3700:3709   */\n      dup3\n        /* \"#utility.yul\":3696:3714   */\n      add\n        /* \"#utility.yul\":3688:3714   */\n      swap1\n      pop\n        /* \"#utility.yul\":3724:3809   */\n      tag_193\n        /* \"#utility.yul\":3806:3807   */\n      0x00\n        /* \"#utility.yul\":3795:3804   */\n      dup4\n        /* \"#utility.yul\":3791:3808   */\n      add\n        /* \"#utility.yul\":3782:3788   */\n      dup5\n        /* \"#utility.yul\":3724:3809   */\n      tag_131\n      jump\t// in\n    tag_193:\n        /* \"#utility.yul\":3566:3816   */\n      swap3\n      swap2\n      pop\n      pop\n      jump\t// out\n        /* \"#utility.yul\":3822:3991   */\n    tag_132:\n        /* \"#utility.yul\":3906:3917   */\n      0x00\n        /* \"#utility.yul\":3940:3946   */\n      dup3\n        /* \"#utility.yul\":3935:3938   */\n      dup3\n        /* \"#utility.yul\":3928:3947   */\n      mstore\n        /* \"#utility.yul\":3980:3984   */\n      0x20\n        /* \"#utility.yul\":3975:3978   */\n      dup3\n        /* \"#utility.yul\":3971:3985   */\n      add\n        /* \"#utility.yul\":3956:3985   */\n      swap1\n      pop\n        /* \"#utility.yul\":3822:3991   */\n      swap3\n      swap2\n      pop\n      pop\n      jump\t// out\n        /* \"#utility.yul\":3997:4161   */\n    tag_133:\n        /* \"#utility.yul\":4137:4153   */\n      0x4e6f7468696e67207374616b6564000000000000000000000000000000000000\n        /* \"#utility.yul\":4133:4134   */\n      0x00\n        /* \"#utility.yul\":4125:4131   */\n      dup3\n        /* \"#utility.yul\":4121:4135   */\n      add\n        /* \"#utility.yul\":4114:4154   */\n      mstore\n        /* \"#utility.yul\":3997:4161   */\n      pop\n      jump\t// out\n        /* \"#utility.yul\":4167:4533   */\n    tag_134:\n        /* \"#utility.yul\":4309:4312   */\n      0x00\n        /* \"#utility.yul\":4330:4397   */\n      tag_197\n        /* \"#utility.yul\":4394:4396   */\n      0x0e\n        /* \"#utility.yul\":4389:4392   */\n      dup4\n        /* \"#utility.yul\":4330:4397   */\n      tag_132\n      jump\t// in\n    tag_197:\n        /* \"#utility.yul\":4323:4397   */\n      swap2\n      pop\n        /* \"#utility.yul\":4406:4499   */\n      tag_198\n        /* \"#utility.yul\":4495:4498   */\n      dup3\n        /* \"#utility.yul\":4406:4499   */\n      tag_133\n      jump\t// in\n    tag_198:\n        /* \"#utility.yul\":4524:4526   */\n      0x20\n        /* \"#utility.yul\":4519:4522   */\n      dup3\n        /* \"#utility.yul\":4515:4527   */\n      add\n        /* \"#utility.yul\":4508:4527   */\n      swap1\n      pop\n        /* \"#utility.yul\":4167:4533   */\n      swap2\n      swap1\n      pop\n      jump\t// out\n        /* \"#utility.yul\":4539:4958   */\n    tag_55:\n        /* \"#utility.yul\":4705:4709   */\n      0x00\n        /* \"#utility.yul\":4743:4745   */\n      0x20\n        /* \"#utility.yul\":4732:4741   */\n      dup3\n        /* \"#utility.yul\":4728:4746   */\n      add\n        /* \"#utility.yul\":4720:4746   */\n      swap1\n      pop\n        /* \"#utility.yul\":4792:4801   */\n      dup2\n        /* \"#utility.yul\":4786:4790   */\n      dup2\n        /* \"#utility.yul\":4782:4802   */\n      sub\n        /* \"#utility.yul\":4778:4779   */\n      0x00\n        /* \"#utility.yul\":4767:4776   */\n      dup4\n        /* \"#utility.yul\":4763:4780   */\n      add\n        /* \"#utility.yul\":4756:4803   */\n      mstore\n        /* \"#utility.yul\":4820:4951   */\n      tag_200\n        /* \"#utility.yul\":4946:4950   */\n      dup2\n        /* \"#utility.yul\":4820:4951   */\n      tag_134\n      jump\t// in\n    tag_200:\n        /* \"#utility.yul\":4812:4951   */\n      swap1\n      pop\n        /* \"#utility.yul\":4539:4958   */\n      swap2\n      swap1\n      pop\n      jump\t// out\n        /* \"#utility.yul\":4964:5296   */\n    tag_58:\n        /* \"#utility.yul\":5085:5089   */\n      0x00\n        /* \"#utility.yul\":5123:5125   */\n      0x40\n        /* \"#utility.yul\":5112:5121   */\n      dup3\n        /* \"#utility.yul\":5108:5126   */\n      add\n        /* \"#utility.yul\":5100:5126   */\n      swap1\n      pop\n        /* \"#utility.yul\":5136:5207   */\n      tag_202\n        /* \"#utility.yul\":5204:5205   */\n      0x00\n        /* \"#utility.yul\":5193:5202   */\n      dup4\n        /* \"#utility.yul\":5189:5206   */\n      add\n        /* \"#utility.yul\":5180:5186   */\n      dup6\n        /* \"#utility.yul\":5136:5207   */\n      tag_124\n      jump\t// in\n    tag_202:\n        /* \"#utility.yul\":5217:5289   */\n      tag_203\n        /* \"#utility.yul\":5285:5287   */\n      0x20\n        /* \"#utility.yul\":5274:5283   */\n      dup4\n        /* \"#utility.yul\":5270:5288   */\n      add\n        /* \"#utility.yul\":5261:5267   */\n      dup5\n        /* \"#utility.yul\":5217:5289   */\n      tag_123\n      jump\t// in\n    tag_203:\n        /* \"#utility.yul\":4964:5296   */\n      swap4\n      swap3\n      pop\n      pop\n      pop\n      jump\t// out\n        /* \"#utility.yul\":5302:5392   */\n    tag_135:\n        /* \"#utility.yul\":5336:5343   */\n      0x00\n        /* \"#utility.yul\":5379:5384   */\n      dup2\n        /* \"#utility.yul\":5372:5385   */\n      iszero\n        /* \"#utility.yul\":5365:5386   */\n      iszero\n        /* \"#utility.yul\":5354:5386   */\n      swap1\n      pop\n        /* \"#utility.yul\":5302:5392   */\n      swap2\n      swap1\n      pop\n      jump\t// out\n        /* \"#utility.yul\":5398:5514   */\n    tag_136:\n        /* \"#utility.yul\":5468:5489   */\n      tag_206\n        /* \"#utility.yul\":5483:5488   */\n      dup2\n        /* \"#utility.yul\":5468:5489   */\n      tag_135\n      jump\t// in\n    tag_206:\n        /* \"#utility.yul\":5461:5466   */\n      dup2\n        /* \"#utility.yul\":5458:5490   */\n      eq\n        /* \"#utility.yul\":5448:5508   */\n      tag_207\n      jumpi\n        /* \"#utility.yul\":5504:5505   */\n      0x00\n        /* \"#utility.yul\":5501:5502   */\n      0x00\n        /* \"#utility.yul\":5494:5506   */\n      revert\n        /* \"#utility.yul\":5448:5508   */\n    tag_207:\n        /* \"#utility.yul\":5398:5514   */\n      pop\n      jump\t// out\n        /* \"#utility.yul\":5520:5657   */\n    tag_137:\n        /* \"#utility.yul\":5574:5579   */\n      0x00\n        /* \"#utility.yul\":5605:5611   */\n      dup2\n        /* \"#utility.yul\":5599:5612   */\n      mload\n        /* \"#utility.yul\":5590:5612   */\n      swap1\n      pop\n        /* \"#utility.yul\":5621:5651   */\n      tag_209\n        /* \"#utility.yul\":5645:5650   */\n      dup2\n        /* \"#utility.yul\":5621:5651   */\n      tag_136\n      jump\t// in\n    tag_209:\n        /* \"#utility.yul\":5520:5657   */\n      swap3\n      swap2\n      pop\n      pop\n      jump\t// out\n        /* \"#utility.yul\":5663:6008   */\n    tag_62:\n        /* \"#utility.yul\":5730:5736   */\n      0x00\n        /* \"#utility.yul\":5779:5781   */\n      0x20\n        /* \"#utility.yul\":5767:5776   */\n      dup3\n        /* \"#utility.yul\":5758:5765   */\n      dup5\n        /* \"#utility.yul\":5754:5777   */\n      sub\n        /* \"#utility.yul\":5750:5782   */\n      slt\n        /* \"#utility.yul\":5747:5866   */\n      iszero\n      tag_211\n      jumpi\n        /* \"#utility.yul\":5785:5864   */\n      tag_212\n      tag_116\n      jump\t// in\n    tag_212:\n        /* \"#utility.yul\":5747:5866   */\n    tag_211:\n        /* \"#utility.yul\":5905:5906   */\n      0x00\n        /* \"#utility.yul\":5930:5991   */\n      tag_213\n        /* \"#utility.yul\":5983:5990   */\n      dup5\n        /* \"#utility.yul\":5974:5980   */\n      dup3\n        /* \"#utility.yul\":5963:5972   */\n      dup6\n        /* \"#utility.yul\":5959:5981   */\n      add\n        /* \"#utility.yul\":5930:5991   */\n      tag_137\n      jump\t// in\n    tag_213:\n        /* \"#utility.yul\":5920:5991   */\n      swap2\n      pop\n        /* \"#utility.yul\":5876:6001   */\n      pop\n        /* \"#utility.yul\":5663:6008   */\n      swap3\n      swap2\n      pop\n      pop\n      jump\t// out\n        /* \"#utility.yul\":6014:6179   */\n    tag_138:\n        /* \"#utility.yul\":6154:6171   */\n      0x4e6f20616374697665207374616b650000000000000000000000000000000000\n        /* \"#utility.yul\":6150:6151   */\n      0x00\n        /* \"#utility.yul\":6142:6148   */\n      dup3\n        /* \"#utility.yul\":6138:6152   */\n      add\n        /* \"#utility.yul\":6131:6172   */\n      mstore\n        /* \"#utility.yul\":6014:6179   */\n      pop\n      jump\t// out\n        /* \"#utility.yul\":6185:6551   */\n    tag_139:\n        /* \"#utility.yul\":6327:6330   */\n      0x00\n        /* \"#utility.yul\":6348:6415   */\n      tag_216\n        /* \"#utility.yul\":6412:6414   */\n      0x0f\n        /* \"#utility.yul\":6407:6410   */\n      dup4\n        /* \"#utility.yul\":6348:6415   */\n      tag_132\n      jump\t// in\n    tag_216:\n        /* \"#utility.yul\":6341:6415   */\n      swap2\n      pop\n        /* \"#utility.yul\":6424:6517   */\n      tag_217\n        /* \"#utility.yul\":6513:6516   */\n      dup3\n        /* \"#utility.yul\":6424:6517   */\n      tag_138\n      jump\t// in\n    tag_217:\n        /* \"#utility.yul\":6542:6544   */\n      0x20\n        /* \"#utility.yul\":6537:6540   */\n      dup3\n        /* \"#utility.yul\":6533:6545   */\n      add\n        /* \"#utility.yul\":6526:6545   */\n      swap1\n      pop\n        /* \"#utility.yul\":6185:6551   */\n      swap2\n      swap1\n      pop\n      jump\t// out\n        /* \"#utility.yul\":6557:6976   */\n    tag_66:\n        /* \"#utility.yul\":6723:6727   */\n      0x00\n        /* \"#utility.yul\":6761:6763   */\n      0x20\n        /* \"#utility.yul\":6750:6759   */\n      dup3\n        /* \"#utility.yul\":6746:6764   */\n      add\n        /* \"#utility.yul\":6738:6764   */\n      swap1\n      pop\n        /* \"#utility.yul\":6810:6819   */\n      dup2\n        /* \"#utility.yul\":6804:6808   */\n      dup2\n        /* \"#utility.yul\":6800:6820   */\n      sub\n        /* \"#utility.yul\":6796:6797   */\n      0x00\n        /* \"#utility.yul\":6785:6794   */\n      dup4\n        /* \"#utility.yul\":6781:6798   */\n      add\n        /* \"#utility.yul\":6774:6821   */\n      mstore\n        /* \"#utility.yul\":6838:6969   */\n      tag_219\n        /* \"#utility.yul\":6964:6968   */\n      dup2\n        /* \"#utility.yul\":6838:6969   */\n      tag_139\n      jump\t// in\n    tag_219:\n        /* \"#utility.yul\":6830:6969   */\n      swap1\n      pop\n        /* \"#utility.yul\":6557:6976   */\n      swap2\n      swap1\n      pop\n      jump\t// out\n        /* \"#utility.yul\":6982:7162   */\n    tag_140:\n        /* \"#utility.yul\":7030:7107   */\n      0x4e487b7100000000000000000000000000000000000000000000000000000000\n        /* \"#utility.yul\":7027:7028   */\n      0x00\n        /* \"#utility.yul\":7020:7108   */\n      mstore\n        /* \"#utility.yul\":7127:7131   */\n      0x11\n        /* \"#utility.yul\":7124:7125   */\n      0x04\n        /* \"#utility.yul\":7117:7132   */\n      mstore\n        /* \"#utility.yul\":7151:7155   */\n      0x24\n        /* \"#utility.yul\":7148:7149   */\n      0x00\n        /* \"#utility.yul\":7141:7156   */\n      revert\n        /* \"#utility.yul\":7168:7362   */\n    tag_68:\n        /* \"#utility.yul\":7208:7212   */\n      0x00\n        /* \"#utility.yul\":7228:7248   */\n      tag_222\n        /* \"#utility.yul\":7246:7247   */\n      dup3\n        /* \"#utility.yul\":7228:7248   */\n      tag_122\n      jump\t// in\n    tag_222:\n        /* \"#utility.yul\":7223:7248   */\n      swap2\n      pop\n        /* \"#utility.yul\":7262:7282   */\n      tag_223\n        /* \"#utility.yul\":7280:7281   */\n      dup4\n        /* \"#utility.yul\":7262:7282   */\n      tag_122\n      jump\t// in\n    tag_223:\n        /* \"#utility.yul\":7257:7282   */\n      swap3\n      pop\n        /* \"#utility.yul\":7306:7307   */\n      dup3\n        /* \"#utility.yul\":7303:7304   */\n      dup3\n        /* \"#utility.yul\":7299:7308   */\n      sub\n        /* \"#utility.yul\":7291:7308   */\n      swap1\n      pop\n        /* \"#utility.yul\":7330:7331   */\n      dup2\n        /* \"#utility.yul\":7324:7328   */\n      dup2\n        /* \"#utility.yul\":7321:7332   */\n      gt\n        /* \"#utility.yul\":7318:7355   */\n      iszero\n      tag_224\n      jumpi\n        /* \"#utility.yul\":7335:7353   */\n      tag_225\n      tag_140\n      jump\t// in\n    tag_225:\n        /* \"#utility.yul\":7318:7355   */\n    tag_224:\n        /* \"#utility.yul\":7168:7362   */\n      swap3\n      swap2\n      pop\n      pop\n      jump\t// out\n        /* \"#utility.yul\":7368:7778   */\n    tag_70:\n        /* \"#utility.yul\":7408:7415   */\n      0x00\n        /* \"#utility.yul\":7431:7451   */\n      tag_227\n        /* \"#utility.yul\":7449:7450   */\n      dup3\n        /* \"#utility.yul\":7431:7451   */\n      tag_122\n      jump\t// in\n    tag_227:\n        /* \"#utility.yul\":7426:7451   */\n      swap2\n      pop\n        /* \"#utility.yul\":7465:7485   */\n      tag_228\n        /* \"#utility.yul\":7483:7484   */\n      dup4\n        /* \"#utility.yul\":7465:7485   */\n      tag_122\n      jump\t// in\n    tag_228:\n        /* \"#utility.yul\":7460:7485   */\n      swap3\n      pop\n        /* \"#utility.yul\":7520:7521   */\n      dup3\n        /* \"#utility.yul\":7517:7518   */\n      dup3\n        /* \"#utility.yul\":7513:7522   */\n      mul\n        /* \"#utility.yul\":7542:7572   */\n      tag_229\n        /* \"#utility.yul\":7560:7571   */\n      dup2\n        /* \"#utility.yul\":7542:7572   */\n      tag_122\n      jump\t// in\n    tag_229:\n        /* \"#utility.yul\":7531:7572   */\n      swap2\n      pop\n        /* \"#utility.yul\":7721:7722   */\n      dup3\n        /* \"#utility.yul\":7712:7719   */\n      dup3\n        /* \"#utility.yul\":7708:7723   */\n      div\n        /* \"#utility.yul\":7705:7706   */\n      dup5\n        /* \"#utility.yul\":7702:7724   */\n      eq\n        /* \"#utility.yul\":7682:7683   */\n      dup4\n        /* \"#utility.yul\":7675:7684   */\n      iszero\n        /* \"#utility.yul\":7655:7738   */\n      or\n        /* \"#utility.yul\":7632:7771   */\n      tag_230\n      jumpi\n        /* \"#utility.yul\":7751:7769   */\n      tag_231\n      tag_140\n      jump\t// in\n    tag_231:\n        /* \"#utility.yul\":7632:7771   */\n    tag_230:\n        /* \"#utility.yul\":7416:7778   */\n      pop\n        /* \"#utility.yul\":7368:7778   */\n      swap3\n      swap2\n      pop\n      pop\n      jump\t// out\n        /* \"#utility.yul\":7784:7964   */\n    tag_141:\n        /* \"#utility.yul\":7832:7909   */\n      0x4e487b7100000000000000000000000000000000000000000000000000000000\n        /* \"#utility.yul\":7829:7830   */\n      0x00\n        /* \"#utility.yul\":7822:7910   */\n      mstore\n        /* \"#utility.yul\":7929:7933   */\n      0x12\n        /* \"#utility.yul\":7926:7927   */\n      0x04\n        /* \"#utility.yul\":7919:7934   */\n      mstore\n        /* \"#utility.yul\":7953:7957   */\n      0x24\n        /* \"#utility.yul\":7950:7951   */\n      0x00\n        /* \"#utility.yul\":7943:7958   */\n      revert\n        /* \"#utility.yul\":7970:8155   */\n    tag_74:\n        /* \"#utility.yul\":8010:8011   */\n      0x00\n        /* \"#utility.yul\":8027:8047   */\n      tag_234\n        /* \"#utility.yul\":8045:8046   */\n      dup3\n        /* \"#utility.yul\":8027:8047   */\n      tag_122\n      jump\t// in\n    tag_234:\n        /* \"#utility.yul\":8022:8047   */\n      swap2\n      pop\n        /* \"#utility.yul\":8061:8081   */\n      tag_235\n        /* \"#utility.yul\":8079:8080   */\n      dup4\n        /* \"#utility.yul\":8061:8081   */\n      tag_122\n      jump\t// in\n    tag_235:\n        /* \"#utility.yul\":8056:8081   */\n      swap3\n      pop\n        /* \"#utility.yul\":8100:8101   */\n      dup3\n        /* \"#utility.yul\":8090:8125   */\n      tag_236\n      jumpi\n        /* \"#utility.yul\":8105:8123   */\n      tag_237\n      tag_141\n      jump\t// in\n    tag_237:\n        /* \"#utility.yul\":8090:8125   */\n    tag_236:\n        /* \"#utility.yul\":8147:8148   */\n      dup3\n        /* \"#utility.yul\":8144:8145   */\n      dup3\n        /* \"#utility.yul\":8140:8149   */\n      div\n        /* \"#utility.yul\":8135:8149   */\n      swap1\n      pop\n        /* \"#utility.yul\":7970:8155   */\n      swap3\n      swap2\n      pop\n      pop\n      jump\t// out\n        /* \"#utility.yul\":8161:8325   */\n    tag_142:\n        /* \"#utility.yul\":8301:8317   */\n      0x43616e6e6f74207374616b652030000000000000000000000000000000000000\n        /* \"#utility.yul\":8297:8298   */\n      0x00\n        /* \"#utility.yul\":8289:8295   */\n      dup3\n        /* \"#utility.yul\":8285:8299   */\n      add\n        /* \"#utility.yul\":8278:8318   */\n      mstore\n        /* \"#utility.yul\":8161:8325   */\n      pop\n      jump\t// out\n        /* \"#utility.yul\":8331:8697   */\n    tag_143:\n        /* \"#utility.yul\":8473:8476   */\n      0x00\n        /* \"#utility.yul\":8494:8561   */\n      tag_240\n        /* \"#utility.yul\":8558:8560   */\n      0x0e\n        /* \"#utility.yul\":8553:8556   */\n      dup4\n        /* \"#utility.yul\":8494:8561   */\n      tag_132\n      jump\t// in\n    tag_240:\n        /* \"#utility.yul\":8487:8561   */\n      swap2\n      pop\n        /* \"#utility.yul\":8570:8663   */\n      tag_241\n        /* \"#utility.yul\":8659:8662   */\n      dup3\n        /* \"#utility.yul\":8570:8663   */\n      tag_142\n      jump\t// in\n    tag_241:\n        /* \"#utility.yul\":8688:8690   */\n      0x20\n        /* \"#utility.yul\":8683:8686   */\n      dup3\n        /* \"#utility.yul\":8679:8691   */\n      add\n        /* \"#utility.yul\":8672:8691   */\n      swap1\n      pop\n        /* \"#utility.yul\":8331:8697   */\n      swap2\n      swap1\n      pop\n      jump\t// out\n        /* \"#utility.yul\":8703:9122   */\n    tag_92:\n        /* \"#utility.yul\":8869:8873   */\n      0x00\n        /* \"#utility.yul\":8907:8909   */\n      0x20\n        /* \"#utility.yul\":8896:8905   */\n      dup3\n        /* \"#utility.yul\":8892:8910   */\n      add\n        /* \"#utility.yul\":8884:8910   */\n      swap1\n      pop\n        /* \"#utility.yul\":8956:8965   */\n      dup2\n        /* \"#utility.yul\":8950:8954   */\n      dup2\n        /* \"#utility.yul\":8946:8966   */\n      sub\n        /* \"#utility.yul\":8942:8943   */\n      0x00\n        /* \"#utility.yul\":8931:8940   */\n      dup4\n        /* \"#utility.yul\":8927:8944   */\n      add\n        /* \"#utility.yul\":8920:8967   */\n      mstore\n        /* \"#utility.yul\":8984:9115   */\n      tag_243\n        /* \"#utility.yul\":9110:9114   */\n      dup2\n        /* \"#utility.yul\":8984:9115   */\n      tag_143\n      jump\t// in\n    tag_243:\n        /* \"#utility.yul\":8976:9115   */\n      swap1\n      pop\n        /* \"#utility.yul\":8703:9122   */\n      swap2\n      swap1\n      pop\n      jump\t// out\n        /* \"#utility.yul\":9128:9570   */\n    tag_96:\n        /* \"#utility.yul\":9277:9281   */\n      0x00\n        /* \"#utility.yul\":9315:9317   */\n      0x60\n        /* \"#utility.yul\":9304:9313   */\n      dup3\n        /* \"#utility.yul\":9300:9318   */\n      add\n        /* \"#utility.yul\":9292:9318   */\n      swap1\n      pop\n        /* \"#utility.yul\":9328:9399   */\n      tag_245\n        /* \"#utility.yul\":9396:9397   */\n      0x00\n        /* \"#utility.yul\":9385:9394   */\n      dup4\n        /* \"#utility.yul\":9381:9398   */\n      add\n        /* \"#utility.yul\":9372:9378   */\n      dup7\n        /* \"#utility.yul\":9328:9399   */\n      tag_124\n      jump\t// in\n    tag_245:\n        /* \"#utility.yul\":9409:9481   */\n      tag_246\n        /* \"#utility.yul\":9477:9479   */\n      0x20\n        /* \"#utility.yul\":9466:9475   */\n      dup4\n        /* \"#utility.yul\":9462:9480   */\n      add\n        /* \"#utility.yul\":9453:9459   */\n      dup6\n        /* \"#utility.yul\":9409:9481   */\n      tag_124\n      jump\t// in\n    tag_246:\n        /* \"#utility.yul\":9491:9563   */\n      tag_247\n        /* \"#utility.yul\":9559:9561   */\n      0x40\n        /* \"#utility.yul\":9548:9557   */\n      dup4\n        /* \"#utility.yul\":9544:9562   */\n      add\n        /* \"#utility.yul\":9535:9541   */\n      dup5\n        /* \"#utility.yul\":9491:9563   */\n      tag_123\n      jump\t// in\n    tag_247:\n        /* \"#utility.yul\":9128:9570   */\n      swap5\n      swap4\n      pop\n      pop\n      pop\n      pop\n      jump\t// out\n\n    auxdata: 0xa26469706673582212207adaaa4f7501d8d826f7ecd77ad841984f3044b9320f13da50ad971287b9faf864736f6c634300081e0033\n}\n",
				"bytecode": {
					"linkReferences": {},
					"object": "6080604052600a600255348015610014575f5ffd5b506040516110863803806110868339818101604052810190610036919061021c565b335f73ffffffffffffffffffffffffffffffffffffffff168173ffffffffffffffffffffffffffffffffffffffff16036100a7575f6040517f1e4fbdf700000000000000000000000000000000000000000000000000000000815260040161009e9190610256565b60405180910390fd5b6100b6816100fd60201b60201c565b508060015f6101000a81548173ffffffffffffffffffffffffffffffffffffffff021916908373ffffffffffffffffffffffffffffffffffffffff1602179055505061026f565b5f5f5f9054906101000a900473ffffffffffffffffffffffffffffffffffffffff169050815f5f6101000a81548173ffffffffffffffffffffffffffffffffffffffff021916908373ffffffffffffffffffffffffffffffffffffffff1602179055508173ffffffffffffffffffffffffffffffffffffffff168173ffffffffffffffffffffffffffffffffffffffff167f8be0079c531659141344cd1fd0a4f28419497f9722a3daafe3b4186f6b6457e060405160405180910390a35050565b5f5ffd5b5f73ffffffffffffffffffffffffffffffffffffffff82169050919050565b5f6101eb826101c2565b9050919050565b6101fb816101e1565b8114610205575f5ffd5b50565b5f81519050610216816101f2565b92915050565b5f60208284031215610231576102306101be565b5b5f61023e84828501610208565b91505092915050565b610250816101e1565b82525050565b5f6020820190506102695f830184610247565b92915050565b610e0a8061027c5f395ff3fe608060405234801561000f575f5ffd5b50600436106100a7575f3560e01c80638da5cb5b1161006f5780638da5cb5b146101185780639e447fc614610136578063a694fc3a14610152578063e6a69ab81461016e578063f2fde38b1461018c578063fc0c546a146101a8576100a7565b806316934fc4146100ab5780632def6620146100dc5780634e71d92d146100e6578063715018a6146100f05780637b0a47ee146100fa575b5f5ffd5b6100c560048036038101906100c0919061095e565b6101c6565b6040516100d39291906109a1565b60405180910390f35b6100e46101e6565b005b6100ee610396565b005b6100f8610513565b005b610102610526565b60405161010f91906109c8565b60405180910390f35b61012061052c565b60405161012d91906109f0565b60405180910390f35b610150600480360381019061014b9190610a33565b610553565b005b61016c60048036038101906101679190610a33565b610565565b005b610176610700565b60405161018391906109c8565b60405180910390f35b6101a660048036038101906101a1919061095e565b610708565b005b6101b061078c565b6040516101bd9190610ab9565b60405180910390f35b6003602052805f5260405f205f91509050805f0154908060010154905082565b5f60035f3373ffffffffffffffffffffffffffffffffffffffff1673ffffffffffffffffffffffffffffffffffffffff1681526020019081526020015f205f015411610267576040517f08c379a000000000000000000000000000000000000000000000000000000000815260040161025e90610b2c565b60405180910390fd5b61026f610396565b5f60035f3373ffffffffffffffffffffffffffffffffffffffff1673ffffffffffffffffffffffffffffffffffffffff1681526020019081526020015f205f015490505f60035f3373ffffffffffffffffffffffffffffffffffffffff1673ffffffffffffffffffffffffffffffffffffffff1681526020019081526020015f205f018190555060015f9054906101000a900473ffffffffffffffffffffffffffffffffffffffff1673ffffffffffffffffffffffffffffffffffffffff1663a9059cbb33836040518363ffffffff1660e01b8152600401610352929190610b4a565b6020604051808303815f875af115801561036e573d5f5f3e3d5ffd5b505050506040513d601f19601f820116820180604052508101906103929190610ba6565b5050565b5f60035f3373ffffffffffffffffffffffffffffffffffffffff1673ffffffffffffffffffffffffffffffffffffffff1681526020019081526020015f2090505f815f01541161041b576040517f08c379a000000000000000000000000000000000000000000000000000000000815260040161041290610c1b565b60405180910390fd5b5f81600101544261042c9190610c66565b90505f6301e1338060646104409190610c99565b82600254855f01546104529190610c99565b61045c9190610c99565b6104669190610d07565b905042836001018190555060015f9054906101000a900473ffffffffffffffffffffffffffffffffffffffff1673ffffffffffffffffffffffffffffffffffffffff1663a9059cbb33836040518363ffffffff1660e01b81526004016104cd929190610b4a565b6020604051808303815f875af11580156104e9573d5f5f3e3d5ffd5b505050506040513d601f19601f8201168201806040525081019061050d9190610ba6565b50505050565b61051b6107b1565b6105245f610838565b565b60025481565b5f5f5f9054906101000a900473ffffffffffffffffffffffffffffffffffffffff16905090565b61055b6107b1565b8060028190555050565b5f81116105a7576040517f08c379a000000000000000000000000000000000000000000000000000000000815260040161059e90610d81565b60405180910390fd5b5f60035f3373ffffffffffffffffffffffffffffffffffffffff1673ffffffffffffffffffffffffffffffffffffffff1681526020019081526020015f205f015411156105f7576105f6610396565b5b60015f9054906101000a900473ffffffffffffffffffffffffffffffffffffffff1673ffffffffffffffffffffffffffffffffffffffff166323b872dd3330846040518463ffffffff1660e01b815260040161065593929190610d9f565b6020604051808303815f875af1158015610671573d5f5f3e3d5ffd5b505050506040513d601f19601f820116820180604052508101906106959190610ba6565b5060405180604001604052808281526020014281525060035f3373ffffffffffffffffffffffffffffffffffffffff1673ffffffffffffffffffffffffffffffffffffffff1681526020019081526020015f205f820151815f01556020820151816001015590505050565b6301e1338081565b6107106107b1565b5f73ffffffffffffffffffffffffffffffffffffffff168173ffffffffffffffffffffffffffffffffffffffff1603610780575f6040517f1e4fbdf700000000000000000000000000000000000000000000000000000000815260040161077791906109f0565b60405180910390fd5b61078981610838565b50565b60015f9054906101000a900473ffffffffffffffffffffffffffffffffffffffff1681565b6107b96108f9565b73ffffffffffffffffffffffffffffffffffffffff166107d761052c565b73ffffffffffffffffffffffffffffffffffffffff1614610836576107fa6108f9565b6040517f118cdaa700000000000000000000000000000000000000000000000000000000815260040161082d91906109f0565b60405180910390fd5b565b5f5f5f9054906101000a900473ffffffffffffffffffffffffffffffffffffffff169050815f5f6101000a81548173ffffffffffffffffffffffffffffffffffffffff021916908373ffffffffffffffffffffffffffffffffffffffff1602179055508173ffffffffffffffffffffffffffffffffffffffff168173ffffffffffffffffffffffffffffffffffffffff167f8be0079c531659141344cd1fd0a4f28419497f9722a3daafe3b4186f6b6457e060405160405180910390a35050565b5f33905090565b5f5ffd5b5f73ffffffffffffffffffffffffffffffffffffffff82169050919050565b5f61092d82610904565b9050919050565b61093d81610923565b8114610947575f5ffd5b50565b5f8135905061095881610934565b92915050565b5f6020828403121561097357610972610900565b5b5f6109808482850161094a565b91505092915050565b5f819050919050565b61099b81610989565b82525050565b5f6040820190506109b45f830185610992565b6109c16020830184610992565b9392505050565b5f6020820190506109db5f830184610992565b92915050565b6109ea81610923565b82525050565b5f602082019050610a035f8301846109e1565b92915050565b610a1281610989565b8114610a1c575f5ffd5b50565b5f81359050610a2d81610a09565b92915050565b5f60208284031215610a4857610a47610900565b5b5f610a5584828501610a1f565b91505092915050565b5f819050919050565b5f610a81610a7c610a7784610904565b610a5e565b610904565b9050919050565b5f610a9282610a67565b9050919050565b5f610aa382610a88565b9050919050565b610ab381610a99565b82525050565b5f602082019050610acc5f830184610aaa565b92915050565b5f82825260208201905092915050565b7f4e6f7468696e67207374616b65640000000000000000000000000000000000005f82015250565b5f610b16600e83610ad2565b9150610b2182610ae2565b602082019050919050565b5f6020820190508181035f830152610b4381610b0a565b9050919050565b5f604082019050610b5d5f8301856109e1565b610b6a6020830184610992565b9392505050565b5f8115159050919050565b610b8581610b71565b8114610b8f575f5ffd5b50565b5f81519050610ba081610b7c565b92915050565b5f60208284031215610bbb57610bba610900565b5b5f610bc884828501610b92565b91505092915050565b7f4e6f20616374697665207374616b6500000000000000000000000000000000005f82015250565b5f610c05600f83610ad2565b9150610c1082610bd1565b602082019050919050565b5f6020820190508181035f830152610c3281610bf9565b9050919050565b7f4e487b71000000000000000000000000000000000000000000000000000000005f52601160045260245ffd5b5f610c7082610989565b9150610c7b83610989565b9250828203905081811115610c9357610c92610c39565b5b92915050565b5f610ca382610989565b9150610cae83610989565b9250828202610cbc81610989565b91508282048414831517610cd357610cd2610c39565b5b5092915050565b7f4e487b71000000000000000000000000000000000000000000000000000000005f52601260045260245ffd5b5f610d1182610989565b9150610d1c83610989565b925082610d2c57610d2b610cda565b5b828204905092915050565b7f43616e6e6f74207374616b6520300000000000000000000000000000000000005f82015250565b5f610d6b600e83610ad2565b9150610d7682610d37565b602082019050919050565b5f6020820190508181035f830152610d9881610d5f565b9050919050565b5f606082019050610db25f8301866109e1565b610dbf60208301856109e1565b610dcc6040830184610992565b94935050505056fea26469706673582212207adaaa4f7501d8d826f7ecd77ad841984f3044b9320f13da50ad971287b9faf864736f6c634300081e0033",
					"opcodes": "PUSH1 0x80 PUSH1 0x40 MSTORE PUSH1 0xA PUSH1 0x2 SSTORE CALLVALUE DUP1 ISZERO PUSH2 0x14 JUMPI PUSH0 PUSH0 REVERT JUMPDEST POP PUSH1 0x40 MLOAD PUSH2 0x1086 CODESIZE SUB DUP1 PUSH2 0x1086 DUP4 CODECOPY DUP2 DUP2 ADD PUSH1 0x40 MSTORE DUP2 ADD SWAP1 PUSH2 0x36 SWAP2 SWAP1 PUSH2 0x21C JUMP JUMPDEST CALLER PUSH0 PUSH20 0xFFFFFFFFFFFFFFFFFFFFFFFFFFFFFFFFFFFFFFFF AND DUP2 PUSH20 0xFFFFFFFFFFFFFFFFFFFFFFFFFFFFFFFFFFFFFFFF AND SUB PUSH2 0xA7 JUMPI PUSH0 PUSH1 0x40 MLOAD PUSH32 0x1E4FBDF700000000000000000000000000000000000000000000000000000000 DUP2 MSTORE PUSH1 0x4 ADD PUSH2 0x9E SWAP2 SWAP1 PUSH2 0x256 JUMP JUMPDEST PUSH1 0x40 MLOAD DUP1 SWAP2 SUB SWAP1 REVERT JUMPDEST PUSH2 0xB6 DUP2 PUSH2 0xFD PUSH1 0x20 SHL PUSH1 0x20 SHR JUMP JUMPDEST POP DUP1 PUSH1 0x1 PUSH0 PUSH2 0x100 EXP DUP2 SLOAD DUP2 PUSH20 0xFFFFFFFFFFFFFFFFFFFFFFFFFFFFFFFFFFFFFFFF MUL NOT AND SWAP1 DUP4 PUSH20 0xFFFFFFFFFFFFFFFFFFFFFFFFFFFFFFFFFFFFFFFF AND MUL OR SWAP1 SSTORE POP POP PUSH2 0x26F JUMP JUMPDEST PUSH0 PUSH0 PUSH0 SWAP1 SLOAD SWAP1 PUSH2 0x100 EXP SWAP1 DIV PUSH20 0xFFFFFFFFFFFFFFFFFFFFFFFFFFFFFFFFFFFFFFFF AND SWAP1 POP DUP2 PUSH0 PUSH0 PUSH2 0x100 EXP DUP2 SLOAD DUP2 PUSH20 0xFFFFFFFFFFFFFFFFFFFFFFFFFFFFFFFFFFFFFFFF MUL NOT AND SWAP1 DUP4 PUSH20 0xFFFFFFFFFFFFFFFFFFFFFFFFFFFFFFFFFFFFFFFF AND MUL OR SWAP1 SSTORE POP DUP2 PUSH20 0xFFFFFFFFFFFFFFFFFFFFFFFFFFFFFFFFFFFFFFFF AND DUP2 PUSH20 0xFFFFFFFFFFFFFFFFFFFFFFFFFFFFFFFFFFFFFFFF AND PUSH32 0x8BE0079C531659141344CD1FD0A4F28419497F9722A3DAAFE3B4186F6B6457E0 PUSH1 0x40 MLOAD PUSH1 0x40 MLOAD DUP1 SWAP2 SUB SWAP1 LOG3 POP POP JUMP JUMPDEST PUSH0 PUSH0 REVERT JUMPDEST PUSH0 PUSH20 0xFFFFFFFFFFFFFFFFFFFFFFFFFFFFFFFFFFFFFFFF DUP3 AND SWAP1 POP SWAP2 SWAP1 POP JUMP JUMPDEST PUSH0 PUSH2 0x1EB DUP3 PUSH2 0x1C2 JUMP JUMPDEST SWAP1 POP SWAP2 SWAP1 POP JUMP JUMPDEST PUSH2 0x1FB DUP2 PUSH2 0x1E1 JUMP JUMPDEST DUP2 EQ PUSH2 0x205 JUMPI PUSH0 PUSH0 REVERT JUMPDEST POP JUMP JUMPDEST PUSH0 DUP2 MLOAD SWAP1 POP PUSH2 0x216 DUP2 PUSH2 0x1F2 JUMP JUMPDEST SWAP3 SWAP2 POP POP JUMP JUMPDEST PUSH0 PUSH1 0x20 DUP3 DUP5 SUB SLT ISZERO PUSH2 0x231 JUMPI PUSH2 0x230 PUSH2 0x1BE JUMP JUMPDEST JUMPDEST PUSH0 PUSH2 0x23E DUP5 DUP3 DUP6 ADD PUSH2 0x208 JUMP JUMPDEST SWAP2 POP POP SWAP3 SWAP2 POP POP JUMP JUMPDEST PUSH2 0x250 DUP2 PUSH2 0x1E1 JUMP JUMPDEST DUP3 MSTORE POP POP JUMP JUMPDEST PUSH0 PUSH1 0x20 DUP3 ADD SWAP1 POP PUSH2 0x269 PUSH0 DUP4 ADD DUP5 PUSH2 0x247 JUMP JUMPDEST SWAP3 SWAP2 POP POP JUMP JUMPDEST PUSH2 0xE0A DUP1 PUSH2 0x27C PUSH0 CODECOPY PUSH0 RETURN INVALID PUSH1 0x80 PUSH1 0x40 MSTORE CALLVALUE DUP1 ISZERO PUSH2 0xF JUMPI PUSH0 PUSH0 REVERT JUMPDEST POP PUSH1 0x4 CALLDATASIZE LT PUSH2 0xA7 JUMPI PUSH0 CALLDATALOAD PUSH1 0xE0 SHR DUP1 PUSH4 0x8DA5CB5B GT PUSH2 0x6F JUMPI DUP1 PUSH4 0x8DA5CB5B EQ PUSH2 0x118 JUMPI DUP1 PUSH4 0x9E447FC6 EQ PUSH2 0x136 JUMPI DUP1 PUSH4 0xA694FC3A EQ PUSH2 0x152 JUMPI DUP1 PUSH4 0xE6A69AB8 EQ PUSH2 0x16E JUMPI DUP1 PUSH4 0xF2FDE38B EQ PUSH2 0x18C JUMPI DUP1 PUSH4 0xFC0C546A EQ PUSH2 0x1A8 JUMPI PUSH2 0xA7 JUMP JUMPDEST DUP1 PUSH4 0x16934FC4 EQ PUSH2 0xAB JUMPI DUP1 PUSH4 0x2DEF6620 EQ PUSH2 0xDC JUMPI DUP1 PUSH4 0x4E71D92D EQ PUSH2 0xE6 JUMPI DUP1 PUSH4 0x715018A6 EQ PUSH2 0xF0 JUMPI DUP1 PUSH4 0x7B0A47EE EQ PUSH2 0xFA JUMPI JUMPDEST PUSH0 PUSH0 REVERT JUMPDEST PUSH2 0xC5 PUSH1 0x4 DUP1 CALLDATASIZE SUB DUP2 ADD SWAP1 PUSH2 0xC0 SWAP2 SWAP1 PUSH2 0x95E JUMP JUMPDEST PUSH2 0x1C6 JUMP JUMPDEST PUSH1 0x40 MLOAD PUSH2 0xD3 SWAP3 SWAP2 SWAP1 PUSH2 0x9A1 JUMP JUMPDEST PUSH1 0x40 MLOAD DUP1 SWAP2 SUB SWAP1 RETURN JUMPDEST PUSH2 0xE4 PUSH2 0x1E6 JUMP JUMPDEST STOP JUMPDEST PUSH2 0xEE PUSH2 0x396 JUMP JUMPDEST STOP JUMPDEST PUSH2 0xF8 PUSH2 0x513 JUMP JUMPDEST STOP JUMPDEST PUSH2 0x102 PUSH2 0x526 JUMP JUMPDEST PUSH1 0x40 MLOAD PUSH2 0x10F SWAP2 SWAP1 PUSH2 0x9C8 JUMP JUMPDEST PUSH1 0x40 MLOAD DUP1 SWAP2 SUB SWAP1 RETURN JUMPDEST PUSH2 0x120 PUSH2 0x52C JUMP JUMPDEST PUSH1 0x40 MLOAD PUSH2 0x12D SWAP2 SWAP1 PUSH2 0x9F0 JUMP JUMPDEST PUSH1 0x40 MLOAD DUP1 SWAP2 SUB SWAP1 RETURN JUMPDEST PUSH2 0x150 PUSH1 0x4 DUP1 CALLDATASIZE SUB DUP2 ADD SWAP1 PUSH2 0x14B SWAP2 SWAP1 PUSH2 0xA33 JUMP JUMPDEST PUSH2 0x553 JUMP JUMPDEST STOP JUMPDEST PUSH2 0x16C PUSH1 0x4 DUP1 CALLDATASIZE SUB DUP2 ADD SWAP1 PUSH2 0x167 SWAP2 SWAP1 PUSH2 0xA33 JUMP JUMPDEST PUSH2 0x565 JUMP JUMPDEST STOP JUMPDEST PUSH2 0x176 PUSH2 0x700 JUMP JUMPDEST PUSH1 0x40 MLOAD PUSH2 0x183 SWAP2 SWAP1 PUSH2 0x9C8 JUMP JUMPDEST PUSH1 0x40 MLOAD DUP1 SWAP2 SUB SWAP1 RETURN JUMPDEST PUSH2 0x1A6 PUSH1 0x4 DUP1 CALLDATASIZE SUB DUP2 ADD SWAP1 PUSH2 0x1A1 SWAP2 SWAP1 PUSH2 0x95E JUMP JUMPDEST PUSH2 0x708 JUMP JUMPDEST STOP JUMPDEST PUSH2 0x1B0 PUSH2 0x78C JUMP JUMPDEST PUSH1 0x40 MLOAD PUSH2 0x1BD SWAP2 SWAP1 PUSH2 0xAB9 JUMP JUMPDEST PUSH1 0x40 MLOAD DUP1 SWAP2 SUB SWAP1 RETURN JUMPDEST PUSH1 0x3 PUSH1 0x20 MSTORE DUP1 PUSH0 MSTORE PUSH1 0x40 PUSH0 KECCAK256 PUSH0 SWAP2 POP SWAP1 POP DUP1 PUSH0 ADD SLOAD SWAP1 DUP1 PUSH1 0x1 ADD SLOAD SWAP1 POP DUP3 JUMP JUMPDEST PUSH0 PUSH1 0x3 PUSH0 CALLER PUSH20 0xFFFFFFFFFFFFFFFFFFFFFFFFFFFFFFFFFFFFFFFF AND PUSH20 0xFFFFFFFFFFFFFFFFFFFFFFFFFFFFFFFFFFFFFFFF AND DUP2 MSTORE PUSH1 0x20 ADD SWAP1 DUP2 MSTORE PUSH1 0x20 ADD PUSH0 KECCAK256 PUSH0 ADD SLOAD GT PUSH2 0x267 JUMPI PUSH1 0x40 MLOAD PUSH32 0x8C379A000000000000000000000000000000000000000000000000000000000 DUP2 MSTORE PUSH1 0x4 ADD PUSH2 0x25E SWAP1 PUSH2 0xB2C JUMP JUMPDEST PUSH1 0x40 MLOAD DUP1 SWAP2 SUB SWAP1 REVERT JUMPDEST PUSH2 0x26F PUSH2 0x396 JUMP JUMPDEST PUSH0 PUSH1 0x3 PUSH0 CALLER PUSH20 0xFFFFFFFFFFFFFFFFFFFFFFFFFFFFFFFFFFFFFFFF AND PUSH20 0xFFFFFFFFFFFFFFFFFFFFFFFFFFFFFFFFFFFFFFFF AND DUP2 MSTORE PUSH1 0x20 ADD SWAP1 DUP2 MSTORE PUSH1 0x20 ADD PUSH0 KECCAK256 PUSH0 ADD SLOAD SWAP1 POP PUSH0 PUSH1 0x3 PUSH0 CALLER PUSH20 0xFFFFFFFFFFFFFFFFFFFFFFFFFFFFFFFFFFFFFFFF AND PUSH20 0xFFFFFFFFFFFFFFFFFFFFFFFFFFFFFFFFFFFFFFFF AND DUP2 MSTORE PUSH1 0x20 ADD SWAP1 DUP2 MSTORE PUSH1 0x20 ADD PUSH0 KECCAK256 PUSH0 ADD DUP2 SWAP1 SSTORE POP PUSH1 0x1 PUSH0 SWAP1 SLOAD SWAP1 PUSH2 0x100 EXP SWAP1 DIV PUSH20 0xFFFFFFFFFFFFFFFFFFFFFFFFFFFFFFFFFFFFFFFF AND PUSH20 0xFFFFFFFFFFFFFFFFFFFFFFFFFFFFFFFFFFFFFFFF AND PUSH4 0xA9059CBB CALLER DUP4 PUSH1 0x40 MLOAD DUP4 PUSH4 0xFFFFFFFF AND PUSH1 0xE0 SHL DUP2 MSTORE PUSH1 0x4 ADD PUSH2 0x352 SWAP3 SWAP2 SWAP1 PUSH2 0xB4A JUMP JUMPDEST PUSH1 0x20 PUSH1 0x40 MLOAD DUP1 DUP4 SUB DUP2 PUSH0 DUP8 GAS CALL ISZERO DUP1 ISZERO PUSH2 0x36E JUMPI RETURNDATASIZE PUSH0 PUSH0 RETURNDATACOPY RETURNDATASIZE PUSH0 REVERT JUMPDEST POP POP POP POP PUSH1 0x40 MLOAD RETURNDATASIZE PUSH1 0x1F NOT PUSH1 0x1F DUP3 ADD AND DUP3 ADD DUP1 PUSH1 0x40 MSTORE POP DUP2 ADD SWAP1 PUSH2 0x392 SWAP2 SWAP1 PUSH2 0xBA6 JUMP JUMPDEST POP POP JUMP JUMPDEST PUSH0 PUSH1 0x3 PUSH0 CALLER PUSH20 0xFFFFFFFFFFFFFFFFFFFFFFFFFFFFFFFFFFFFFFFF AND PUSH20 0xFFFFFFFFFFFFFFFFFFFFFFFFFFFFFFFFFFFFFFFF AND DUP2 MSTORE PUSH1 0x20 ADD SWAP1 DUP2 MSTORE PUSH1 0x20 ADD PUSH0 KECCAK256 SWAP1 POP PUSH0 DUP2 PUSH0 ADD SLOAD GT PUSH2 0x41B JUMPI PUSH1 0x40 MLOAD PUSH32 0x8C379A000000000000000000000000000000000000000000000000000000000 DUP2 MSTORE PUSH1 0x4 ADD PUSH2 0x412 SWAP1 PUSH2 0xC1B JUMP JUMPDEST PUSH1 0x40 MLOAD DUP1 SWAP2 SUB SWAP1 REVERT JUMPDEST PUSH0 DUP2 PUSH1 0x1 ADD SLOAD TIMESTAMP PUSH2 0x42C SWAP2 SWAP1 PUSH2 0xC66 JUMP JUMPDEST SWAP1 POP PUSH0 PUSH4 0x1E13380 PUSH1 0x64 PUSH2 0x440 SWAP2 SWAP1 PUSH2 0xC99 JUMP JUMPDEST DUP3 PUSH1 0x2 SLOAD DUP6 PUSH0 ADD SLOAD PUSH2 0x452 SWAP2 SWAP1 PUSH2 0xC99 JUMP JUMPDEST PUSH2 0x45C SWAP2 SWAP1 PUSH2 0xC99 JUMP JUMPDEST PUSH2 0x466 SWAP2 SWAP1 PUSH2 0xD07 JUMP JUMPDEST SWAP1 POP TIMESTAMP DUP4 PUSH1 0x1 ADD DUP2 SWAP1 SSTORE POP PUSH1 0x1 PUSH0 SWAP1 SLOAD SWAP1 PUSH2 0x100 EXP SWAP1 DIV PUSH20 0xFFFFFFFFFFFFFFFFFFFFFFFFFFFFFFFFFFFFFFFF AND PUSH20 0xFFFFFFFFFFFFFFFFFFFFFFFFFFFFFFFFFFFFFFFF AND PUSH4 0xA9059CBB CALLER DUP4 PUSH1 0x40 MLOAD DUP4 PUSH4 0xFFFFFFFF AND PUSH1 0xE0 SHL DUP2 MSTORE PUSH1 0x4 ADD PUSH2 0x4CD SWAP3 SWAP2 SWAP1 PUSH2 0xB4A JUMP JUMPDEST PUSH1 0x20 PUSH1 0x40 MLOAD DUP1 DUP4 SUB DUP2 PUSH0 DUP8 GAS CALL ISZERO DUP1 ISZERO PUSH2 0x4E9 JUMPI RETURNDATASIZE PUSH0 PUSH0 RETURNDATACOPY RETURNDATASIZE PUSH0 REVERT JUMPDEST POP POP POP POP PUSH1 0x40 MLOAD RETURNDATASIZE PUSH1 0x1F NOT PUSH1 0x1F DUP3 ADD AND DUP3 ADD DUP1 PUSH1 0x40 MSTORE POP DUP2 ADD SWAP1 PUSH2 0x50D SWAP2 SWAP1 PUSH2 0xBA6 JUMP JUMPDEST POP POP POP POP JUMP JUMPDEST PUSH2 0x51B PUSH2 0x7B1 JUMP JUMPDEST PUSH2 0x524 PUSH0 PUSH2 0x838 JUMP JUMPDEST JUMP JUMPDEST PUSH1 0x2 SLOAD DUP2 JUMP JUMPDEST PUSH0 PUSH0 PUSH0 SWAP1 SLOAD SWAP1 PUSH2 0x100 EXP SWAP1 DIV PUSH20 0xFFFFFFFFFFFFFFFFFFFFFFFFFFFFFFFFFFFFFFFF AND SWAP1 POP SWAP1 JUMP JUMPDEST PUSH2 0x55B PUSH2 0x7B1 JUMP JUMPDEST DUP1 PUSH1 0x2 DUP2 SWAP1 SSTORE POP POP JUMP JUMPDEST PUSH0 DUP2 GT PUSH2 0x5A7 JUMPI PUSH1 0x40 MLOAD PUSH32 0x8C379A000000000000000000000000000000000000000000000000000000000 DUP2 MSTORE PUSH1 0x4 ADD PUSH2 0x59E SWAP1 PUSH2 0xD81 JUMP JUMPDEST PUSH1 0x40 MLOAD DUP1 SWAP2 SUB SWAP1 REVERT JUMPDEST PUSH0 PUSH1 0x3 PUSH0 CALLER PUSH20 0xFFFFFFFFFFFFFFFFFFFFFFFFFFFFFFFFFFFFFFFF AND PUSH20 0xFFFFFFFFFFFFFFFFFFFFFFFFFFFFFFFFFFFFFFFF AND DUP2 MSTORE PUSH1 0x20 ADD SWAP1 DUP2 MSTORE PUSH1 0x20 ADD PUSH0 KECCAK256 PUSH0 ADD SLOAD GT ISZERO PUSH2 0x5F7 JUMPI PUSH2 0x5F6 PUSH2 0x396 JUMP JUMPDEST JUMPDEST PUSH1 0x1 PUSH0 SWAP1 SLOAD SWAP1 PUSH2 0x100 EXP SWAP1 DIV PUSH20 0xFFFFFFFFFFFFFFFFFFFFFFFFFFFFFFFFFFFFFFFF AND PUSH20 0xFFFFFFFFFFFFFFFFFFFFFFFFFFFFFFFFFFFFFFFF AND PUSH4 0x23B872DD CALLER ADDRESS DUP5 PUSH1 0x40 MLOAD DUP5 PUSH4 0xFFFFFFFF AND PUSH1 0xE0 SHL DUP2 MSTORE PUSH1 0x4 ADD PUSH2 0x655 SWAP4 SWAP3 SWAP2 SWAP1 PUSH2 0xD9F JUMP JUMPDEST PUSH1 0x20 PUSH1 0x40 MLOAD DUP1 DUP4 SUB DUP2 PUSH0 DUP8 GAS CALL ISZERO DUP1 ISZERO PUSH2 0x671 JUMPI RETURNDATASIZE PUSH0 PUSH0 RETURNDATACOPY RETURNDATASIZE PUSH0 REVERT JUMPDEST POP POP POP POP PUSH1 0x40 MLOAD RETURNDATASIZE PUSH1 0x1F NOT PUSH1 0x1F DUP3 ADD AND DUP3 ADD DUP1 PUSH1 0x40 MSTORE POP DUP2 ADD SWAP1 PUSH2 0x695 SWAP2 SWAP1 PUSH2 0xBA6 JUMP JUMPDEST POP PUSH1 0x40 MLOAD DUP1 PUSH1 0x40 ADD PUSH1 0x40 MSTORE DUP1 DUP3 DUP2 MSTORE PUSH1 0x20 ADD TIMESTAMP DUP2 MSTORE POP PUSH1 0x3 PUSH0 CALLER PUSH20 0xFFFFFFFFFFFFFFFFFFFFFFFFFFFFFFFFFFFFFFFF AND PUSH20 0xFFFFFFFFFFFFFFFFFFFFFFFFFFFFFFFFFFFFFFFF AND DUP2 MSTORE PUSH1 0x20 ADD SWAP1 DUP2 MSTORE PUSH1 0x20 ADD PUSH0 KECCAK256 PUSH0 DUP3 ADD MLOAD DUP2 PUSH0 ADD SSTORE PUSH1 0x20 DUP3 ADD MLOAD DUP2 PUSH1 0x1 ADD SSTORE SWAP1 POP POP POP JUMP JUMPDEST PUSH4 0x1E13380 DUP2 JUMP JUMPDEST PUSH2 0x710 PUSH2 0x7B1 JUMP JUMPDEST PUSH0 PUSH20 0xFFFFFFFFFFFFFFFFFFFFFFFFFFFFFFFFFFFFFFFF AND DUP2 PUSH20 0xFFFFFFFFFFFFFFFFFFFFFFFFFFFFFFFFFFFFFFFF AND SUB PUSH2 0x780 JUMPI PUSH0 PUSH1 0x40 MLOAD PUSH32 0x1E4FBDF700000000000000000000000000000000000000000000000000000000 DUP2 MSTORE PUSH1 0x4 ADD PUSH2 0x777 SWAP2 SWAP1 PUSH2 0x9F0 JUMP JUMPDEST PUSH1 0x40 MLOAD DUP1 SWAP2 SUB SWAP1 REVERT JUMPDEST PUSH2 0x789 DUP2 PUSH2 0x838 JUMP JUMPDEST POP JUMP JUMPDEST PUSH1 0x1 PUSH0 SWAP1 SLOAD SWAP1 PUSH2 0x100 EXP SWAP1 DIV PUSH20 0xFFFFFFFFFFFFFFFFFFFFFFFFFFFFFFFFFFFFFFFF AND DUP2 JUMP JUMPDEST PUSH2 0x7B9 PUSH2 0x8F9 JUMP JUMPDEST PUSH20 0xFFFFFFFFFFFFFFFFFFFFFFFFFFFFFFFFFFFFFFFF AND PUSH2 0x7D7 PUSH2 0x52C JUMP JUMPDEST PUSH20 0xFFFFFFFFFFFFFFFFFFFFFFFFFFFFFFFFFFFFFFFF AND EQ PUSH2 0x836 JUMPI PUSH2 0x7FA PUSH2 0x8F9 JUMP JUMPDEST PUSH1 0x40 MLOAD PUSH32 0x118CDAA700000000000000000000000000000000000000000000000000000000 DUP2 MSTORE PUSH1 0x4 ADD PUSH2 0x82D SWAP2 SWAP1 PUSH2 0x9F0 JUMP JUMPDEST PUSH1 0x40 MLOAD DUP1 SWAP2 SUB SWAP1 REVERT JUMPDEST JUMP JUMPDEST PUSH0 PUSH0 PUSH0 SWAP1 SLOAD SWAP1 PUSH2 0x100 EXP SWAP1 DIV PUSH20 0xFFFFFFFFFFFFFFFFFFFFFFFFFFFFFFFFFFFFFFFF AND SWAP1 POP DUP2 PUSH0 PUSH0 PUSH2 0x100 EXP DUP2 SLOAD DUP2 PUSH20 0xFFFFFFFFFFFFFFFFFFFFFFFFFFFFFFFFFFFFFFFF MUL NOT AND SWAP1 DUP4 PUSH20 0xFFFFFFFFFFFFFFFFFFFFFFFFFFFFFFFFFFFFFFFF AND MUL OR SWAP1 SSTORE POP DUP2 PUSH20 0xFFFFFFFFFFFFFFFFFFFFFFFFFFFFFFFFFFFFFFFF AND DUP2 PUSH20 0xFFFFFFFFFFFFFFFFFFFFFFFFFFFFFFFFFFFFFFFF AND PUSH32 0x8BE0079C531659141344CD1FD0A4F28419497F9722A3DAAFE3B4186F6B6457E0 PUSH1 0x40 MLOAD PUSH1 0x40 MLOAD DUP1 SWAP2 SUB SWAP1 LOG3 POP POP JUMP JUMPDEST PUSH0 CALLER SWAP1 POP SWAP1 JUMP JUMPDEST PUSH0 PUSH0 REVERT JUMPDEST PUSH0 PUSH20 0xFFFFFFFFFFFFFFFFFFFFFFFFFFFFFFFFFFFFFFFF DUP3 AND SWAP1 POP SWAP2 SWAP1 POP JUMP JUMPDEST PUSH0 PUSH2 0x92D DUP3 PUSH2 0x904 JUMP JUMPDEST SWAP1 POP SWAP2 SWAP1 POP JUMP JUMPDEST PUSH2 0x93D DUP2 PUSH2 0x923 JUMP JUMPDEST DUP2 EQ PUSH2 0x947 JUMPI PUSH0 PUSH0 REVERT JUMPDEST POP JUMP JUMPDEST PUSH0 DUP2 CALLDATALOAD SWAP1 POP PUSH2 0x958 DUP2 PUSH2 0x934 JUMP JUMPDEST SWAP3 SWAP2 POP POP JUMP JUMPDEST PUSH0 PUSH1 0x20 DUP3 DUP5 SUB SLT ISZERO PUSH2 0x973 JUMPI PUSH2 0x972 PUSH2 0x900 JUMP JUMPDEST JUMPDEST PUSH0 PUSH2 0x980 DUP5 DUP3 DUP6 ADD PUSH2 0x94A JUMP JUMPDEST SWAP2 POP POP SWAP3 SWAP2 POP POP JUMP JUMPDEST PUSH0 DUP2 SWAP1 POP SWAP2 SWAP1 POP JUMP JUMPDEST PUSH2 0x99B DUP2 PUSH2 0x989 JUMP JUMPDEST DUP3 MSTORE POP POP JUMP JUMPDEST PUSH0 PUSH1 0x40 DUP3 ADD SWAP1 POP PUSH2 0x9B4 PUSH0 DUP4 ADD DUP6 PUSH2 0x992 JUMP JUMPDEST PUSH2 0x9C1 PUSH1 0x20 DUP4 ADD DUP5 PUSH2 0x992 JUMP JUMPDEST SWAP4 SWAP3 POP POP POP JUMP JUMPDEST PUSH0 PUSH1 0x20 DUP3 ADD SWAP1 POP PUSH2 0x9DB PUSH0 DUP4 ADD DUP5 PUSH2 0x992 JUMP JUMPDEST SWAP3 SWAP2 POP POP JUMP JUMPDEST PUSH2 0x9EA DUP2 PUSH2 0x923 JUMP JUMPDEST DUP3 MSTORE POP POP JUMP JUMPDEST PUSH0 PUSH1 0x20 DUP3 ADD SWAP1 POP PUSH2 0xA03 PUSH0 DUP4 ADD DUP5 PUSH2 0x9E1 JUMP JUMPDEST SWAP3 SWAP2 POP POP JUMP JUMPDEST PUSH2 0xA12 DUP2 PUSH2 0x989 JUMP JUMPDEST DUP2 EQ PUSH2 0xA1C JUMPI PUSH0 PUSH0 REVERT JUMPDEST POP JUMP JUMPDEST PUSH0 DUP2 CALLDATALOAD SWAP1 POP PUSH2 0xA2D DUP2 PUSH2 0xA09 JUMP JUMPDEST SWAP3 SWAP2 POP POP JUMP JUMPDEST PUSH0 PUSH1 0x20 DUP3 DUP5 SUB SLT ISZERO PUSH2 0xA48 JUMPI PUSH2 0xA47 PUSH2 0x900 JUMP JUMPDEST JUMPDEST PUSH0 PUSH2 0xA55 DUP5 DUP3 DUP6 ADD PUSH2 0xA1F JUMP JUMPDEST SWAP2 POP POP SWAP3 SWAP2 POP POP JUMP JUMPDEST PUSH0 DUP2 SWAP1 POP SWAP2 SWAP1 POP JUMP JUMPDEST PUSH0 PUSH2 0xA81 PUSH2 0xA7C PUSH2 0xA77 DUP5 PUSH2 0x904 JUMP JUMPDEST PUSH2 0xA5E JUMP JUMPDEST PUSH2 0x904 JUMP JUMPDEST SWAP1 POP SWAP2 SWAP1 POP JUMP JUMPDEST PUSH0 PUSH2 0xA92 DUP3 PUSH2 0xA67 JUMP JUMPDEST SWAP1 POP SWAP2 SWAP1 POP JUMP JUMPDEST PUSH0 PUSH2 0xAA3 DUP3 PUSH2 0xA88 JUMP JUMPDEST SWAP1 POP SWAP2 SWAP1 POP JUMP JUMPDEST PUSH2 0xAB3 DUP2 PUSH2 0xA99 JUMP JUMPDEST DUP3 MSTORE POP POP JUMP JUMPDEST PUSH0 PUSH1 0x20 DUP3 ADD SWAP1 POP PUSH2 0xACC PUSH0 DUP4 ADD DUP5 PUSH2 0xAAA JUMP JUMPDEST SWAP3 SWAP2 POP POP JUMP JUMPDEST PUSH0 DUP3 DUP3 MSTORE PUSH1 0x20 DUP3 ADD SWAP1 POP SWAP3 SWAP2 POP POP JUMP JUMPDEST PUSH32 0x4E6F7468696E67207374616B6564000000000000000000000000000000000000 PUSH0 DUP3 ADD MSTORE POP JUMP JUMPDEST PUSH0 PUSH2 0xB16 PUSH1 0xE DUP4 PUSH2 0xAD2 JUMP JUMPDEST SWAP2 POP PUSH2 0xB21 DUP3 PUSH2 0xAE2 JUMP JUMPDEST PUSH1 0x20 DUP3 ADD SWAP1 POP SWAP2 SWAP1 POP JUMP JUMPDEST PUSH0 PUSH1 0x20 DUP3 ADD SWAP1 POP DUP2 DUP2 SUB PUSH0 DUP4 ADD MSTORE PUSH2 0xB43 DUP2 PUSH2 0xB0A JUMP JUMPDEST SWAP1 POP SWAP2 SWAP1 POP JUMP JUMPDEST PUSH0 PUSH1 0x40 DUP3 ADD SWAP1 POP PUSH2 0xB5D PUSH0 DUP4 ADD DUP6 PUSH2 0x9E1 JUMP JUMPDEST PUSH2 0xB6A PUSH1 0x20 DUP4 ADD DUP5 PUSH2 0x992 JUMP JUMPDEST SWAP4 SWAP3 POP POP POP JUMP JUMPDEST PUSH0 DUP2 ISZERO ISZERO SWAP1 POP SWAP2 SWAP1 POP JUMP JUMPDEST PUSH2 0xB85 DUP2 PUSH2 0xB71 JUMP JUMPDEST DUP2 EQ PUSH2 0xB8F JUMPI PUSH0 PUSH0 REVERT JUMPDEST POP JUMP JUMPDEST PUSH0 DUP2 MLOAD SWAP1 POP PUSH2 0xBA0 DUP2 PUSH2 0xB7C JUMP JUMPDEST SWAP3 SWAP2 POP POP JUMP JUMPDEST PUSH0 PUSH1 0x20 DUP3 DUP5 SUB SLT ISZERO PUSH2 0xBBB JUMPI PUSH2 0xBBA PUSH2 0x900 JUMP JUMPDEST JUMPDEST PUSH0 PUSH2 0xBC8 DUP5 DUP3 DUP6 ADD PUSH2 0xB92 JUMP JUMPDEST SWAP2 POP POP SWAP3 SWAP2 POP POP JUMP JUMPDEST PUSH32 0x4E6F20616374697665207374616B650000000000000000000000000000000000 PUSH0 DUP3 ADD MSTORE POP JUMP JUMPDEST PUSH0 PUSH2 0xC05 PUSH1 0xF DUP4 PUSH2 0xAD2 JUMP JUMPDEST SWAP2 POP PUSH2 0xC10 DUP3 PUSH2 0xBD1 JUMP JUMPDEST PUSH1 0x20 DUP3 ADD SWAP1 POP SWAP2 SWAP1 POP JUMP JUMPDEST PUSH0 PUSH1 0x20 DUP3 ADD SWAP1 POP DUP2 DUP2 SUB PUSH0 DUP4 ADD MSTORE PUSH2 0xC32 DUP2 PUSH2 0xBF9 JUMP JUMPDEST SWAP1 POP SWAP2 SWAP1 POP JUMP JUMPDEST PUSH32 0x4E487B7100000000000000000000000000000000000000000000000000000000 PUSH0 MSTORE PUSH1 0x11 PUSH1 0x4 MSTORE PUSH1 0x24 PUSH0 REVERT JUMPDEST PUSH0 PUSH2 0xC70 DUP3 PUSH2 0x989 JUMP JUMPDEST SWAP2 POP PUSH2 0xC7B DUP4 PUSH2 0x989 JUMP JUMPDEST SWAP3 POP DUP3 DUP3 SUB SWAP1 POP DUP2 DUP2 GT ISZERO PUSH2 0xC93 JUMPI PUSH2 0xC92 PUSH2 0xC39 JUMP JUMPDEST JUMPDEST SWAP3 SWAP2 POP POP JUMP JUMPDEST PUSH0 PUSH2 0xCA3 DUP3 PUSH2 0x989 JUMP JUMPDEST SWAP2 POP PUSH2 0xCAE DUP4 PUSH2 0x989 JUMP JUMPDEST SWAP3 POP DUP3 DUP3 MUL PUSH2 0xCBC DUP2 PUSH2 0x989 JUMP JUMPDEST SWAP2 POP DUP3 DUP3 DIV DUP5 EQ DUP4 ISZERO OR PUSH2 0xCD3 JUMPI PUSH2 0xCD2 PUSH2 0xC39 JUMP JUMPDEST JUMPDEST POP SWAP3 SWAP2 POP POP JUMP JUMPDEST PUSH32 0x4E487B7100000000000000000000000000000000000000000000000000000000 PUSH0 MSTORE PUSH1 0x12 PUSH1 0x4 MSTORE PUSH1 0x24 PUSH0 REVERT JUMPDEST PUSH0 PUSH2 0xD11 DUP3 PUSH2 0x989 JUMP JUMPDEST SWAP2 POP PUSH2 0xD1C DUP4 PUSH2 0x989 JUMP JUMPDEST SWAP3 POP DUP3 PUSH2 0xD2C JUMPI PUSH2 0xD2B PUSH2 0xCDA JUMP JUMPDEST JUMPDEST DUP3 DUP3 DIV SWAP1 POP SWAP3 SWAP2 POP POP JUMP JUMPDEST PUSH32 0x43616E6E6F74207374616B652030000000000000000000000000000000000000 PUSH0 DUP3 ADD MSTORE POP JUMP JUMPDEST PUSH0 PUSH2 0xD6B PUSH1 0xE DUP4 PUSH2 0xAD2 JUMP JUMPDEST SWAP2 POP PUSH2 0xD76 DUP3 PUSH2 0xD37 JUMP JUMPDEST PUSH1 0x20 DUP3 ADD SWAP1 POP SWAP2 SWAP1 POP JUMP JUMPDEST PUSH0 PUSH1 0x20 DUP3 ADD SWAP1 POP DUP2 DUP2 SUB PUSH0 DUP4 ADD MSTORE PUSH2 0xD98 DUP2 PUSH2 0xD5F JUMP JUMPDEST SWAP1 POP SWAP2 SWAP1 POP JUMP JUMPDEST PUSH0 PUSH1 0x60 DUP3 ADD SWAP1 POP PUSH2 0xDB2 PUSH0 DUP4 ADD DUP7 PUSH2 0x9E1 JUMP JUMPDEST PUSH2 0xDBF PUSH1 0x20 DUP4 ADD DUP6 PUSH2 0x9E1 JUMP JUMPDEST PUSH2 0xDCC PUSH1 0x40 DUP4 ADD DUP5 PUSH2 0x992 JUMP JUMPDEST SWAP5 SWAP4 POP POP POP POP JUMP INVALID LOG2 PUSH5 0x6970667358 0x22 SLT KECCAK256 PUSH27 0xDAAA4F7501D8D826F7ECD77AD841984F3044B9320F13DA50AD9712 DUP8 0xB9 STATICCALL EXTCALL PUSH5 0x736F6C6343 STOP ADDMOD 0x1E STOP CALLER "
				},
				"gasEstimates": {
					"creation": {
						"codeDepositCost": "718800",
						"executionCost": "infinite",
						"totalCost": "infinite"
					},
					"external": {
						"SECONDS_PER_YEAR()": "391",
						"claim()": "infinite",
						"owner()": "2514",
						"renounceOwnership()": "infinite",
						"rewardRate()": "2514",
						"setRewardRate(uint256)": "infinite",
						"stake(uint256)": "infinite",
						"stakes(address)": "infinite",
						"token()": "infinite",
						"transferOwnership(address)": "infinite",
						"unstake()": "infinite"
					}
				},
				"methodIdentifiers": {
					"SECONDS_PER_YEAR()": "e6a69ab8",
					"claim()": "4e71d92d",
					"owner()": "8da5cb5b",
					"renounceOwnership()": "715018a6",
					"rewardRate()": "7b0a47ee",
					"setRewardRate(uint256)": "9e447fc6",
					"stake(uint256)": "a694fc3a",
					"stakes(address)": "16934fc4",
					"token()": "fc0c546a",
					"transferOwnership(address)": "f2fde38b",
					"unstake()": "2def6620"
				}
			},
			"storageLayout": {
				"storage": [
					{
						"astId": 8,
						"contract": "SuperBoInuStaking.sol:SuperBoInuStaking",
						"label": "_owner",
						"offset": 0,
						"slot": "0",
						"type": "t_address"
					},
					{
						"astId": 264,
						"contract": "SuperBoInuStaking.sol:SuperBoInuStaking",
						"label": "token",
						"offset": 0,
						"slot": "1",
						"type": "t_contract(IERC20)225"
					},
					{
						"astId": 267,
						"contract": "SuperBoInuStaking.sol:SuperBoInuStaking",
						"label": "rewardRate",
						"offset": 0,
						"slot": "2",
						"type": "t_uint256"
					},
					{
						"astId": 280,
						"contract": "SuperBoInuStaking.sol:SuperBoInuStaking",
						"label": "stakes",
						"offset": 0,
						"slot": "3",
						"type": "t_mapping(t_address,t_struct(Stake)275_storage)"
					}
				],
				"types": {
					"t_address": {
						"encoding": "inplace",
						"label": "address",
						"numberOfBytes": "20"
					},
					"t_contract(IERC20)225": {
						"encoding": "inplace",
						"label": "contract IERC20",
						"numberOfBytes": "20"
					},
					"t_mapping(t_address,t_struct(Stake)275_storage)": {
						"encoding": "mapping",
						"key": "t_address",
						"label": "mapping(address => struct SuperBoInuStaking.Stake)",
						"numberOfBytes": "32",
						"value": "t_struct(Stake)275_storage"
					},
					"t_struct(Stake)275_storage": {
						"encoding": "inplace",
						"label": "struct SuperBoInuStaking.Stake",
						"members": [
							{
								"astId": 272,
								"contract": "SuperBoInuStaking.sol:SuperBoInuStaking",
								"label": "amount",
								"offset": 0,
								"slot": "0",
								"type": "t_uint256"
							},
							{
								"astId": 274,
								"contract": "SuperBoInuStaking.sol:SuperBoInuStaking",
								"label": "startTime",
								"offset": 0,
								"slot": "1",
								"type": "t_uint256"
							}
						],
						"numberOfBytes": "64"
					},
					"t_uint256": {
						"encoding": "inplace",
						"label": "uint256",
						"numberOfBytes": "32"
					}
				}
			},
			"userdoc": {
				"kind": "user",
				"methods": {},
				"version": 1
			}
		}
	}
}