{
	"SuperBoInuStaking.sol": {
		"SuperBoInuStaking": {
			"abi": [
				{
					"inputs": [
						{
							"internalType": "address",
							"name": "tokenAddress",
							"type": "address"
						}
					],
					"stateMutability": "nonpayable",
					"type": "constructor"
				},
				{
					"inputs": [
						{
							"internalType": "address",
							"name": "owner",
							"type": "address"
						}
					],
					"name": "OwnableInvalidOwner",
					"type": "error"
				},
				{
					"inputs": [
						{
							"internalType": "address",
							"name": "account",
							"type": "address"
						}
					],
					"name": "OwnableUnauthorizedAccount",
					"type": "error"
				},
				{
					"anonymous": false,
					"inputs": [
						{
							"indexed": true,
							"internalType": "address",
							"name": "previousOwner",
							"type": "address"
						},
						{
							"indexed": true,
							"internalType": "address",
							"name": "newOwner",
							"type": "address"
						}
					],
					"name": "OwnershipTransferred",
					"type": "event"
				},
				{
					"inputs": [],
					"name": "EARLY_UNSTAKE_PENALTY",
					"outputs": [
						{
							"internalType": "uint256",
							"name": "",
							"type": "uint256"
						}
					],
					"stateMutability": "view",
					"type": "function"
				},
				{
					"inputs": [],
					"name": "LOCK_PERIOD",
					"outputs": [
						{
							"internalType": "uint256",
							"name": "",
							"type": "uint256"
						}
					],
					"stateMutability": "view",
					"type": "function"
				},
				{
					"inputs": [],
					"name": "SECONDS_PER_YEAR",
					"outputs": [
						{
							"internalType": "uint256",
							"name": "",
							"type": "uint256"
						}
					],
					"stateMutability": "view",
					"type": "function"
				},
				{
					"inputs": [
						{
							"internalType": "address",
							"name": "user",
							"type": "address"
						}
					],
					"name": "calculateReward",
					"outputs": [
						{
							"internalType": "uint256",
							"name": "",
							"type": "uint256"
						}
					],
					"stateMutability": "view",
					"type": "function"
				},
				{
					"inputs": [],
					"name": "claim",
					"outputs": [],
					"stateMutability": "nonpayable",
					"type": "function"
				},
				{
					"inputs": [
						{
							"internalType": "uint256",
							"name": "topN",
							"type": "uint256"
						}
					],
					"name": "getTopStakers",
					"outputs": [
						{
							"internalType": "address[]",
							"name": "",
							"type": "address[]"
						},
						{
							"internalType": "uint256[]",
							"name": "",
							"type": "uint256[]"
						}
					],
					"stateMutability": "view",
					"type": "function"
				},
				{
					"inputs": [],
					"name": "owner",
					"outputs": [
						{
							"internalType": "address",
							"name": "",
							"type": "address"
						}
					],
					"stateMutability": "view",
					"type": "function"
				},
				{
					"inputs": [],
					"name": "renounceOwnership",
					"outputs": [],
					"stateMutability": "nonpayable",
					"type": "function"
				},
				{
					"inputs": [],
					"name": "rewardRate",
					"outputs": [
						{
							"internalType": "uint256",
							"name": "",
							"type": "uint256"
						}
					],
					"stateMutability": "view",
					"type": "function"
				},
				{
					"inputs": [
						{
							"internalType": "uint256",
							"name": "newRate",
							"type": "uint256"
						}
					],
					"name": "setRewardRate",
					"outputs": [],
					"stateMutability": "nonpayable",
					"type": "function"
				},
				{
					"inputs": [
						{
							"internalType": "uint256",
							"name": "amount",
							"type": "uint256"
						}
					],
					"name": "stake",
					"outputs": [],
					"stateMutability": "nonpayable",
					"type": "function"
				},
				{
					"inputs": [
						{
							"internalType": "uint256",
							"name": "",
							"type": "uint256"
						}
					],
					"name": "stakers",
					"outputs": [
						{
							"internalType": "address",
							"name": "",
							"type": "address"
						}
					],
					"stateMutability": "view",
					"type": "function"
				},
				{
					"inputs": [
						{
							"internalType": "address",
							"name": "",
							"type": "address"
						}
					],
					"name": "stakes",
					"outputs": [
						{
							"internalType": "uint256",
							"name": "amount",
							"type": "uint256"
						},
						{
							"internalType": "uint256",
							"name": "startTime",
							"type": "uint256"
						}
					],
					"stateMutability": "view",
					"type": "function"
				},
				{
					"inputs": [],
					"name": "token",
					"outputs": [
						{
							"internalType": "contract IERC20",
							"name": "",
							"type": "address"
						}
					],
					"stateMutability": "view",
					"type": "function"
				},
				{
					"inputs": [
						{
							"internalType": "address",
							"name": "newOwner",
							"type": "address"
						}
					],
					"name": "transferOwnership",
					"outputs": [],
					"stateMutability": "nonpayable",
					"type": "function"
				},
				{
					"inputs": [],
					"name": "unstake",
					"outputs": [],
					"stateMutability": "nonpayable",
					"type": "function"
				}
			],
			"devdoc": {
				"errors": {
					"OwnableInvalidOwner(address)": [
						{
							"details": "The owner is not a valid owner account. (eg. `address(0)`)"
						}
					],
					"OwnableUnauthorizedAccount(address)": [
						{
							"details": "The caller account is not authorized to perform an operation."
						}
					]
				},
				"kind": "dev",
				"methods": {
					"owner()": {
						"details": "Returns the address of the current owner."
					},
					"renounceOwnership()": {
						"details": "Leaves the contract without owner. It will not be possible to call `onlyOwner` functions. Can only be called by the current owner. NOTE: Renouncing ownership will leave the contract without an owner, thereby disabling any functionality that is only available to the owner."
					},
					"transferOwnership(address)": {
						"details": "Transfers ownership of the contract to a new account (`newOwner`). Can only be called by the current owner."
					}
				},
				"version": 1
			},
			"evm": {
				"assembly": "    /* \"SuperBoInuStaking.sol\":175:4173  contract SuperBoInuStaking is Ownable {... */\n  mstore(0x40, 0x80)\n    /* \"SuperBoInuStaking.sol\":276:278  10 */\n  0x0a\n    /* \"SuperBoInuStaking.sol\":248:278  uint256 public rewardRate = 10 */\n  0x02\n  sstore\n    /* \"SuperBoInuStaking.sol\":635:762  constructor(address tokenAddress) Ownable(msg.sender) {  // <-- Fixed: Pass owner... */\n  callvalue\n  dup1\n  iszero\n  tag_1\n  jumpi\n  revert(0x00, 0x00)\ntag_1:\n  pop\n  mload(0x40)\n  sub(codesize, bytecodeSize)\n  dup1\n  bytecodeSize\n  dup4\n  codecopy\n  dup2\n  dup2\n  add\n  0x40\n  mstore\n  dup2\n  add\n  swap1\n  tag_2\n  swap2\n  swap1\n  tag_3\n  jump\t// in\ntag_2:\n    /* \"SuperBoInuStaking.sol\":677:687  msg.sender */\n  caller\n    /* \"@openzeppelin/contracts/access/Ownable.sol\":1297:1298  0 */\n  0x00\n    /* \"@openzeppelin/contracts/access/Ownable.sol\":1273:1299  initialOwner == address(0) */\n  0xffffffffffffffffffffffffffffffffffffffff\n  and\n    /* \"@openzeppelin/contracts/access/Ownable.sol\":1273:1285  initialOwner */\n  dup2\n    /* \"@openzeppelin/contracts/access/Ownable.sol\":1273:1299  initialOwner == address(0) */\n  0xffffffffffffffffffffffffffffffffffffffff\n  and\n  sub\n    /* \"@openzeppelin/contracts/access/Ownable.sol\":1269:1364  if (initialOwner == address(0)) {... */\n  tag_7\n  jumpi\n    /* \"@openzeppelin/contracts/access/Ownable.sol\":1350:1351  0 */\n  0x00\n    /* \"@openzeppelin/contracts/access/Ownable.sol\":1322:1353  OwnableInvalidOwner(address(0)) */\n  mload(0x40)\n  0x1e4fbdf700000000000000000000000000000000000000000000000000000000\n  dup2\n  mstore\n  0x04\n  add\n  tag_8\n  swap2\n  swap1\n  tag_9\n  jump\t// in\ntag_8:\n  mload(0x40)\n  dup1\n  swap2\n  sub\n  swap1\n  revert\n    /* \"@openzeppelin/contracts/access/Ownable.sol\":1269:1364  if (initialOwner == address(0)) {... */\ntag_7:\n    /* \"@openzeppelin/contracts/access/Ownable.sol\":1373:1405  _transferOwnership(initialOwner) */\n  tag_10\n    /* \"@openzeppelin/contracts/access/Ownable.sol\":1392:1404  initialOwner */\n  dup2\n    /* \"@openzeppelin/contracts/access/Ownable.sol\":1373:1391  _transferOwnership */\n  shl(0x20, tag_11)\n    /* \"@openzeppelin/contracts/access/Ownable.sol\":1373:1405  _transferOwnership(initialOwner) */\n  0x20\n  shr\n  jump\t// in\ntag_10:\n    /* \"@openzeppelin/contracts/access/Ownable.sol\":1225:1412  constructor(address initialOwner) {... */\n  pop\n    /* \"SuperBoInuStaking.sol\":741:753  tokenAddress */\n  dup1\n    /* \"SuperBoInuStaking.sol\":726:731  token */\n  0x01\n  0x00\n    /* \"SuperBoInuStaking.sol\":726:754  token = IERC20(tokenAddress) */\n  0x0100\n  exp\n  dup2\n  sload\n  dup2\n  0xffffffffffffffffffffffffffffffffffffffff\n  mul\n  not\n  and\n  swap1\n  dup4\n  0xffffffffffffffffffffffffffffffffffffffff\n  and\n  mul\n  or\n  swap1\n  sstore\n  pop\n    /* \"SuperBoInuStaking.sol\":635:762  constructor(address tokenAddress) Ownable(msg.sender) {  // <-- Fixed: Pass owner... */\n  pop\n    /* \"SuperBoInuStaking.sol\":175:4173  contract SuperBoInuStaking is Ownable {... */\n  jump(tag_13)\n    /* \"@openzeppelin/contracts/access/Ownable.sol\":2912:3099  function _transferOwnership(address newOwner) internal virtual {... */\ntag_11:\n    /* \"@openzeppelin/contracts/access/Ownable.sol\":2985:3001  address oldOwner */\n  0x00\n    /* \"@openzeppelin/contracts/access/Ownable.sol\":3004:3010  _owner */\n  0x00\n  0x00\n  swap1\n  sload\n  swap1\n  0x0100\n  exp\n  swap1\n  div\n  0xffffffffffffffffffffffffffffffffffffffff\n  and\n    /* \"@openzeppelin/contracts/access/Ownable.sol\":2985:3010  address oldOwner = _owner */\n  swap1\n  pop\n    /* \"@openzeppelin/contracts/access/Ownable.sol\":3029:3037  newOwner */\n  dup2\n    /* \"@openzeppelin/contracts/access/Ownable.sol\":3020:3026  _owner */\n  0x00\n  0x00\n    /* \"@openzeppelin/contracts/access/Ownable.sol\":3020:3037  _owner = newOwner */\n  0x0100\n  exp\n  dup2\n  sload\n  dup2\n  0xffffffffffffffffffffffffffffffffffffffff\n  mul\n  not\n  and\n  swap1\n  dup4\n  0xffffffffffffffffffffffffffffffffffffffff\n  and\n  mul\n  or\n  swap1\n  sstore\n  pop\n    /* \"@openzeppelin/contracts/access/Ownable.sol\":3083:3091  newOwner */\n  dup2\n    /* \"@openzeppelin/contracts/access/Ownable.sol\":3052:3092  OwnershipTransferred(oldOwner, newOwner) */\n  0xffffffffffffffffffffffffffffffffffffffff\n  and\n    /* \"@openzeppelin/contracts/access/Ownable.sol\":3073:3081  oldOwner */\n  dup2\n    /* \"@openzeppelin/contracts/access/Ownable.sol\":3052:3092  OwnershipTransferred(oldOwner, newOwner) */\n  0xffffffffffffffffffffffffffffffffffffffff\n  and\n  0x8be0079c531659141344cd1fd0a4f28419497f9722a3daafe3b4186f6b6457e0\n  mload(0x40)\n  mload(0x40)\n  dup1\n  swap2\n  sub\n  swap1\n  log3\n    /* \"@openzeppelin/contracts/access/Ownable.sol\":2975:3099  {... */\n  pop\n    /* \"@openzeppelin/contracts/access/Ownable.sol\":2912:3099  function _transferOwnership(address newOwner) internal virtual {... */\n  pop\n  jump\t// out\n    /* \"#utility.yul\":88:205   */\ntag_16:\n    /* \"#utility.yul\":197:198   */\n  0x00\n    /* \"#utility.yul\":194:195   */\n  0x00\n    /* \"#utility.yul\":187:199   */\n  revert\n    /* \"#utility.yul\":334:460   */\ntag_18:\n    /* \"#utility.yul\":371:378   */\n  0x00\n    /* \"#utility.yul\":411:453   */\n  0xffffffffffffffffffffffffffffffffffffffff\n    /* \"#utility.yul\":404:409   */\n  dup3\n    /* \"#utility.yul\":400:454   */\n  and\n    /* \"#utility.yul\":389:454   */\n  swap1\n  pop\n    /* \"#utility.yul\":334:460   */\n  swap2\n  swap1\n  pop\n  jump\t// out\n    /* \"#utility.yul\":466:562   */\ntag_19:\n    /* \"#utility.yul\":503:510   */\n  0x00\n    /* \"#utility.yul\":532:556   */\n  tag_29\n    /* \"#utility.yul\":550:555   */\n  dup3\n    /* \"#utility.yul\":532:556   */\n  tag_18\n  jump\t// in\ntag_29:\n    /* \"#utility.yul\":521:556   */\n  swap1\n  pop\n    /* \"#utility.yul\":466:562   */\n  swap2\n  swap1\n  pop\n  jump\t// out\n    /* \"#utility.yul\":568:690   */\ntag_20:\n    /* \"#utility.yul\":641:665   */\n  tag_31\n    /* \"#utility.yul\":659:664   */\n  dup2\n    /* \"#utility.yul\":641:665   */\n  tag_19\n  jump\t// in\ntag_31:\n    /* \"#utility.yul\":634:639   */\n  dup2\n    /* \"#utility.yul\":631:666   */\n  eq\n    /* \"#utility.yul\":621:684   */\n  tag_32\n  jumpi\n    /* \"#utility.yul\":680:681   */\n  0x00\n    /* \"#utility.yul\":677:678   */\n  0x00\n    /* \"#utility.yul\":670:682   */\n  revert\n    /* \"#utility.yul\":621:684   */\ntag_32:\n    /* \"#utility.yul\":568:690   */\n  pop\n  jump\t// out\n    /* \"#utility.yul\":696:839   */\ntag_21:\n    /* \"#utility.yul\":753:758   */\n  0x00\n    /* \"#utility.yul\":784:790   */\n  dup2\n    /* \"#utility.yul\":778:791   */\n  mload\n    /* \"#utility.yul\":769:791   */\n  swap1\n  pop\n    /* \"#utility.yul\":800:833   */\n  tag_34\n    /* \"#utility.yul\":827:832   */\n  dup2\n    /* \"#utility.yul\":800:833   */\n  tag_20\n  jump\t// in\ntag_34:\n    /* \"#utility.yul\":696:839   */\n  swap3\n  swap2\n  pop\n  pop\n  jump\t// out\n    /* \"#utility.yul\":845:1196   */\ntag_3:\n    /* \"#utility.yul\":915:921   */\n  0x00\n    /* \"#utility.yul\":964:966   */\n  0x20\n    /* \"#utility.yul\":952:961   */\n  dup3\n    /* \"#utility.yul\":943:950   */\n  dup5\n    /* \"#utility.yul\":939:962   */\n  sub\n    /* \"#utility.yul\":935:967   */\n  slt\n    /* \"#utility.yul\":932:1051   */\n  iszero\n  tag_36\n  jumpi\n    /* \"#utility.yul\":970:1049   */\n  tag_37\n  tag_16\n  jump\t// in\ntag_37:\n    /* \"#utility.yul\":932:1051   */\ntag_36:\n    /* \"#utility.yul\":1090:1091   */\n  0x00\n    /* \"#utility.yul\":1115:1179   */\n  tag_38\n    /* \"#utility.yul\":1171:1178   */\n  dup5\n    /* \"#utility.yul\":1162:1168   */\n  dup3\n    /* \"#utility.yul\":1151:1160   */\n  dup6\n    /* \"#utility.yul\":1147:1169   */\n  add\n    /* \"#utility.yul\":1115:1179   */\n  tag_21\n  jump\t// in\ntag_38:\n    /* \"#utility.yul\":1105:1179   */\n  swap2\n  pop\n    /* \"#utility.yul\":1061:1189   */\n  pop\n    /* \"#utility.yul\":845:1196   */\n  swap3\n  swap2\n  pop\n  pop\n  jump\t// out\n    /* \"#utility.yul\":1202:1320   */\ntag_22:\n    /* \"#utility.yul\":1289:1313   */\n  tag_40\n    /* \"#utility.yul\":1307:1312   */\n  dup2\n    /* \"#utility.yul\":1289:1313   */\n  tag_19\n  jump\t// in\ntag_40:\n    /* \"#utility.yul\":1284:1287   */\n  dup3\n    /* \"#utility.yul\":1277:1314   */\n  mstore\n    /* \"#utility.yul\":1202:1320   */\n  pop\n  pop\n  jump\t// out\n    /* \"#utility.yul\":1326:1548   */\ntag_9:\n    /* \"#utility.yul\":1419:1423   */\n  0x00\n    /* \"#utility.yul\":1457:1459   */\n  0x20\n    /* \"#utility.yul\":1446:1455   */\n  dup3\n    /* \"#utility.yul\":1442:1460   */\n  add\n    /* \"#utility.yul\":1434:1460   */\n  swap1\n  pop\n    /* \"#utility.yul\":1470:1541   */\n  tag_42\n    /* \"#utility.yul\":1538:1539   */\n  0x00\n    /* \"#utility.yul\":1527:1536   */\n  dup4\n    /* \"#utility.yul\":1523:1540   */\n  add\n    /* \"#utility.yul\":1514:1520   */\n  dup5\n    /* \"#utility.yul\":1470:1541   */\n  tag_22\n  jump\t// in\ntag_42:\n    /* \"#utility.yul\":1326:1548   */\n  swap3\n  swap2\n  pop\n  pop\n  jump\t// out\n    /* \"SuperBoInuStaking.sol\":175:4173  contract SuperBoInuStaking is Ownable {... */\ntag_13:\n  dataSize(sub_0)\n  dup1\n  dataOffset(sub_0)\n  0x00\n  codecopy\n  0x00\n  return\nstop\n\nsub_0: assembly {\n        /* \"SuperBoInuStaking.sol\":175:4173  contract SuperBoInuStaking is Ownable {... */\n      mstore(0x40, 0x80)\n      callvalue\n      dup1\n      iszero\n      tag_1\n      jumpi\n      revert(0x00, 0x00)\n    tag_1:\n      pop\n      jumpi(tag_2, lt(calldatasize, 0x04))\n      shr(0xe0, calldataload(0x00))\n      dup1\n      0x9e447fc6\n      gt\n      tag_19\n      jumpi\n      dup1\n      0xe6a69ab8\n      gt\n      tag_20\n      jumpi\n      dup1\n      0xe6a69ab8\n      eq\n      tag_15\n      jumpi\n      dup1\n      0xf2fde38b\n      eq\n      tag_16\n      jumpi\n      dup1\n      0xfc0c546a\n      eq\n      tag_17\n      jumpi\n      dup1\n      0xfd5e6dd1\n      eq\n      tag_18\n      jumpi\n      jump(tag_2)\n    tag_20:\n      dup1\n      0x9e447fc6\n      eq\n      tag_11\n      jumpi\n      dup1\n      0xa694fc3a\n      eq\n      tag_12\n      jumpi\n      dup1\n      0xc80ca39a\n      eq\n      tag_13\n      jumpi\n      dup1\n      0xd82e3962\n      eq\n      tag_14\n      jumpi\n      jump(tag_2)\n    tag_19:\n      dup1\n      0x4e71d92d\n      gt\n      tag_21\n      jumpi\n      dup1\n      0x4e71d92d\n      eq\n      tag_7\n      jumpi\n      dup1\n      0x715018a6\n      eq\n      tag_8\n      jumpi\n      dup1\n      0x7b0a47ee\n      eq\n      tag_9\n      jumpi\n      dup1\n      0x8da5cb5b\n      eq\n      tag_10\n      jumpi\n      jump(tag_2)\n    tag_21:\n      dup1\n      0x16934fc4\n      eq\n      tag_3\n      jumpi\n      dup1\n      0x1820cabb\n      eq\n      tag_4\n      jumpi\n      dup1\n      0x1f4531f5\n      eq\n      tag_5\n      jumpi\n      dup1\n      0x2def6620\n      eq\n      tag_6\n      jumpi\n    tag_2:\n      revert(0x00, 0x00)\n        /* \"SuperBoInuStaking.sol\":556:595  mapping(address => Stake) public stakes */\n    tag_3:\n      tag_22\n      0x04\n      dup1\n      calldatasize\n      sub\n      dup2\n      add\n      swap1\n      tag_23\n      swap2\n      swap1\n      tag_24\n      jump\t// in\n    tag_23:\n      tag_25\n      jump\t// in\n    tag_22:\n      mload(0x40)\n      tag_26\n      swap3\n      swap2\n      swap1\n      tag_27\n      jump\t// in\n    tag_26:\n      mload(0x40)\n      dup1\n      swap2\n      sub\n      swap1\n      return\n        /* \"SuperBoInuStaking.sol\":364:408  uint256 public constant LOCK_PERIOD = 1 days */\n    tag_4:\n      tag_28\n      tag_29\n      jump\t// in\n    tag_28:\n      mload(0x40)\n      tag_30\n      swap2\n      swap1\n      tag_31\n      jump\t// in\n    tag_30:\n      mload(0x40)\n      dup1\n      swap2\n      sub\n      swap1\n      return\n        /* \"SuperBoInuStaking.sol\":415:465  uint256 public constant EARLY_UNSTAKE_PENALTY = 50 */\n    tag_5:\n      tag_32\n      tag_33\n      jump\t// in\n    tag_32:\n      mload(0x40)\n      tag_34\n      swap2\n      swap1\n      tag_31\n      jump\t// in\n    tag_34:\n      mload(0x40)\n      dup1\n      swap2\n      sub\n      swap1\n      return\n        /* \"SuperBoInuStaking.sol\":1387:1994  function unstake() external {... */\n    tag_6:\n      tag_35\n      tag_36\n      jump\t// in\n    tag_35:\n      stop\n        /* \"SuperBoInuStaking.sol\":2002:2356  function claim() public {... */\n    tag_7:\n      tag_37\n      tag_38\n      jump\t// in\n    tag_37:\n      stop\n        /* \"@openzeppelin/contracts/access/Ownable.sol\":2293:2394  function renounceOwnership() public virtual onlyOwner {... */\n    tag_8:\n      tag_39\n      tag_40\n      jump\t// in\n    tag_39:\n      stop\n        /* \"SuperBoInuStaking.sol\":248:278  uint256 public rewardRate = 10 */\n    tag_9:\n      tag_41\n      tag_42\n      jump\t// in\n    tag_41:\n      mload(0x40)\n      tag_43\n      swap2\n      swap1\n      tag_31\n      jump\t// in\n    tag_43:\n      mload(0x40)\n      dup1\n      swap2\n      sub\n      swap1\n      return\n        /* \"@openzeppelin/contracts/access/Ownable.sol\":1638:1723  function owner() public view virtual returns (address) {... */\n    tag_10:\n      tag_44\n      tag_45\n      jump\t// in\n    tag_44:\n      mload(0x40)\n      tag_46\n      swap2\n      swap1\n      tag_47\n      jump\t// in\n    tag_46:\n      mload(0x40)\n      dup1\n      swap2\n      sub\n      swap1\n      return\n        /* \"SuperBoInuStaking.sol\":2734:2832  function setRewardRate(uint256 newRate) external onlyOwner {... */\n    tag_11:\n      tag_48\n      0x04\n      dup1\n      calldatasize\n      sub\n      dup2\n      add\n      swap1\n      tag_49\n      swap2\n      swap1\n      tag_50\n      jump\t// in\n    tag_49:\n      tag_51\n      jump\t// in\n    tag_48:\n      stop\n        /* \"SuperBoInuStaking.sol\":774:1379  function stake(uint256 amount) external {... */\n    tag_12:\n      tag_52\n      0x04\n      dup1\n      calldatasize\n      sub\n      dup2\n      add\n      swap1\n      tag_53\n      swap2\n      swap1\n      tag_50\n      jump\t// in\n    tag_53:\n      tag_54\n      jump\t// in\n    tag_52:\n      stop\n        /* \"SuperBoInuStaking.sol\":2883:4170  function getTopStakers(uint256 topN) external view returns (address[] memory, uint256[] memory) {... */\n    tag_13:\n      tag_55\n      0x04\n      dup1\n      calldatasize\n      sub\n      dup2\n      add\n      swap1\n      tag_56\n      swap2\n      swap1\n      tag_50\n      jump\t// in\n    tag_56:\n      tag_57\n      jump\t// in\n    tag_55:\n      mload(0x40)\n      tag_58\n      swap3\n      swap2\n      swap1\n      tag_59\n      jump\t// in\n    tag_58:\n      mload(0x40)\n      dup1\n      swap2\n      sub\n      swap1\n      return\n        /* \"SuperBoInuStaking.sol\":2364:2726  function calculateReward(address user) public view returns (uint256) {... */\n    tag_14:\n      tag_60\n      0x04\n      dup1\n      calldatasize\n      sub\n      dup2\n      add\n      swap1\n      tag_61\n      swap2\n      swap1\n      tag_24\n      jump\t// in\n    tag_61:\n      tag_62\n      jump\t// in\n    tag_60:\n      mload(0x40)\n      tag_63\n      swap2\n      swap1\n      tag_31\n      jump\t// in\n    tag_63:\n      mload(0x40)\n      dup1\n      swap2\n      sub\n      swap1\n      return\n        /* \"SuperBoInuStaking.sol\":306:357  uint256 public constant SECONDS_PER_YEAR = 365 days */\n    tag_15:\n      tag_64\n      tag_65\n      jump\t// in\n    tag_64:\n      mload(0x40)\n      tag_66\n      swap2\n      swap1\n      tag_31\n      jump\t// in\n    tag_66:\n      mload(0x40)\n      dup1\n      swap2\n      sub\n      swap1\n      return\n        /* \"@openzeppelin/contracts/access/Ownable.sol\":2543:2758  function transferOwnership(address newOwner) public virtual onlyOwner {... */\n    tag_16:\n      tag_67\n      0x04\n      dup1\n      calldatasize\n      sub\n      dup2\n      add\n      swap1\n      tag_68\n      swap2\n      swap1\n      tag_24\n      jump\t// in\n    tag_68:\n      tag_69\n      jump\t// in\n    tag_67:\n      stop\n        /* \"SuperBoInuStaking.sol\":220:239  IERC20 public token */\n    tag_17:\n      tag_70\n      tag_71\n      jump\t// in\n    tag_70:\n      mload(0x40)\n      tag_72\n      swap2\n      swap1\n      tag_73\n      jump\t// in\n    tag_72:\n      mload(0x40)\n      dup1\n      swap2\n      sub\n      swap1\n      return\n        /* \"SuperBoInuStaking.sol\":602:626  address[] public stakers */\n    tag_18:\n      tag_74\n      0x04\n      dup1\n      calldatasize\n      sub\n      dup2\n      add\n      swap1\n      tag_75\n      swap2\n      swap1\n      tag_50\n      jump\t// in\n    tag_75:\n      tag_76\n      jump\t// in\n    tag_74:\n      mload(0x40)\n      tag_77\n      swap2\n      swap1\n      tag_47\n      jump\t// in\n    tag_77:\n      mload(0x40)\n      dup1\n      swap2\n      sub\n      swap1\n      return\n        /* \"SuperBoInuStaking.sol\":556:595  mapping(address => Stake) public stakes */\n    tag_25:\n      mstore(0x20, 0x03)\n      dup1\n      0x00\n      mstore\n      keccak256(0x00, 0x40)\n      0x00\n      swap2\n      pop\n      swap1\n      pop\n      dup1\n      0x00\n      add\n      sload\n      swap1\n      dup1\n      0x01\n      add\n      sload\n      swap1\n      pop\n      dup3\n      jump\t// out\n        /* \"SuperBoInuStaking.sol\":364:408  uint256 public constant LOCK_PERIOD = 1 days */\n    tag_29:\n        /* \"SuperBoInuStaking.sol\":402:408  1 days */\n      0x015180\n        /* \"SuperBoInuStaking.sol\":364:408  uint256 public constant LOCK_PERIOD = 1 days */\n      dup2\n      jump\t// out\n        /* \"SuperBoInuStaking.sol\":415:465  uint256 public constant EARLY_UNSTAKE_PENALTY = 50 */\n    tag_33:\n        /* \"SuperBoInuStaking.sol\":463:465  50 */\n      0x32\n        /* \"SuperBoInuStaking.sol\":415:465  uint256 public constant EARLY_UNSTAKE_PENALTY = 50 */\n      dup2\n      jump\t// out\n        /* \"SuperBoInuStaking.sol\":1387:1994  function unstake() external {... */\n    tag_36:\n        /* \"SuperBoInuStaking.sol\":1426:1449  Stake storage userStake */\n      0x00\n        /* \"SuperBoInuStaking.sol\":1452:1458  stakes */\n      0x03\n        /* \"SuperBoInuStaking.sol\":1452:1470  stakes[msg.sender] */\n      0x00\n        /* \"SuperBoInuStaking.sol\":1459:1469  msg.sender */\n      caller\n        /* \"SuperBoInuStaking.sol\":1452:1470  stakes[msg.sender] */\n      0xffffffffffffffffffffffffffffffffffffffff\n      and\n      0xffffffffffffffffffffffffffffffffffffffff\n      and\n      dup2\n      mstore\n      0x20\n      add\n      swap1\n      dup2\n      mstore\n      0x20\n      add\n      0x00\n      keccak256\n        /* \"SuperBoInuStaking.sol\":1426:1470  Stake storage userStake = stakes[msg.sender] */\n      swap1\n      pop\n        /* \"SuperBoInuStaking.sol\":1508:1509  0 */\n      0x00\n        /* \"SuperBoInuStaking.sol\":1489:1498  userStake */\n      dup2\n        /* \"SuperBoInuStaking.sol\":1489:1505  userStake.amount */\n      0x00\n      add\n      sload\n        /* \"SuperBoInuStaking.sol\":1489:1509  userStake.amount > 0 */\n      gt\n        /* \"SuperBoInuStaking.sol\":1481:1528  require(userStake.amount > 0, \"Nothing staked\") */\n      tag_79\n      jumpi\n      mload(0x40)\n      0x08c379a000000000000000000000000000000000000000000000000000000000\n      dup2\n      mstore\n      0x04\n      add\n      tag_80\n      swap1\n      tag_81\n      jump\t// in\n    tag_80:\n      mload(0x40)\n      dup1\n      swap2\n      sub\n      swap1\n      revert\n    tag_79:\n        /* \"SuperBoInuStaking.sol\":1541:1555  uint256 reward */\n      0x00\n        /* \"SuperBoInuStaking.sol\":1558:1585  calculateReward(msg.sender) */\n      tag_82\n        /* \"SuperBoInuStaking.sol\":1574:1584  msg.sender */\n      caller\n        /* \"SuperBoInuStaking.sol\":1558:1573  calculateReward */\n      tag_62\n        /* \"SuperBoInuStaking.sol\":1558:1585  calculateReward(msg.sender) */\n      jump\t// in\n    tag_82:\n        /* \"SuperBoInuStaking.sol\":1541:1585  uint256 reward = calculateReward(msg.sender) */\n      swap1\n      pop\n        /* \"SuperBoInuStaking.sol\":1596:1612  uint256 duration */\n      0x00\n        /* \"SuperBoInuStaking.sol\":1633:1642  userStake */\n      dup3\n        /* \"SuperBoInuStaking.sol\":1633:1652  userStake.startTime */\n      0x01\n      add\n      sload\n        /* \"SuperBoInuStaking.sol\":1615:1630  block.timestamp */\n      timestamp\n        /* \"SuperBoInuStaking.sol\":1615:1652  block.timestamp - userStake.startTime */\n      tag_83\n      swap2\n      swap1\n      tag_84\n      jump\t// in\n    tag_83:\n        /* \"SuperBoInuStaking.sol\":1596:1652  uint256 duration = block.timestamp - userStake.startTime */\n      swap1\n      pop\n        /* \"SuperBoInuStaking.sol\":402:408  1 days */\n      0x015180\n        /* \"SuperBoInuStaking.sol\":1703:1711  duration */\n      dup2\n        /* \"SuperBoInuStaking.sol\":1703:1725  duration < LOCK_PERIOD */\n      lt\n        /* \"SuperBoInuStaking.sol\":1699:1809  if (duration < LOCK_PERIOD) {... */\n      iszero\n      tag_85\n      jumpi\n        /* \"SuperBoInuStaking.sol\":1794:1797  100 */\n      0x64\n        /* \"SuperBoInuStaking.sol\":463:465  50 */\n      0x32\n        /* \"SuperBoInuStaking.sol\":1762:1765  100 */\n      0x64\n        /* \"SuperBoInuStaking.sol\":1762:1789  100 - EARLY_UNSTAKE_PENALTY */\n      tag_86\n      swap2\n      swap1\n      tag_84\n      jump\t// in\n    tag_86:\n        /* \"SuperBoInuStaking.sol\":1752:1758  reward */\n      dup4\n        /* \"SuperBoInuStaking.sol\":1752:1790  reward * (100 - EARLY_UNSTAKE_PENALTY) */\n      tag_87\n      swap2\n      swap1\n      tag_88\n      jump\t// in\n    tag_87:\n        /* \"SuperBoInuStaking.sol\":1751:1797  (reward * (100 - EARLY_UNSTAKE_PENALTY)) / 100 */\n      tag_89\n      swap2\n      swap1\n      tag_90\n      jump\t// in\n    tag_89:\n        /* \"SuperBoInuStaking.sol\":1742:1797  reward = (reward * (100 - EARLY_UNSTAKE_PENALTY)) / 100 */\n      swap2\n      pop\n        /* \"SuperBoInuStaking.sol\":1699:1809  if (duration < LOCK_PERIOD) {... */\n    tag_85:\n        /* \"SuperBoInuStaking.sol\":1821:1835  uint256 amount */\n      0x00\n        /* \"SuperBoInuStaking.sol\":1838:1847  userStake */\n      dup4\n        /* \"SuperBoInuStaking.sol\":1838:1854  userStake.amount */\n      0x00\n      add\n      sload\n        /* \"SuperBoInuStaking.sol\":1821:1854  uint256 amount = userStake.amount */\n      swap1\n      pop\n        /* \"SuperBoInuStaking.sol\":1884:1885  0 */\n      0x00\n        /* \"SuperBoInuStaking.sol\":1865:1874  userStake */\n      dup5\n        /* \"SuperBoInuStaking.sol\":1865:1881  userStake.amount */\n      0x00\n      add\n        /* \"SuperBoInuStaking.sol\":1865:1885  userStake.amount = 0 */\n      dup2\n      swap1\n      sstore\n      pop\n        /* \"SuperBoInuStaking.sol\":1943:1948  token */\n      0x01\n      0x00\n      swap1\n      sload\n      swap1\n      0x0100\n      exp\n      swap1\n      div\n      0xffffffffffffffffffffffffffffffffffffffff\n      and\n        /* \"SuperBoInuStaking.sol\":1943:1957  token.transfer */\n      0xffffffffffffffffffffffffffffffffffffffff\n      and\n      0xa9059cbb\n        /* \"SuperBoInuStaking.sol\":1958:1968  msg.sender */\n      caller\n        /* \"SuperBoInuStaking.sol\":1979:1985  reward */\n      dup6\n        /* \"SuperBoInuStaking.sol\":1970:1976  amount */\n      dup5\n        /* \"SuperBoInuStaking.sol\":1970:1985  amount + reward */\n      tag_91\n      swap2\n      swap1\n      tag_92\n      jump\t// in\n    tag_91:\n        /* \"SuperBoInuStaking.sol\":1943:1986  token.transfer(msg.sender, amount + reward) */\n      mload(0x40)\n      dup4\n      0xffffffff\n      and\n      0xe0\n      shl\n      dup2\n      mstore\n      0x04\n      add\n      tag_93\n      swap3\n      swap2\n      swap1\n      tag_94\n      jump\t// in\n    tag_93:\n      0x20\n      mload(0x40)\n      dup1\n      dup4\n      sub\n      dup2\n      0x00\n      dup8\n      gas\n      call\n      iszero\n      dup1\n      iszero\n      tag_96\n      jumpi\n      returndatacopy(0x00, 0x00, returndatasize)\n      revert(0x00, returndatasize)\n    tag_96:\n      pop\n      pop\n      pop\n      pop\n      mload(0x40)\n      returndatasize\n      not(0x1f)\n      0x1f\n      dup3\n      add\n      and\n      dup3\n      add\n      dup1\n      0x40\n      mstore\n      pop\n      dup2\n      add\n      swap1\n      tag_97\n      swap2\n      swap1\n      tag_98\n      jump\t// in\n    tag_97:\n      pop\n        /* \"SuperBoInuStaking.sol\":1415:1994  {... */\n      pop\n      pop\n      pop\n      pop\n        /* \"SuperBoInuStaking.sol\":1387:1994  function unstake() external {... */\n      jump\t// out\n        /* \"SuperBoInuStaking.sol\":2002:2356  function claim() public {... */\n    tag_38:\n        /* \"SuperBoInuStaking.sol\":2037:2060  Stake storage userStake */\n      0x00\n        /* \"SuperBoInuStaking.sol\":2063:2069  stakes */\n      0x03\n        /* \"SuperBoInuStaking.sol\":2063:2081  stakes[msg.sender] */\n      0x00\n        /* \"SuperBoInuStaking.sol\":2070:2080  msg.sender */\n      caller\n        /* \"SuperBoInuStaking.sol\":2063:2081  stakes[msg.sender] */\n      0xffffffffffffffffffffffffffffffffffffffff\n      and\n      0xffffffffffffffffffffffffffffffffffffffff\n      and\n      dup2\n      mstore\n      0x20\n      add\n      swap1\n      dup2\n      mstore\n      0x20\n      add\n      0x00\n      keccak256\n        /* \"SuperBoInuStaking.sol\":2037:2081  Stake storage userStake = stakes[msg.sender] */\n      swap1\n      pop\n        /* \"SuperBoInuStaking.sol\":2119:2120  0 */\n      0x00\n        /* \"SuperBoInuStaking.sol\":2100:2109  userStake */\n      dup2\n        /* \"SuperBoInuStaking.sol\":2100:2116  userStake.amount */\n      0x00\n      add\n      sload\n        /* \"SuperBoInuStaking.sol\":2100:2120  userStake.amount > 0 */\n      gt\n        /* \"SuperBoInuStaking.sol\":2092:2140  require(userStake.amount > 0, \"No active stake\") */\n      tag_100\n      jumpi\n      mload(0x40)\n      0x08c379a000000000000000000000000000000000000000000000000000000000\n      dup2\n      mstore\n      0x04\n      add\n      tag_101\n      swap1\n      tag_102\n      jump\t// in\n    tag_101:\n      mload(0x40)\n      dup1\n      swap2\n      sub\n      swap1\n      revert\n    tag_100:\n        /* \"SuperBoInuStaking.sol\":2153:2167  uint256 reward */\n      0x00\n        /* \"SuperBoInuStaking.sol\":2170:2197  calculateReward(msg.sender) */\n      tag_103\n        /* \"SuperBoInuStaking.sol\":2186:2196  msg.sender */\n      caller\n        /* \"SuperBoInuStaking.sol\":2170:2185  calculateReward */\n      tag_62\n        /* \"SuperBoInuStaking.sol\":2170:2197  calculateReward(msg.sender) */\n      jump\t// in\n    tag_103:\n        /* \"SuperBoInuStaking.sol\":2153:2197  uint256 reward = calculateReward(msg.sender) */\n      swap1\n      pop\n        /* \"SuperBoInuStaking.sol\":2294:2300  reward */\n      dup1\n        /* \"SuperBoInuStaking.sol\":2274:2283  userStake */\n      dup3\n        /* \"SuperBoInuStaking.sol\":2274:2290  userStake.amount */\n      0x00\n      add\n      0x00\n        /* \"SuperBoInuStaking.sol\":2274:2300  userStake.amount += reward */\n      dup3\n      dup3\n      sload\n      tag_104\n      swap2\n      swap1\n      tag_92\n      jump\t// in\n    tag_104:\n      swap3\n      pop\n      pop\n      dup2\n      swap1\n      sstore\n      pop\n        /* \"SuperBoInuStaking.sol\":2333:2348  block.timestamp */\n      timestamp\n        /* \"SuperBoInuStaking.sol\":2311:2320  userStake */\n      dup3\n        /* \"SuperBoInuStaking.sol\":2311:2330  userStake.startTime */\n      0x01\n      add\n        /* \"SuperBoInuStaking.sol\":2311:2348  userStake.startTime = block.timestamp */\n      dup2\n      swap1\n      sstore\n      pop\n        /* \"SuperBoInuStaking.sol\":2026:2356  {... */\n      pop\n      pop\n        /* \"SuperBoInuStaking.sol\":2002:2356  function claim() public {... */\n      jump\t// out\n        /* \"@openzeppelin/contracts/access/Ownable.sol\":2293:2394  function renounceOwnership() public virtual onlyOwner {... */\n    tag_40:\n        /* \"@openzeppelin/contracts/access/Ownable.sol\":1531:1544  _checkOwner() */\n      tag_106\n        /* \"@openzeppelin/contracts/access/Ownable.sol\":1531:1542  _checkOwner */\n      tag_107\n        /* \"@openzeppelin/contracts/access/Ownable.sol\":1531:1544  _checkOwner() */\n      jump\t// in\n    tag_106:\n        /* \"@openzeppelin/contracts/access/Ownable.sol\":2357:2387  _transferOwnership(address(0)) */\n      tag_109\n        /* \"@openzeppelin/contracts/access/Ownable.sol\":2384:2385  0 */\n      0x00\n        /* \"@openzeppelin/contracts/access/Ownable.sol\":2357:2375  _transferOwnership */\n      tag_110\n        /* \"@openzeppelin/contracts/access/Ownable.sol\":2357:2387  _transferOwnership(address(0)) */\n      jump\t// in\n    tag_109:\n        /* \"@openzeppelin/contracts/access/Ownable.sol\":2293:2394  function renounceOwnership() public virtual onlyOwner {... */\n      jump\t// out\n        /* \"SuperBoInuStaking.sol\":248:278  uint256 public rewardRate = 10 */\n    tag_42:\n      sload(0x02)\n      dup2\n      jump\t// out\n        /* \"@openzeppelin/contracts/access/Ownable.sol\":1638:1723  function owner() public view virtual returns (address) {... */\n    tag_45:\n        /* \"@openzeppelin/contracts/access/Ownable.sol\":1684:1691  address */\n      0x00\n        /* \"@openzeppelin/contracts/access/Ownable.sol\":1710:1716  _owner */\n      0x00\n      0x00\n      swap1\n      sload\n      swap1\n      0x0100\n      exp\n      swap1\n      div\n      0xffffffffffffffffffffffffffffffffffffffff\n      and\n        /* \"@openzeppelin/contracts/access/Ownable.sol\":1703:1716  return _owner */\n      swap1\n      pop\n        /* \"@openzeppelin/contracts/access/Ownable.sol\":1638:1723  function owner() public view virtual returns (address) {... */\n      swap1\n      jump\t// out\n        /* \"SuperBoInuStaking.sol\":2734:2832  function setRewardRate(uint256 newRate) external onlyOwner {... */\n    tag_51:\n        /* \"@openzeppelin/contracts/access/Ownable.sol\":1531:1544  _checkOwner() */\n      tag_113\n        /* \"@openzeppelin/contracts/access/Ownable.sol\":1531:1542  _checkOwner */\n      tag_107\n        /* \"@openzeppelin/contracts/access/Ownable.sol\":1531:1544  _checkOwner() */\n      jump\t// in\n    tag_113:\n        /* \"SuperBoInuStaking.sol\":2817:2824  newRate */\n      dup1\n        /* \"SuperBoInuStaking.sol\":2804:2814  rewardRate */\n      0x02\n        /* \"SuperBoInuStaking.sol\":2804:2824  rewardRate = newRate */\n      dup2\n      swap1\n      sstore\n      pop\n        /* \"SuperBoInuStaking.sol\":2734:2832  function setRewardRate(uint256 newRate) external onlyOwner {... */\n      pop\n      jump\t// out\n        /* \"SuperBoInuStaking.sol\":774:1379  function stake(uint256 amount) external {... */\n    tag_54:\n        /* \"SuperBoInuStaking.sol\":842:843  0 */\n      0x00\n        /* \"SuperBoInuStaking.sol\":833:839  amount */\n      dup2\n        /* \"SuperBoInuStaking.sol\":833:843  amount > 0 */\n      gt\n        /* \"SuperBoInuStaking.sol\":825:862  require(amount > 0, \"Cannot stake 0\") */\n      tag_116\n      jumpi\n      mload(0x40)\n      0x08c379a000000000000000000000000000000000000000000000000000000000\n      dup2\n      mstore\n      0x04\n      add\n      tag_117\n      swap1\n      tag_118\n      jump\t// in\n    tag_117:\n      mload(0x40)\n      dup1\n      swap2\n      sub\n      swap1\n      revert\n    tag_116:\n        /* \"SuperBoInuStaking.sol\":971:972  0 */\n      0x00\n        /* \"SuperBoInuStaking.sol\":943:949  stakes */\n      0x03\n        /* \"SuperBoInuStaking.sol\":943:961  stakes[msg.sender] */\n      0x00\n        /* \"SuperBoInuStaking.sol\":950:960  msg.sender */\n      caller\n        /* \"SuperBoInuStaking.sol\":943:961  stakes[msg.sender] */\n      0xffffffffffffffffffffffffffffffffffffffff\n      and\n      0xffffffffffffffffffffffffffffffffffffffff\n      and\n      dup2\n      mstore\n      0x20\n      add\n      swap1\n      dup2\n      mstore\n      0x20\n      add\n      0x00\n      keccak256\n        /* \"SuperBoInuStaking.sol\":943:968  stakes[msg.sender].amount */\n      0x00\n      add\n      sload\n        /* \"SuperBoInuStaking.sol\":943:972  stakes[msg.sender].amount > 0 */\n      gt\n        /* \"SuperBoInuStaking.sol\":939:1249  if (stakes[msg.sender].amount > 0) {... */\n      iszero\n      tag_119\n      jumpi\n        /* \"SuperBoInuStaking.sol\":989:996  claim() */\n      tag_120\n        /* \"SuperBoInuStaking.sol\":989:994  claim */\n      tag_38\n        /* \"SuperBoInuStaking.sol\":989:996  claim() */\n      jump\t// in\n    tag_120:\n        /* \"SuperBoInuStaking.sol\":1086:1092  amount */\n      dup1\n        /* \"SuperBoInuStaking.sol\":1057:1063  stakes */\n      0x03\n        /* \"SuperBoInuStaking.sol\":1057:1075  stakes[msg.sender] */\n      0x00\n        /* \"SuperBoInuStaking.sol\":1064:1074  msg.sender */\n      caller\n        /* \"SuperBoInuStaking.sol\":1057:1075  stakes[msg.sender] */\n      0xffffffffffffffffffffffffffffffffffffffff\n      and\n      0xffffffffffffffffffffffffffffffffffffffff\n      and\n      dup2\n      mstore\n      0x20\n      add\n      swap1\n      dup2\n      mstore\n      0x20\n      add\n      0x00\n      keccak256\n        /* \"SuperBoInuStaking.sol\":1057:1082  stakes[msg.sender].amount */\n      0x00\n      add\n      0x00\n        /* \"SuperBoInuStaking.sol\":1057:1092  stakes[msg.sender].amount += amount */\n      dup3\n      dup3\n      sload\n      tag_121\n      swap2\n      swap1\n      tag_92\n      jump\t// in\n    tag_121:\n      swap3\n      pop\n      pop\n      dup2\n      swap1\n      sstore\n      pop\n        /* \"SuperBoInuStaking.sol\":939:1249  if (stakes[msg.sender].amount > 0) {... */\n      jump(tag_122)\n    tag_119:\n        /* \"SuperBoInuStaking.sol\":1146:1176  Stake(amount, block.timestamp) */\n      mload(0x40)\n      dup1\n      0x40\n      add\n      0x40\n      mstore\n      dup1\n        /* \"SuperBoInuStaking.sol\":1152:1158  amount */\n      dup3\n        /* \"SuperBoInuStaking.sol\":1146:1176  Stake(amount, block.timestamp) */\n      dup2\n      mstore\n      0x20\n      add\n        /* \"SuperBoInuStaking.sol\":1160:1175  block.timestamp */\n      timestamp\n        /* \"SuperBoInuStaking.sol\":1146:1176  Stake(amount, block.timestamp) */\n      dup2\n      mstore\n      pop\n        /* \"SuperBoInuStaking.sol\":1125:1131  stakes */\n      0x03\n        /* \"SuperBoInuStaking.sol\":1125:1143  stakes[msg.sender] */\n      0x00\n        /* \"SuperBoInuStaking.sol\":1132:1142  msg.sender */\n      caller\n        /* \"SuperBoInuStaking.sol\":1125:1143  stakes[msg.sender] */\n      0xffffffffffffffffffffffffffffffffffffffff\n      and\n      0xffffffffffffffffffffffffffffffffffffffff\n      and\n      dup2\n      mstore\n      0x20\n      add\n      swap1\n      dup2\n      mstore\n      0x20\n      add\n      0x00\n      keccak256\n        /* \"SuperBoInuStaking.sol\":1125:1176  stakes[msg.sender] = Stake(amount, block.timestamp) */\n      0x00\n      dup3\n      add\n      mload\n      dup2\n      0x00\n      add\n      sstore\n      0x20\n      dup3\n      add\n      mload\n      dup2\n      0x01\n      add\n      sstore\n      swap1\n      pop\n      pop\n        /* \"SuperBoInuStaking.sol\":1191:1198  stakers */\n      0x04\n        /* \"SuperBoInuStaking.sol\":1204:1214  msg.sender */\n      caller\n        /* \"SuperBoInuStaking.sol\":1191:1215  stakers.push(msg.sender) */\n      swap1\n      dup1\n      0x01\n      dup2\n      sload\n      add\n      dup1\n      dup3\n      sstore\n      dup1\n      swap2\n      pop\n      pop\n      0x01\n      swap1\n      sub\n      swap1\n      0x00\n      mstore\n      keccak256(0x00, 0x20)\n      add\n      0x00\n      swap1\n      swap2\n      swap1\n      swap2\n      swap1\n      swap2\n      0x0100\n      exp\n      dup2\n      sload\n      dup2\n      0xffffffffffffffffffffffffffffffffffffffff\n      mul\n      not\n      and\n      swap1\n      dup4\n      0xffffffffffffffffffffffffffffffffffffffff\n      and\n      mul\n      or\n      swap1\n      sstore\n      pop\n        /* \"SuperBoInuStaking.sol\":939:1249  if (stakes[msg.sender].amount > 0) {... */\n    tag_122:\n        /* \"SuperBoInuStaking.sol\":1261:1266  token */\n      0x01\n      0x00\n      swap1\n      sload\n      swap1\n      0x0100\n      exp\n      swap1\n      div\n      0xffffffffffffffffffffffffffffffffffffffff\n      and\n        /* \"SuperBoInuStaking.sol\":1261:1279  token.transferFrom */\n      0xffffffffffffffffffffffffffffffffffffffff\n      and\n      0x23b872dd\n        /* \"SuperBoInuStaking.sol\":1280:1290  msg.sender */\n      caller\n        /* \"SuperBoInuStaking.sol\":1300:1304  this */\n      address\n        /* \"SuperBoInuStaking.sol\":1307:1313  amount */\n      dup5\n        /* \"SuperBoInuStaking.sol\":1261:1314  token.transferFrom(msg.sender, address(this), amount) */\n      mload(0x40)\n      dup5\n      0xffffffff\n      and\n      0xe0\n      shl\n      dup2\n      mstore\n      0x04\n      add\n      tag_124\n      swap4\n      swap3\n      swap2\n      swap1\n      tag_125\n      jump\t// in\n    tag_124:\n      0x20\n      mload(0x40)\n      dup1\n      dup4\n      sub\n      dup2\n      0x00\n      dup8\n      gas\n      call\n      iszero\n      dup1\n      iszero\n      tag_127\n      jumpi\n      returndatacopy(0x00, 0x00, returndatasize)\n      revert(0x00, returndatasize)\n    tag_127:\n      pop\n      pop\n      pop\n      pop\n      mload(0x40)\n      returndatasize\n      not(0x1f)\n      0x1f\n      dup3\n      add\n      and\n      dup3\n      add\n      dup1\n      0x40\n      mstore\n      pop\n      dup2\n      add\n      swap1\n      tag_128\n      swap2\n      swap1\n      tag_98\n      jump\t// in\n    tag_128:\n      pop\n        /* \"SuperBoInuStaking.sol\":1356:1371  block.timestamp */\n      timestamp\n        /* \"SuperBoInuStaking.sol\":1325:1331  stakes */\n      0x03\n        /* \"SuperBoInuStaking.sol\":1325:1343  stakes[msg.sender] */\n      0x00\n        /* \"SuperBoInuStaking.sol\":1332:1342  msg.sender */\n      caller\n        /* \"SuperBoInuStaking.sol\":1325:1343  stakes[msg.sender] */\n      0xffffffffffffffffffffffffffffffffffffffff\n      and\n      0xffffffffffffffffffffffffffffffffffffffff\n      and\n      dup2\n      mstore\n      0x20\n      add\n      swap1\n      dup2\n      mstore\n      0x20\n      add\n      0x00\n      keccak256\n        /* \"SuperBoInuStaking.sol\":1325:1353  stakes[msg.sender].startTime */\n      0x01\n      add\n        /* \"SuperBoInuStaking.sol\":1325:1371  stakes[msg.sender].startTime = block.timestamp */\n      dup2\n      swap1\n      sstore\n      pop\n        /* \"SuperBoInuStaking.sol\":774:1379  function stake(uint256 amount) external {... */\n      pop\n      jump\t// out\n        /* \"SuperBoInuStaking.sol\":2883:4170  function getTopStakers(uint256 topN) external view returns (address[] memory, uint256[] memory) {... */\n    tag_57:\n        /* \"SuperBoInuStaking.sol\":2943:2959  address[] memory */\n      0x60\n        /* \"SuperBoInuStaking.sol\":2961:2977  uint256[] memory */\n      dup1\n        /* \"SuperBoInuStaking.sol\":2990:3003  uint256 count */\n      0x00\n        /* \"SuperBoInuStaking.sol\":3006:3013  stakers */\n      0x04\n        /* \"SuperBoInuStaking.sol\":3006:3020  stakers.length */\n      dup1\n      sload\n      swap1\n      pop\n        /* \"SuperBoInuStaking.sol\":2990:3020  uint256 count = stakers.length */\n      swap1\n      pop\n        /* \"SuperBoInuStaking.sol\":3042:3047  count */\n      dup1\n        /* \"SuperBoInuStaking.sol\":3035:3039  topN */\n      dup5\n        /* \"SuperBoInuStaking.sol\":3035:3047  topN > count */\n      gt\n        /* \"SuperBoInuStaking.sol\":3031:3061  if (topN > count) topN = count */\n      iszero\n      tag_130\n      jumpi\n        /* \"SuperBoInuStaking.sol\":3056:3061  count */\n      dup1\n        /* \"SuperBoInuStaking.sol\":3049:3061  topN = count */\n      swap4\n      pop\n        /* \"SuperBoInuStaking.sol\":3031:3061  if (topN > count) topN = count */\n    tag_130:\n        /* \"SuperBoInuStaking.sol\":3131:3159  address[] memory tempStakers */\n      0x00\n        /* \"SuperBoInuStaking.sol\":3176:3181  count */\n      dup2\n        /* \"SuperBoInuStaking.sol\":3162:3182  new address[](count) */\n      0xffffffffffffffff\n      dup2\n      gt\n      iszero\n      tag_131\n      jumpi\n      tag_132\n      tag_133\n      jump\t// in\n    tag_132:\n    tag_131:\n      mload(0x40)\n      swap1\n      dup1\n      dup3\n      mstore\n      dup1\n      0x20\n      mul\n      0x20\n      add\n      dup3\n      add\n      0x40\n      mstore\n      dup1\n      iszero\n      tag_134\n      jumpi\n      dup2\n      0x20\n      add\n      0x20\n      dup3\n      mul\n      dup1\n      calldatasize\n      dup4\n      calldatacopy\n      dup1\n      dup3\n      add\n      swap2\n      pop\n      pop\n      swap1\n      pop\n    tag_134:\n      pop\n        /* \"SuperBoInuStaking.sol\":3131:3182  address[] memory tempStakers = new address[](count) */\n      swap1\n      pop\n        /* \"SuperBoInuStaking.sol\":3198:3207  uint256 i */\n      0x00\n        /* \"SuperBoInuStaking.sol\":3210:3211  0 */\n      0x00\n        /* \"SuperBoInuStaking.sol\":3198:3211  uint256 i = 0 */\n      swap1\n      pop\n        /* \"SuperBoInuStaking.sol\":3193:3283  for (uint256 i = 0; i < count; i++) {... */\n    tag_135:\n        /* \"SuperBoInuStaking.sol\":3217:3222  count */\n      dup3\n        /* \"SuperBoInuStaking.sol\":3213:3214  i */\n      dup2\n        /* \"SuperBoInuStaking.sol\":3213:3222  i < count */\n      lt\n        /* \"SuperBoInuStaking.sol\":3193:3283  for (uint256 i = 0; i < count; i++) {... */\n      iszero\n      tag_136\n      jumpi\n        /* \"SuperBoInuStaking.sol\":3261:3268  stakers */\n      0x04\n        /* \"SuperBoInuStaking.sol\":3269:3270  i */\n      dup2\n        /* \"SuperBoInuStaking.sol\":3261:3271  stakers[i] */\n      dup2\n      sload\n      dup2\n      lt\n      tag_138\n      jumpi\n      tag_139\n      tag_140\n      jump\t// in\n    tag_139:\n    tag_138:\n      swap1\n      0x00\n      mstore\n      keccak256(0x00, 0x20)\n      add\n      0x00\n      swap1\n      sload\n      swap1\n      0x0100\n      exp\n      swap1\n      div\n      0xffffffffffffffffffffffffffffffffffffffff\n      and\n        /* \"SuperBoInuStaking.sol\":3244:3255  tempStakers */\n      dup3\n        /* \"SuperBoInuStaking.sol\":3256:3257  i */\n      dup3\n        /* \"SuperBoInuStaking.sol\":3244:3258  tempStakers[i] */\n      dup2\n      mload\n      dup2\n      lt\n      tag_142\n      jumpi\n      tag_143\n      tag_140\n      jump\t// in\n    tag_143:\n    tag_142:\n      0x20\n      mul\n      0x20\n      add\n      add\n        /* \"SuperBoInuStaking.sol\":3244:3271  tempStakers[i] = stakers[i] */\n      swap1\n      0xffffffffffffffffffffffffffffffffffffffff\n      and\n      swap1\n      dup2\n      0xffffffffffffffffffffffffffffffffffffffff\n      and\n      dup2\n      mstore\n      pop\n      pop\n        /* \"SuperBoInuStaking.sol\":3224:3227  i++ */\n      dup1\n      dup1\n      0x01\n      add\n      swap2\n      pop\n      pop\n        /* \"SuperBoInuStaking.sol\":3193:3283  for (uint256 i = 0; i < count; i++) {... */\n      jump(tag_135)\n    tag_136:\n      pop\n        /* \"SuperBoInuStaking.sol\":3354:3363  uint256 i */\n      0x00\n        /* \"SuperBoInuStaking.sol\":3366:3367  0 */\n      0x00\n        /* \"SuperBoInuStaking.sol\":3354:3367  uint256 i = 0 */\n      swap1\n      pop\n        /* \"SuperBoInuStaking.sol\":3349:3801  for (uint256 i = 0; i < topN; i++) {... */\n    tag_144:\n        /* \"SuperBoInuStaking.sol\":3373:3377  topN */\n      dup6\n        /* \"SuperBoInuStaking.sol\":3369:3370  i */\n      dup2\n        /* \"SuperBoInuStaking.sol\":3369:3377  i < topN */\n      lt\n        /* \"SuperBoInuStaking.sol\":3349:3801  for (uint256 i = 0; i < topN; i++) {... */\n      iszero\n      tag_145\n      jumpi\n        /* \"SuperBoInuStaking.sol\":3399:3415  uint256 maxIndex */\n      0x00\n        /* \"SuperBoInuStaking.sol\":3418:3419  i */\n      dup2\n        /* \"SuperBoInuStaking.sol\":3399:3419  uint256 maxIndex = i */\n      swap1\n      pop\n        /* \"SuperBoInuStaking.sol\":3439:3448  uint256 j */\n      0x00\n        /* \"SuperBoInuStaking.sol\":3455:3456  1 */\n      0x01\n        /* \"SuperBoInuStaking.sol\":3451:3452  i */\n      dup4\n        /* \"SuperBoInuStaking.sol\":3451:3456  i + 1 */\n      tag_150\n      swap2\n      swap1\n      tag_92\n      jump\t// in\n    tag_150:\n        /* \"SuperBoInuStaking.sol\":3439:3456  uint256 j = i + 1 */\n      swap1\n      pop\n        /* \"SuperBoInuStaking.sol\":3434:3637  for (uint256 j = i + 1; j < count; j++) {... */\n    tag_147:\n        /* \"SuperBoInuStaking.sol\":3462:3467  count */\n      dup5\n        /* \"SuperBoInuStaking.sol\":3458:3459  j */\n      dup2\n        /* \"SuperBoInuStaking.sol\":3458:3467  j < count */\n      lt\n        /* \"SuperBoInuStaking.sol\":3434:3637  for (uint256 j = i + 1; j < count; j++) {... */\n      iszero\n      tag_148\n      jumpi\n        /* \"SuperBoInuStaking.sol\":3529:3535  stakes */\n      0x03\n        /* \"SuperBoInuStaking.sol\":3529:3558  stakes[tempStakers[maxIndex]] */\n      0x00\n        /* \"SuperBoInuStaking.sol\":3536:3547  tempStakers */\n      dup6\n        /* \"SuperBoInuStaking.sol\":3548:3556  maxIndex */\n      dup5\n        /* \"SuperBoInuStaking.sol\":3536:3557  tempStakers[maxIndex] */\n      dup2\n      mload\n      dup2\n      lt\n      tag_151\n      jumpi\n      tag_152\n      tag_140\n      jump\t// in\n    tag_152:\n    tag_151:\n      0x20\n      mul\n      0x20\n      add\n      add\n      mload\n        /* \"SuperBoInuStaking.sol\":3529:3558  stakes[tempStakers[maxIndex]] */\n      0xffffffffffffffffffffffffffffffffffffffff\n      and\n      0xffffffffffffffffffffffffffffffffffffffff\n      and\n      dup2\n      mstore\n      0x20\n      add\n      swap1\n      dup2\n      mstore\n      0x20\n      add\n      0x00\n      keccak256\n        /* \"SuperBoInuStaking.sol\":3529:3565  stakes[tempStakers[maxIndex]].amount */\n      0x00\n      add\n      sload\n        /* \"SuperBoInuStaking.sol\":3497:3503  stakes */\n      0x03\n        /* \"SuperBoInuStaking.sol\":3497:3519  stakes[tempStakers[j]] */\n      0x00\n        /* \"SuperBoInuStaking.sol\":3504:3515  tempStakers */\n      dup7\n        /* \"SuperBoInuStaking.sol\":3516:3517  j */\n      dup5\n        /* \"SuperBoInuStaking.sol\":3504:3518  tempStakers[j] */\n      dup2\n      mload\n      dup2\n      lt\n      tag_153\n      jumpi\n      tag_154\n      tag_140\n      jump\t// in\n    tag_154:\n    tag_153:\n      0x20\n      mul\n      0x20\n      add\n      add\n      mload\n        /* \"SuperBoInuStaking.sol\":3497:3519  stakes[tempStakers[j]] */\n      0xffffffffffffffffffffffffffffffffffffffff\n      and\n      0xffffffffffffffffffffffffffffffffffffffff\n      and\n      dup2\n      mstore\n      0x20\n      add\n      swap1\n      dup2\n      mstore\n      0x20\n      add\n      0x00\n      keccak256\n        /* \"SuperBoInuStaking.sol\":3497:3526  stakes[tempStakers[j]].amount */\n      0x00\n      add\n      sload\n        /* \"SuperBoInuStaking.sol\":3497:3565  stakes[tempStakers[j]].amount > stakes[tempStakers[maxIndex]].amount */\n      gt\n        /* \"SuperBoInuStaking.sol\":3493:3622  if (stakes[tempStakers[j]].amount > stakes[tempStakers[maxIndex]].amount) {... */\n      iszero\n      tag_155\n      jumpi\n        /* \"SuperBoInuStaking.sol\":3601:3602  j */\n      dup1\n        /* \"SuperBoInuStaking.sol\":3590:3602  maxIndex = j */\n      swap2\n      pop\n        /* \"SuperBoInuStaking.sol\":3493:3622  if (stakes[tempStakers[j]].amount > stakes[tempStakers[maxIndex]].amount) {... */\n    tag_155:\n        /* \"SuperBoInuStaking.sol\":3469:3472  j++ */\n      dup1\n      dup1\n      0x01\n      add\n      swap2\n      pop\n      pop\n        /* \"SuperBoInuStaking.sol\":3434:3637  for (uint256 j = i + 1; j < count; j++) {... */\n      jump(tag_147)\n    tag_148:\n      pop\n        /* \"SuperBoInuStaking.sol\":3751:3762  tempStakers */\n      dup3\n        /* \"SuperBoInuStaking.sol\":3763:3771  maxIndex */\n      dup2\n        /* \"SuperBoInuStaking.sol\":3751:3772  tempStakers[maxIndex] */\n      dup2\n      mload\n      dup2\n      lt\n      tag_156\n      jumpi\n      tag_157\n      tag_140\n      jump\t// in\n    tag_157:\n    tag_156:\n      0x20\n      mul\n      0x20\n      add\n      add\n      mload\n        /* \"SuperBoInuStaking.sol\":3774:3785  tempStakers */\n      dup4\n        /* \"SuperBoInuStaking.sol\":3786:3787  i */\n      dup4\n        /* \"SuperBoInuStaking.sol\":3774:3788  tempStakers[i] */\n      dup2\n      mload\n      dup2\n      lt\n      tag_158\n      jumpi\n      tag_159\n      tag_140\n      jump\t// in\n    tag_159:\n    tag_158:\n      0x20\n      mul\n      0x20\n      add\n      add\n      mload\n        /* \"SuperBoInuStaking.sol\":3709:3720  tempStakers */\n      dup5\n        /* \"SuperBoInuStaking.sol\":3721:3722  i */\n      dup5\n        /* \"SuperBoInuStaking.sol\":3709:3723  tempStakers[i] */\n      dup2\n      mload\n      dup2\n      lt\n      tag_160\n      jumpi\n      tag_161\n      tag_140\n      jump\t// in\n    tag_161:\n    tag_160:\n      0x20\n      mul\n      0x20\n      add\n      add\n        /* \"SuperBoInuStaking.sol\":3725:3736  tempStakers */\n      dup6\n        /* \"SuperBoInuStaking.sol\":3737:3745  maxIndex */\n      dup5\n        /* \"SuperBoInuStaking.sol\":3725:3746  tempStakers[maxIndex] */\n      dup2\n      mload\n      dup2\n      lt\n      tag_162\n      jumpi\n      tag_163\n      tag_140\n      jump\t// in\n    tag_163:\n    tag_162:\n      0x20\n      mul\n      0x20\n      add\n      add\n        /* \"SuperBoInuStaking.sol\":3708:3789  (tempStakers[i], tempStakers[maxIndex]) = (tempStakers[maxIndex], tempStakers[i]) */\n      dup3\n      0xffffffffffffffffffffffffffffffffffffffff\n      and\n      0xffffffffffffffffffffffffffffffffffffffff\n      and\n      dup2\n      mstore\n      pop\n      dup3\n      0xffffffffffffffffffffffffffffffffffffffff\n      and\n      0xffffffffffffffffffffffffffffffffffffffff\n      and\n      dup2\n      mstore\n      pop\n      pop\n      pop\n        /* \"SuperBoInuStaking.sol\":3384:3801  {... */\n      pop\n        /* \"SuperBoInuStaking.sol\":3379:3382  i++ */\n      dup1\n      dup1\n      0x01\n      add\n      swap2\n      pop\n      pop\n        /* \"SuperBoInuStaking.sol\":3349:3801  for (uint256 i = 0; i < topN; i++) {... */\n      jump(tag_144)\n    tag_145:\n      pop\n        /* \"SuperBoInuStaking.sol\":3841:3870  address[] memory topAddresses */\n      0x00\n        /* \"SuperBoInuStaking.sol\":3887:3891  topN */\n      dup6\n        /* \"SuperBoInuStaking.sol\":3873:3892  new address[](topN) */\n      0xffffffffffffffff\n      dup2\n      gt\n      iszero\n      tag_164\n      jumpi\n      tag_165\n      tag_133\n      jump\t// in\n    tag_165:\n    tag_164:\n      mload(0x40)\n      swap1\n      dup1\n      dup3\n      mstore\n      dup1\n      0x20\n      mul\n      0x20\n      add\n      dup3\n      add\n      0x40\n      mstore\n      dup1\n      iszero\n      tag_166\n      jumpi\n      dup2\n      0x20\n      add\n      0x20\n      dup3\n      mul\n      dup1\n      calldatasize\n      dup4\n      calldatacopy\n      dup1\n      dup3\n      add\n      swap2\n      pop\n      pop\n      swap1\n      pop\n    tag_166:\n      pop\n        /* \"SuperBoInuStaking.sol\":3841:3892  address[] memory topAddresses = new address[](topN) */\n      swap1\n      pop\n        /* \"SuperBoInuStaking.sol\":3903:3930  uint256[] memory topAmounts */\n      0x00\n        /* \"SuperBoInuStaking.sol\":3947:3951  topN */\n      dup7\n        /* \"SuperBoInuStaking.sol\":3933:3952  new uint256[](topN) */\n      0xffffffffffffffff\n      dup2\n      gt\n      iszero\n      tag_167\n      jumpi\n      tag_168\n      tag_133\n      jump\t// in\n    tag_168:\n    tag_167:\n      mload(0x40)\n      swap1\n      dup1\n      dup3\n      mstore\n      dup1\n      0x20\n      mul\n      0x20\n      add\n      dup3\n      add\n      0x40\n      mstore\n      dup1\n      iszero\n      tag_169\n      jumpi\n      dup2\n      0x20\n      add\n      0x20\n      dup3\n      mul\n      dup1\n      calldatasize\n      dup4\n      calldatacopy\n      dup1\n      dup3\n      add\n      swap2\n      pop\n      pop\n      swap1\n      pop\n    tag_169:\n      pop\n        /* \"SuperBoInuStaking.sol\":3903:3952  uint256[] memory topAmounts = new uint256[](topN) */\n      swap1\n      pop\n        /* \"SuperBoInuStaking.sol\":3968:3977  uint256 i */\n      0x00\n        /* \"SuperBoInuStaking.sol\":3980:3981  0 */\n      0x00\n        /* \"SuperBoInuStaking.sol\":3968:3981  uint256 i = 0 */\n      swap1\n      pop\n        /* \"SuperBoInuStaking.sol\":3963:4117  for (uint256 i = 0; i < topN; i++) {... */\n    tag_170:\n        /* \"SuperBoInuStaking.sol\":3987:3991  topN */\n      dup8\n        /* \"SuperBoInuStaking.sol\":3983:3984  i */\n      dup2\n        /* \"SuperBoInuStaking.sol\":3983:3991  i < topN */\n      lt\n        /* \"SuperBoInuStaking.sol\":3963:4117  for (uint256 i = 0; i < topN; i++) {... */\n      iszero\n      tag_171\n      jumpi\n        /* \"SuperBoInuStaking.sol\":4031:4042  tempStakers */\n      dup4\n        /* \"SuperBoInuStaking.sol\":4043:4044  i */\n      dup2\n        /* \"SuperBoInuStaking.sol\":4031:4045  tempStakers[i] */\n      dup2\n      mload\n      dup2\n      lt\n      tag_173\n      jumpi\n      tag_174\n      tag_140\n      jump\t// in\n    tag_174:\n    tag_173:\n      0x20\n      mul\n      0x20\n      add\n      add\n      mload\n        /* \"SuperBoInuStaking.sol\":4013:4025  topAddresses */\n      dup4\n        /* \"SuperBoInuStaking.sol\":4026:4027  i */\n      dup3\n        /* \"SuperBoInuStaking.sol\":4013:4028  topAddresses[i] */\n      dup2\n      mload\n      dup2\n      lt\n      tag_175\n      jumpi\n      tag_176\n      tag_140\n      jump\t// in\n    tag_176:\n    tag_175:\n      0x20\n      mul\n      0x20\n      add\n      add\n        /* \"SuperBoInuStaking.sol\":4013:4045  topAddresses[i] = tempStakers[i] */\n      swap1\n      0xffffffffffffffffffffffffffffffffffffffff\n      and\n      swap1\n      dup2\n      0xffffffffffffffffffffffffffffffffffffffff\n      and\n      dup2\n      mstore\n      pop\n      pop\n        /* \"SuperBoInuStaking.sol\":4076:4082  stakes */\n      0x03\n        /* \"SuperBoInuStaking.sol\":4076:4098  stakes[tempStakers[i]] */\n      0x00\n        /* \"SuperBoInuStaking.sol\":4083:4094  tempStakers */\n      dup6\n        /* \"SuperBoInuStaking.sol\":4095:4096  i */\n      dup4\n        /* \"SuperBoInuStaking.sol\":4083:4097  tempStakers[i] */\n      dup2\n      mload\n      dup2\n      lt\n      tag_177\n      jumpi\n      tag_178\n      tag_140\n      jump\t// in\n    tag_178:\n    tag_177:\n      0x20\n      mul\n      0x20\n      add\n      add\n      mload\n        /* \"SuperBoInuStaking.sol\":4076:4098  stakes[tempStakers[i]] */\n      0xffffffffffffffffffffffffffffffffffffffff\n      and\n      0xffffffffffffffffffffffffffffffffffffffff\n      and\n      dup2\n      mstore\n      0x20\n      add\n      swap1\n      dup2\n      mstore\n      0x20\n      add\n      0x00\n      keccak256\n        /* \"SuperBoInuStaking.sol\":4076:4105  stakes[tempStakers[i]].amount */\n      0x00\n      add\n      sload\n        /* \"SuperBoInuStaking.sol\":4060:4070  topAmounts */\n      dup3\n        /* \"SuperBoInuStaking.sol\":4071:4072  i */\n      dup3\n        /* \"SuperBoInuStaking.sol\":4060:4073  topAmounts[i] */\n      dup2\n      mload\n      dup2\n      lt\n      tag_179\n      jumpi\n      tag_180\n      tag_140\n      jump\t// in\n    tag_180:\n    tag_179:\n      0x20\n      mul\n      0x20\n      add\n      add\n        /* \"SuperBoInuStaking.sol\":4060:4105  topAmounts[i] = stakes[tempStakers[i]].amount */\n      dup2\n      dup2\n      mstore\n      pop\n      pop\n        /* \"SuperBoInuStaking.sol\":3993:3996  i++ */\n      dup1\n      dup1\n      0x01\n      add\n      swap2\n      pop\n      pop\n        /* \"SuperBoInuStaking.sol\":3963:4117  for (uint256 i = 0; i < topN; i++) {... */\n      jump(tag_170)\n    tag_171:\n      pop\n        /* \"SuperBoInuStaking.sol\":4137:4149  topAddresses */\n      dup2\n        /* \"SuperBoInuStaking.sol\":4151:4161  topAmounts */\n      dup2\n        /* \"SuperBoInuStaking.sol\":4129:4162  return (topAddresses, topAmounts) */\n      swap6\n      pop\n      swap6\n      pop\n      pop\n      pop\n      pop\n      pop\n        /* \"SuperBoInuStaking.sol\":2883:4170  function getTopStakers(uint256 topN) external view returns (address[] memory, uint256[] memory) {... */\n      swap2\n      pop\n      swap2\n      jump\t// out\n        /* \"SuperBoInuStaking.sol\":2364:2726  function calculateReward(address user) public view returns (uint256) {... */\n    tag_62:\n        /* \"SuperBoInuStaking.sol\":2424:2431  uint256 */\n      0x00\n        /* \"SuperBoInuStaking.sol\":2444:2467  Stake storage userStake */\n      0x00\n        /* \"SuperBoInuStaking.sol\":2470:2476  stakes */\n      0x03\n        /* \"SuperBoInuStaking.sol\":2470:2482  stakes[user] */\n      0x00\n        /* \"SuperBoInuStaking.sol\":2477:2481  user */\n      dup5\n        /* \"SuperBoInuStaking.sol\":2470:2482  stakes[user] */\n      0xffffffffffffffffffffffffffffffffffffffff\n      and\n      0xffffffffffffffffffffffffffffffffffffffff\n      and\n      dup2\n      mstore\n      0x20\n      add\n      swap1\n      dup2\n      mstore\n      0x20\n      add\n      0x00\n      keccak256\n        /* \"SuperBoInuStaking.sol\":2444:2482  Stake storage userStake = stakes[user] */\n      swap1\n      pop\n        /* \"SuperBoInuStaking.sol\":2517:2518  0 */\n      0x00\n        /* \"SuperBoInuStaking.sol\":2497:2506  userStake */\n      dup2\n        /* \"SuperBoInuStaking.sol\":2497:2513  userStake.amount */\n      0x00\n      add\n      sload\n        /* \"SuperBoInuStaking.sol\":2497:2518  userStake.amount == 0 */\n      sub\n        /* \"SuperBoInuStaking.sol\":2493:2528  if (userStake.amount == 0) return 0 */\n      tag_182\n      jumpi\n        /* \"SuperBoInuStaking.sol\":2527:2528  0 */\n      0x00\n        /* \"SuperBoInuStaking.sol\":2520:2528  return 0 */\n      swap2\n      pop\n      pop\n      jump(tag_181)\n        /* \"SuperBoInuStaking.sol\":2493:2528  if (userStake.amount == 0) return 0 */\n    tag_182:\n        /* \"SuperBoInuStaking.sol\":2541:2557  uint256 duration */\n      0x00\n        /* \"SuperBoInuStaking.sol\":2578:2587  userStake */\n      dup2\n        /* \"SuperBoInuStaking.sol\":2578:2597  userStake.startTime */\n      0x01\n      add\n      sload\n        /* \"SuperBoInuStaking.sol\":2560:2575  block.timestamp */\n      timestamp\n        /* \"SuperBoInuStaking.sol\":2560:2597  block.timestamp - userStake.startTime */\n      tag_183\n      swap2\n      swap1\n      tag_84\n      jump\t// in\n    tag_183:\n        /* \"SuperBoInuStaking.sol\":2541:2597  uint256 duration = block.timestamp - userStake.startTime */\n      swap1\n      pop\n        /* \"SuperBoInuStaking.sol\":2608:2622  uint256 reward */\n      0x00\n        /* \"SuperBoInuStaking.sol\":349:357  365 days */\n      0x01e13380\n        /* \"SuperBoInuStaking.sol\":2671:2674  100 */\n      0x64\n        /* \"SuperBoInuStaking.sol\":2671:2693  100 * SECONDS_PER_YEAR */\n      tag_184\n      swap2\n      swap1\n      tag_88\n      jump\t// in\n    tag_184:\n        /* \"SuperBoInuStaking.sol\":2658:2666  duration */\n      dup3\n        /* \"SuperBoInuStaking.sol\":2645:2655  rewardRate */\n      sload(0x02)\n        /* \"SuperBoInuStaking.sol\":2626:2635  userStake */\n      dup6\n        /* \"SuperBoInuStaking.sol\":2626:2642  userStake.amount */\n      0x00\n      add\n      sload\n        /* \"SuperBoInuStaking.sol\":2626:2655  userStake.amount * rewardRate */\n      tag_185\n      swap2\n      swap1\n      tag_88\n      jump\t// in\n    tag_185:\n        /* \"SuperBoInuStaking.sol\":2626:2666  userStake.amount * rewardRate * duration */\n      tag_186\n      swap2\n      swap1\n      tag_88\n      jump\t// in\n    tag_186:\n        /* \"SuperBoInuStaking.sol\":2625:2694  (userStake.amount * rewardRate * duration) / (100 * SECONDS_PER_YEAR) */\n      tag_187\n      swap2\n      swap1\n      tag_90\n      jump\t// in\n    tag_187:\n        /* \"SuperBoInuStaking.sol\":2608:2694  uint256 reward = (userStake.amount * rewardRate * duration) / (100 * SECONDS_PER_YEAR) */\n      swap1\n      pop\n        /* \"SuperBoInuStaking.sol\":2712:2718  reward */\n      dup1\n        /* \"SuperBoInuStaking.sol\":2705:2718  return reward */\n      swap4\n      pop\n      pop\n      pop\n      pop\n        /* \"SuperBoInuStaking.sol\":2364:2726  function calculateReward(address user) public view returns (uint256) {... */\n    tag_181:\n      swap2\n      swap1\n      pop\n      jump\t// out\n        /* \"SuperBoInuStaking.sol\":306:357  uint256 public constant SECONDS_PER_YEAR = 365 days */\n    tag_65:\n        /* \"SuperBoInuStaking.sol\":349:357  365 days */\n      0x01e13380\n        /* \"SuperBoInuStaking.sol\":306:357  uint256 public constant SECONDS_PER_YEAR = 365 days */\n      dup2\n      jump\t// out\n        /* \"@openzeppelin/contracts/access/Ownable.sol\":2543:2758  function transferOwnership(address newOwner) public virtual onlyOwner {... */\n    tag_69:\n        /* \"@openzeppelin/contracts/access/Ownable.sol\":1531:1544  _checkOwner() */\n      tag_189\n        /* \"@openzeppelin/contracts/access/Ownable.sol\":1531:1542  _checkOwner */\n      tag_107\n        /* \"@openzeppelin/contracts/access/Ownable.sol\":1531:1544  _checkOwner() */\n      jump\t// in\n    tag_189:\n        /* \"@openzeppelin/contracts/access/Ownable.sol\":2647:2648  0 */\n      0x00\n        /* \"@openzeppelin/contracts/access/Ownable.sol\":2627:2649  newOwner == address(0) */\n      0xffffffffffffffffffffffffffffffffffffffff\n      and\n        /* \"@openzeppelin/contracts/access/Ownable.sol\":2627:2635  newOwner */\n      dup2\n        /* \"@openzeppelin/contracts/access/Ownable.sol\":2627:2649  newOwner == address(0) */\n      0xffffffffffffffffffffffffffffffffffffffff\n      and\n      sub\n        /* \"@openzeppelin/contracts/access/Ownable.sol\":2623:2714  if (newOwner == address(0)) {... */\n      tag_191\n      jumpi\n        /* \"@openzeppelin/contracts/access/Ownable.sol\":2700:2701  0 */\n      0x00\n        /* \"@openzeppelin/contracts/access/Ownable.sol\":2672:2703  OwnableInvalidOwner(address(0)) */\n      mload(0x40)\n      0x1e4fbdf700000000000000000000000000000000000000000000000000000000\n      dup2\n      mstore\n      0x04\n      add\n      tag_192\n      swap2\n      swap1\n      tag_47\n      jump\t// in\n    tag_192:\n      mload(0x40)\n      dup1\n      swap2\n      sub\n      swap1\n      revert\n        /* \"@openzeppelin/contracts/access/Ownable.sol\":2623:2714  if (newOwner == address(0)) {... */\n    tag_191:\n        /* \"@openzeppelin/contracts/access/Ownable.sol\":2723:2751  _transferOwnership(newOwner) */\n      tag_193\n        /* \"@openzeppelin/contracts/access/Ownable.sol\":2742:2750  newOwner */\n      dup2\n        /* \"@openzeppelin/contracts/access/Ownable.sol\":2723:2741  _transferOwnership */\n      tag_110\n        /* \"@openzeppelin/contracts/access/Ownable.sol\":2723:2751  _transferOwnership(newOwner) */\n      jump\t// in\n    tag_193:\n        /* \"@openzeppelin/contracts/access/Ownable.sol\":2543:2758  function transferOwnership(address newOwner) public virtual onlyOwner {... */\n      pop\n      jump\t// out\n        /* \"SuperBoInuStaking.sol\":220:239  IERC20 public token */\n    tag_71:\n      0x01\n      0x00\n      swap1\n      sload\n      swap1\n      0x0100\n      exp\n      swap1\n      div\n      0xffffffffffffffffffffffffffffffffffffffff\n      and\n      dup2\n      jump\t// out\n        /* \"SuperBoInuStaking.sol\":602:626  address[] public stakers */\n    tag_76:\n      0x04\n      dup2\n      dup2\n      sload\n      dup2\n      lt\n      tag_194\n      jumpi\n      0x00\n      dup1\n      revert\n    tag_194:\n      swap1\n      0x00\n      mstore\n      keccak256(0x00, 0x20)\n      add\n      0x00\n      swap2\n      pop\n      sload\n      swap1\n      0x0100\n      exp\n      swap1\n      div\n      0xffffffffffffffffffffffffffffffffffffffff\n      and\n      dup2\n      jump\t// out\n        /* \"@openzeppelin/contracts/access/Ownable.sol\":1796:1958  function _checkOwner() internal view virtual {... */\n    tag_107:\n        /* \"@openzeppelin/contracts/access/Ownable.sol\":1866:1878  _msgSender() */\n      tag_197\n        /* \"@openzeppelin/contracts/access/Ownable.sol\":1866:1876  _msgSender */\n      tag_198\n        /* \"@openzeppelin/contracts/access/Ownable.sol\":1866:1878  _msgSender() */\n      jump\t// in\n    tag_197:\n        /* \"@openzeppelin/contracts/access/Ownable.sol\":1855:1878  owner() != _msgSender() */\n      0xffffffffffffffffffffffffffffffffffffffff\n      and\n        /* \"@openzeppelin/contracts/access/Ownable.sol\":1855:1862  owner() */\n      tag_199\n        /* \"@openzeppelin/contracts/access/Ownable.sol\":1855:1860  owner */\n      tag_45\n        /* \"@openzeppelin/contracts/access/Ownable.sol\":1855:1862  owner() */\n      jump\t// in\n    tag_199:\n        /* \"@openzeppelin/contracts/access/Ownable.sol\":1855:1878  owner() != _msgSender() */\n      0xffffffffffffffffffffffffffffffffffffffff\n      and\n      eq\n        /* \"@openzeppelin/contracts/access/Ownable.sol\":1851:1952  if (owner() != _msgSender()) {... */\n      tag_200\n      jumpi\n        /* \"@openzeppelin/contracts/access/Ownable.sol\":1928:1940  _msgSender() */\n      tag_201\n        /* \"@openzeppelin/contracts/access/Ownable.sol\":1928:1938  _msgSender */\n      tag_198\n        /* \"@openzeppelin/contracts/access/Ownable.sol\":1928:1940  _msgSender() */\n      jump\t// in\n    tag_201:\n        /* \"@openzeppelin/contracts/access/Ownable.sol\":1901:1941  OwnableUnauthorizedAccount(_msgSender()) */\n      mload(0x40)\n      0x118cdaa700000000000000000000000000000000000000000000000000000000\n      dup2\n      mstore\n      0x04\n      add\n      tag_202\n      swap2\n      swap1\n      tag_47\n      jump\t// in\n    tag_202:\n      mload(0x40)\n      dup1\n      swap2\n      sub\n      swap1\n      revert\n        /* \"@openzeppelin/contracts/access/Ownable.sol\":1851:1952  if (owner() != _msgSender()) {... */\n    tag_200:\n        /* \"@openzeppelin/contracts/access/Ownable.sol\":1796:1958  function _checkOwner() internal view virtual {... */\n      jump\t// out\n        /* \"@openzeppelin/contracts/access/Ownable.sol\":2912:3099  function _transferOwnership(address newOwner) internal virtual {... */\n    tag_110:\n        /* \"@openzeppelin/contracts/access/Ownable.sol\":2985:3001  address oldOwner */\n      0x00\n        /* \"@openzeppelin/contracts/access/Ownable.sol\":3004:3010  _owner */\n      0x00\n      0x00\n      swap1\n      sload\n      swap1\n      0x0100\n      exp\n      swap1\n      div\n      0xffffffffffffffffffffffffffffffffffffffff\n      and\n        /* \"@openzeppelin/contracts/access/Ownable.sol\":2985:3010  address oldOwner = _owner */\n      swap1\n      pop\n        /* \"@openzeppelin/contracts/access/Ownable.sol\":3029:3037  newOwner */\n      dup2\n        /* \"@openzeppelin/contracts/access/Ownable.sol\":3020:3026  _owner */\n      0x00\n      0x00\n        /* \"@openzeppelin/contracts/access/Ownable.sol\":3020:3037  _owner = newOwner */\n      0x0100\n      exp\n      dup2\n      sload\n      dup2\n      0xffffffffffffffffffffffffffffffffffffffff\n      mul\n      not\n      and\n      swap1\n      dup4\n      0xffffffffffffffffffffffffffffffffffffffff\n      and\n      mul\n      or\n      swap1\n      sstore\n      pop\n        /* \"@openzeppelin/contracts/access/Ownable.sol\":3083:3091  newOwner */\n      dup2\n        /* \"@openzeppelin/contracts/access/Ownable.sol\":3052:3092  OwnershipTransferred(oldOwner, newOwner) */\n      0xffffffffffffffffffffffffffffffffffffffff\n      and\n        /* \"@openzeppelin/contracts/access/Ownable.sol\":3073:3081  oldOwner */\n      dup2\n        /* \"@openzeppelin/contracts/access/Ownable.sol\":3052:3092  OwnershipTransferred(oldOwner, newOwner) */\n      0xffffffffffffffffffffffffffffffffffffffff\n      and\n      0x8be0079c531659141344cd1fd0a4f28419497f9722a3daafe3b4186f6b6457e0\n      mload(0x40)\n      mload(0x40)\n      dup1\n      swap2\n      sub\n      swap1\n      log3\n        /* \"@openzeppelin/contracts/access/Ownable.sol\":2975:3099  {... */\n      pop\n        /* \"@openzeppelin/contracts/access/Ownable.sol\":2912:3099  function _transferOwnership(address newOwner) internal virtual {... */\n      pop\n      jump\t// out\n        /* \"@openzeppelin/contracts/utils/Context.sol\":656:752  function _msgSender() internal view virtual returns (address) {... */\n    tag_198:\n        /* \"@openzeppelin/contracts/utils/Context.sol\":709:716  address */\n      0x00\n        /* \"@openzeppelin/contracts/utils/Context.sol\":735:745  msg.sender */\n      caller\n        /* \"@openzeppelin/contracts/utils/Context.sol\":728:745  return msg.sender */\n      swap1\n      pop\n        /* \"@openzeppelin/contracts/utils/Context.sol\":656:752  function _msgSender() internal view virtual returns (address) {... */\n      swap1\n      jump\t// out\n        /* \"#utility.yul\":88:205   */\n    tag_206:\n        /* \"#utility.yul\":197:198   */\n      0x00\n        /* \"#utility.yul\":194:195   */\n      0x00\n        /* \"#utility.yul\":187:199   */\n      revert\n        /* \"#utility.yul\":334:460   */\n    tag_208:\n        /* \"#utility.yul\":371:378   */\n      0x00\n        /* \"#utility.yul\":411:453   */\n      0xffffffffffffffffffffffffffffffffffffffff\n        /* \"#utility.yul\":404:409   */\n      dup3\n        /* \"#utility.yul\":400:454   */\n      and\n        /* \"#utility.yul\":389:454   */\n      swap1\n      pop\n        /* \"#utility.yul\":334:460   */\n      swap2\n      swap1\n      pop\n      jump\t// out\n        /* \"#utility.yul\":466:562   */\n    tag_209:\n        /* \"#utility.yul\":503:510   */\n      0x00\n        /* \"#utility.yul\":532:556   */\n      tag_254\n        /* \"#utility.yul\":550:555   */\n      dup3\n        /* \"#utility.yul\":532:556   */\n      tag_208\n      jump\t// in\n    tag_254:\n        /* \"#utility.yul\":521:556   */\n      swap1\n      pop\n        /* \"#utility.yul\":466:562   */\n      swap2\n      swap1\n      pop\n      jump\t// out\n        /* \"#utility.yul\":568:690   */\n    tag_210:\n        /* \"#utility.yul\":641:665   */\n      tag_256\n        /* \"#utility.yul\":659:664   */\n      dup2\n        /* \"#utility.yul\":641:665   */\n      tag_209\n      jump\t// in\n    tag_256:\n        /* \"#utility.yul\":634:639   */\n      dup2\n        /* \"#utility.yul\":631:666   */\n      eq\n        /* \"#utility.yul\":621:684   */\n      tag_257\n      jumpi\n        /* \"#utility.yul\":680:681   */\n      0x00\n        /* \"#utility.yul\":677:678   */\n      0x00\n        /* \"#utility.yul\":670:682   */\n      revert\n        /* \"#utility.yul\":621:684   */\n    tag_257:\n        /* \"#utility.yul\":568:690   */\n      pop\n      jump\t// out\n        /* \"#utility.yul\":696:835   */\n    tag_211:\n        /* \"#utility.yul\":742:747   */\n      0x00\n        /* \"#utility.yul\":780:786   */\n      dup2\n        /* \"#utility.yul\":767:787   */\n      calldataload\n        /* \"#utility.yul\":758:787   */\n      swap1\n      pop\n        /* \"#utility.yul\":796:829   */\n      tag_259\n        /* \"#utility.yul\":823:828   */\n      dup2\n        /* \"#utility.yul\":796:829   */\n      tag_210\n      jump\t// in\n    tag_259:\n        /* \"#utility.yul\":696:835   */\n      swap3\n      swap2\n      pop\n      pop\n      jump\t// out\n        /* \"#utility.yul\":841:1170   */\n    tag_24:\n        /* \"#utility.yul\":900:906   */\n      0x00\n        /* \"#utility.yul\":949:951   */\n      0x20\n        /* \"#utility.yul\":937:946   */\n      dup3\n        /* \"#utility.yul\":928:935   */\n      dup5\n        /* \"#utility.yul\":924:947   */\n      sub\n        /* \"#utility.yul\":920:952   */\n      slt\n        /* \"#utility.yul\":917:1036   */\n      iszero\n      tag_261\n      jumpi\n        /* \"#utility.yul\":955:1034   */\n      tag_262\n      tag_206\n      jump\t// in\n    tag_262:\n        /* \"#utility.yul\":917:1036   */\n    tag_261:\n        /* \"#utility.yul\":1075:1076   */\n      0x00\n        /* \"#utility.yul\":1100:1153   */\n      tag_263\n        /* \"#utility.yul\":1145:1152   */\n      dup5\n        /* \"#utility.yul\":1136:1142   */\n      dup3\n        /* \"#utility.yul\":1125:1134   */\n      dup6\n        /* \"#utility.yul\":1121:1143   */\n      add\n        /* \"#utility.yul\":1100:1153   */\n      tag_211\n      jump\t// in\n    tag_263:\n        /* \"#utility.yul\":1090:1153   */\n      swap2\n      pop\n        /* \"#utility.yul\":1046:1163   */\n      pop\n        /* \"#utility.yul\":841:1170   */\n      swap3\n      swap2\n      pop\n      pop\n      jump\t// out\n        /* \"#utility.yul\":1176:1253   */\n    tag_212:\n        /* \"#utility.yul\":1213:1220   */\n      0x00\n        /* \"#utility.yul\":1242:1247   */\n      dup2\n        /* \"#utility.yul\":1231:1247   */\n      swap1\n      pop\n        /* \"#utility.yul\":1176:1253   */\n      swap2\n      swap1\n      pop\n      jump\t// out\n        /* \"#utility.yul\":1259:1377   */\n    tag_213:\n        /* \"#utility.yul\":1346:1370   */\n      tag_266\n        /* \"#utility.yul\":1364:1369   */\n      dup2\n        /* \"#utility.yul\":1346:1370   */\n      tag_212\n      jump\t// in\n    tag_266:\n        /* \"#utility.yul\":1341:1344   */\n      dup3\n        /* \"#utility.yul\":1334:1371   */\n      mstore\n        /* \"#utility.yul\":1259:1377   */\n      pop\n      pop\n      jump\t// out\n        /* \"#utility.yul\":1383:1715   */\n    tag_27:\n        /* \"#utility.yul\":1504:1508   */\n      0x00\n        /* \"#utility.yul\":1542:1544   */\n      0x40\n        /* \"#utility.yul\":1531:1540   */\n      dup3\n        /* \"#utility.yul\":1527:1545   */\n      add\n        /* \"#utility.yul\":1519:1545   */\n      swap1\n      pop\n        /* \"#utility.yul\":1555:1626   */\n      tag_268\n        /* \"#utility.yul\":1623:1624   */\n      0x00\n        /* \"#utility.yul\":1612:1621   */\n      dup4\n        /* \"#utility.yul\":1608:1625   */\n      add\n        /* \"#utility.yul\":1599:1605   */\n      dup6\n        /* \"#utility.yul\":1555:1626   */\n      tag_213\n      jump\t// in\n    tag_268:\n        /* \"#utility.yul\":1636:1708   */\n      tag_269\n        /* \"#utility.yul\":1704:1706   */\n      0x20\n        /* \"#utility.yul\":1693:1702   */\n      dup4\n        /* \"#utility.yul\":1689:1707   */\n      add\n        /* \"#utility.yul\":1680:1686   */\n      dup5\n        /* \"#utility.yul\":1636:1708   */\n      tag_213\n      jump\t// in\n    tag_269:\n        /* \"#utility.yul\":1383:1715   */\n      swap4\n      swap3\n      pop\n      pop\n      pop\n      jump\t// out\n        /* \"#utility.yul\":1721:1943   */\n    tag_31:\n        /* \"#utility.yul\":1814:1818   */\n      0x00\n        /* \"#utility.yul\":1852:1854   */\n      0x20\n        /* \"#utility.yul\":1841:1850   */\n      dup3\n        /* \"#utility.yul\":1837:1855   */\n      add\n        /* \"#utility.yul\":1829:1855   */\n      swap1\n      pop\n        /* \"#utility.yul\":1865:1936   */\n      tag_271\n        /* \"#utility.yul\":1933:1934   */\n      0x00\n        /* \"#utility.yul\":1922:1931   */\n      dup4\n        /* \"#utility.yul\":1918:1935   */\n      add\n        /* \"#utility.yul\":1909:1915   */\n      dup5\n        /* \"#utility.yul\":1865:1936   */\n      tag_213\n      jump\t// in\n    tag_271:\n        /* \"#utility.yul\":1721:1943   */\n      swap3\n      swap2\n      pop\n      pop\n      jump\t// out\n        /* \"#utility.yul\":1949:2067   */\n    tag_214:\n        /* \"#utility.yul\":2036:2060   */\n      tag_273\n        /* \"#utility.yul\":2054:2059   */\n      dup2\n        /* \"#utility.yul\":2036:2060   */\n      tag_209\n      jump\t// in\n    tag_273:\n        /* \"#utility.yul\":2031:2034   */\n      dup3\n        /* \"#utility.yul\":2024:2061   */\n      mstore\n        /* \"#utility.yul\":1949:2067   */\n      pop\n      pop\n      jump\t// out\n        /* \"#utility.yul\":2073:2295   */\n    tag_47:\n        /* \"#utility.yul\":2166:2170   */\n      0x00\n        /* \"#utility.yul\":2204:2206   */\n      0x20\n        /* \"#utility.yul\":2193:2202   */\n      dup3\n        /* \"#utility.yul\":2189:2207   */\n      add\n        /* \"#utility.yul\":2181:2207   */\n      swap1\n      pop\n        /* \"#utility.yul\":2217:2288   */\n      tag_275\n        /* \"#utility.yul\":2285:2286   */\n      0x00\n        /* \"#utility.yul\":2274:2283   */\n      dup4\n        /* \"#utility.yul\":2270:2287   */\n      add\n        /* \"#utility.yul\":2261:2267   */\n      dup5\n        /* \"#utility.yul\":2217:2288   */\n      tag_214\n      jump\t// in\n    tag_275:\n        /* \"#utility.yul\":2073:2295   */\n      swap3\n      swap2\n      pop\n      pop\n      jump\t// out\n        /* \"#utility.yul\":2301:2423   */\n    tag_215:\n        /* \"#utility.yul\":2374:2398   */\n      tag_277\n        /* \"#utility.yul\":2392:2397   */\n      dup2\n        /* \"#utility.yul\":2374:2398   */\n      tag_212\n      jump\t// in\n    tag_277:\n        /* \"#utility.yul\":2367:2372   */\n      dup2\n        /* \"#utility.yul\":2364:2399   */\n      eq\n        /* \"#utility.yul\":2354:2417   */\n      tag_278\n      jumpi\n        /* \"#utility.yul\":2413:2414   */\n      0x00\n        /* \"#utility.yul\":2410:2411   */\n      0x00\n        /* \"#utility.yul\":2403:2415   */\n      revert\n        /* \"#utility.yul\":2354:2417   */\n    tag_278:\n        /* \"#utility.yul\":2301:2423   */\n      pop\n      jump\t// out\n        /* \"#utility.yul\":2429:2568   */\n    tag_216:\n        /* \"#utility.yul\":2475:2480   */\n      0x00\n        /* \"#utility.yul\":2513:2519   */\n      dup2\n        /* \"#utility.yul\":2500:2520   */\n      calldataload\n        /* \"#utility.yul\":2491:2520   */\n      swap1\n      pop\n        /* \"#utility.yul\":2529:2562   */\n      tag_280\n        /* \"#utility.yul\":2556:2561   */\n      dup2\n        /* \"#utility.yul\":2529:2562   */\n      tag_215\n      jump\t// in\n    tag_280:\n        /* \"#utility.yul\":2429:2568   */\n      swap3\n      swap2\n      pop\n      pop\n      jump\t// out\n        /* \"#utility.yul\":2574:2903   */\n    tag_50:\n        /* \"#utility.yul\":2633:2639   */\n      0x00\n        /* \"#utility.yul\":2682:2684   */\n      0x20\n        /* \"#utility.yul\":2670:2679   */\n      dup3\n        /* \"#utility.yul\":2661:2668   */\n      dup5\n        /* \"#utility.yul\":2657:2680   */\n      sub\n        /* \"#utility.yul\":2653:2685   */\n      slt\n        /* \"#utility.yul\":2650:2769   */\n      iszero\n      tag_282\n      jumpi\n        /* \"#utility.yul\":2688:2767   */\n      tag_283\n      tag_206\n      jump\t// in\n    tag_283:\n        /* \"#utility.yul\":2650:2769   */\n    tag_282:\n        /* \"#utility.yul\":2808:2809   */\n      0x00\n        /* \"#utility.yul\":2833:2886   */\n      tag_284\n        /* \"#utility.yul\":2878:2885   */\n      dup5\n        /* \"#utility.yul\":2869:2875   */\n      dup3\n        /* \"#utility.yul\":2858:2867   */\n      dup6\n        /* \"#utility.yul\":2854:2876   */\n      add\n        /* \"#utility.yul\":2833:2886   */\n      tag_216\n      jump\t// in\n    tag_284:\n        /* \"#utility.yul\":2823:2886   */\n      swap2\n      pop\n        /* \"#utility.yul\":2779:2896   */\n      pop\n        /* \"#utility.yul\":2574:2903   */\n      swap3\n      swap2\n      pop\n      pop\n      jump\t// out\n        /* \"#utility.yul\":2909:3023   */\n    tag_217:\n        /* \"#utility.yul\":2976:2982   */\n      0x00\n        /* \"#utility.yul\":3010:3015   */\n      dup2\n        /* \"#utility.yul\":3004:3016   */\n      mload\n        /* \"#utility.yul\":2994:3016   */\n      swap1\n      pop\n        /* \"#utility.yul\":2909:3023   */\n      swap2\n      swap1\n      pop\n      jump\t// out\n        /* \"#utility.yul\":3029:3213   */\n    tag_218:\n        /* \"#utility.yul\":3128:3139   */\n      0x00\n        /* \"#utility.yul\":3162:3168   */\n      dup3\n        /* \"#utility.yul\":3157:3160   */\n      dup3\n        /* \"#utility.yul\":3150:3169   */\n      mstore\n        /* \"#utility.yul\":3202:3206   */\n      0x20\n        /* \"#utility.yul\":3197:3200   */\n      dup3\n        /* \"#utility.yul\":3193:3207   */\n      add\n        /* \"#utility.yul\":3178:3207   */\n      swap1\n      pop\n        /* \"#utility.yul\":3029:3213   */\n      swap3\n      swap2\n      pop\n      pop\n      jump\t// out\n        /* \"#utility.yul\":3219:3351   */\n    tag_219:\n        /* \"#utility.yul\":3286:3290   */\n      0x00\n        /* \"#utility.yul\":3309:3312   */\n      dup2\n        /* \"#utility.yul\":3301:3312   */\n      swap1\n      pop\n        /* \"#utility.yul\":3339:3343   */\n      0x20\n        /* \"#utility.yul\":3334:3337   */\n      dup3\n        /* \"#utility.yul\":3330:3344   */\n      add\n        /* \"#utility.yul\":3322:3344   */\n      swap1\n      pop\n        /* \"#utility.yul\":3219:3351   */\n      swap2\n      swap1\n      pop\n      jump\t// out\n        /* \"#utility.yul\":3357:3465   */\n    tag_220:\n        /* \"#utility.yul\":3434:3458   */\n      tag_289\n        /* \"#utility.yul\":3452:3457   */\n      dup2\n        /* \"#utility.yul\":3434:3458   */\n      tag_209\n      jump\t// in\n    tag_289:\n        /* \"#utility.yul\":3429:3432   */\n      dup3\n        /* \"#utility.yul\":3422:3459   */\n      mstore\n        /* \"#utility.yul\":3357:3465   */\n      pop\n      pop\n      jump\t// out\n        /* \"#utility.yul\":3471:3650   */\n    tag_221:\n        /* \"#utility.yul\":3540:3550   */\n      0x00\n        /* \"#utility.yul\":3561:3607   */\n      tag_291\n        /* \"#utility.yul\":3603:3606   */\n      dup4\n        /* \"#utility.yul\":3595:3601   */\n      dup4\n        /* \"#utility.yul\":3561:3607   */\n      tag_220\n      jump\t// in\n    tag_291:\n        /* \"#utility.yul\":3639:3643   */\n      0x20\n        /* \"#utility.yul\":3634:3637   */\n      dup4\n        /* \"#utility.yul\":3630:3644   */\n      add\n        /* \"#utility.yul\":3616:3644   */\n      swap1\n      pop\n        /* \"#utility.yul\":3471:3650   */\n      swap3\n      swap2\n      pop\n      pop\n      jump\t// out\n        /* \"#utility.yul\":3656:3769   */\n    tag_222:\n        /* \"#utility.yul\":3726:3730   */\n      0x00\n        /* \"#utility.yul\":3758:3762   */\n      0x20\n        /* \"#utility.yul\":3753:3756   */\n      dup3\n        /* \"#utility.yul\":3749:3763   */\n      add\n        /* \"#utility.yul\":3741:3763   */\n      swap1\n      pop\n        /* \"#utility.yul\":3656:3769   */\n      swap2\n      swap1\n      pop\n      jump\t// out\n        /* \"#utility.yul\":3805:4537   */\n    tag_223:\n        /* \"#utility.yul\":3924:3927   */\n      0x00\n        /* \"#utility.yul\":3953:4007   */\n      tag_294\n        /* \"#utility.yul\":4001:4006   */\n      dup3\n        /* \"#utility.yul\":3953:4007   */\n      tag_217\n      jump\t// in\n    tag_294:\n        /* \"#utility.yul\":4023:4109   */\n      tag_295\n        /* \"#utility.yul\":4102:4108   */\n      dup2\n        /* \"#utility.yul\":4097:4100   */\n      dup6\n        /* \"#utility.yul\":4023:4109   */\n      tag_218\n      jump\t// in\n    tag_295:\n        /* \"#utility.yul\":4016:4109   */\n      swap4\n      pop\n        /* \"#utility.yul\":4133:4189   */\n      tag_296\n        /* \"#utility.yul\":4183:4188   */\n      dup4\n        /* \"#utility.yul\":4133:4189   */\n      tag_219\n      jump\t// in\n    tag_296:\n        /* \"#utility.yul\":4212:4219   */\n      dup1\n        /* \"#utility.yul\":4243:4244   */\n      0x00\n        /* \"#utility.yul\":4228:4512   */\n    tag_297:\n        /* \"#utility.yul\":4253:4259   */\n      dup4\n        /* \"#utility.yul\":4250:4251   */\n      dup2\n        /* \"#utility.yul\":4247:4260   */\n      lt\n        /* \"#utility.yul\":4228:4512   */\n      iszero\n      tag_299\n      jumpi\n        /* \"#utility.yul\":4329:4335   */\n      dup2\n        /* \"#utility.yul\":4323:4336   */\n      mload\n        /* \"#utility.yul\":4356:4419   */\n      tag_300\n        /* \"#utility.yul\":4415:4418   */\n      dup9\n        /* \"#utility.yul\":4400:4413   */\n      dup3\n        /* \"#utility.yul\":4356:4419   */\n      tag_221\n      jump\t// in\n    tag_300:\n        /* \"#utility.yul\":4349:4419   */\n      swap8\n      pop\n        /* \"#utility.yul\":4442:4502   */\n      tag_301\n        /* \"#utility.yul\":4495:4501   */\n      dup4\n        /* \"#utility.yul\":4442:4502   */\n      tag_222\n      jump\t// in\n    tag_301:\n        /* \"#utility.yul\":4432:4502   */\n      swap3\n      pop\n        /* \"#utility.yul\":4288:4512   */\n      pop\n        /* \"#utility.yul\":4275:4276   */\n      0x01\n        /* \"#utility.yul\":4272:4273   */\n      dup2\n        /* \"#utility.yul\":4268:4277   */\n      add\n        /* \"#utility.yul\":4263:4277   */\n      swap1\n      pop\n        /* \"#utility.yul\":4228:4512   */\n      jump(tag_297)\n    tag_299:\n        /* \"#utility.yul\":4232:4246   */\n      pop\n        /* \"#utility.yul\":4528:4531   */\n      dup6\n        /* \"#utility.yul\":4521:4531   */\n      swap4\n      pop\n        /* \"#utility.yul\":3929:4537   */\n      pop\n      pop\n      pop\n        /* \"#utility.yul\":3805:4537   */\n      swap3\n      swap2\n      pop\n      pop\n      jump\t// out\n        /* \"#utility.yul\":4543:4657   */\n    tag_224:\n        /* \"#utility.yul\":4610:4616   */\n      0x00\n        /* \"#utility.yul\":4644:4649   */\n      dup2\n        /* \"#utility.yul\":4638:4650   */\n      mload\n        /* \"#utility.yul\":4628:4650   */\n      swap1\n      pop\n        /* \"#utility.yul\":4543:4657   */\n      swap2\n      swap1\n      pop\n      jump\t// out\n        /* \"#utility.yul\":4663:4847   */\n    tag_225:\n        /* \"#utility.yul\":4762:4773   */\n      0x00\n        /* \"#utility.yul\":4796:4802   */\n      dup3\n        /* \"#utility.yul\":4791:4794   */\n      dup3\n        /* \"#utility.yul\":4784:4803   */\n      mstore\n        /* \"#utility.yul\":4836:4840   */\n      0x20\n        /* \"#utility.yul\":4831:4834   */\n      dup3\n        /* \"#utility.yul\":4827:4841   */\n      add\n        /* \"#utility.yul\":4812:4841   */\n      swap1\n      pop\n        /* \"#utility.yul\":4663:4847   */\n      swap3\n      swap2\n      pop\n      pop\n      jump\t// out\n        /* \"#utility.yul\":4853:4985   */\n    tag_226:\n        /* \"#utility.yul\":4920:4924   */\n      0x00\n        /* \"#utility.yul\":4943:4946   */\n      dup2\n        /* \"#utility.yul\":4935:4946   */\n      swap1\n      pop\n        /* \"#utility.yul\":4973:4977   */\n      0x20\n        /* \"#utility.yul\":4968:4971   */\n      dup3\n        /* \"#utility.yul\":4964:4978   */\n      add\n        /* \"#utility.yul\":4956:4978   */\n      swap1\n      pop\n        /* \"#utility.yul\":4853:4985   */\n      swap2\n      swap1\n      pop\n      jump\t// out\n        /* \"#utility.yul\":4991:5099   */\n    tag_227:\n        /* \"#utility.yul\":5068:5092   */\n      tag_306\n        /* \"#utility.yul\":5086:5091   */\n      dup2\n        /* \"#utility.yul\":5068:5092   */\n      tag_212\n      jump\t// in\n    tag_306:\n        /* \"#utility.yul\":5063:5066   */\n      dup3\n        /* \"#utility.yul\":5056:5093   */\n      mstore\n        /* \"#utility.yul\":4991:5099   */\n      pop\n      pop\n      jump\t// out\n        /* \"#utility.yul\":5105:5284   */\n    tag_228:\n        /* \"#utility.yul\":5174:5184   */\n      0x00\n        /* \"#utility.yul\":5195:5241   */\n      tag_308\n        /* \"#utility.yul\":5237:5240   */\n      dup4\n        /* \"#utility.yul\":5229:5235   */\n      dup4\n        /* \"#utility.yul\":5195:5241   */\n      tag_227\n      jump\t// in\n    tag_308:\n        /* \"#utility.yul\":5273:5277   */\n      0x20\n        /* \"#utility.yul\":5268:5271   */\n      dup4\n        /* \"#utility.yul\":5264:5278   */\n      add\n        /* \"#utility.yul\":5250:5278   */\n      swap1\n      pop\n        /* \"#utility.yul\":5105:5284   */\n      swap3\n      swap2\n      pop\n      pop\n      jump\t// out\n        /* \"#utility.yul\":5290:5403   */\n    tag_229:\n        /* \"#utility.yul\":5360:5364   */\n      0x00\n        /* \"#utility.yul\":5392:5396   */\n      0x20\n        /* \"#utility.yul\":5387:5390   */\n      dup3\n        /* \"#utility.yul\":5383:5397   */\n      add\n        /* \"#utility.yul\":5375:5397   */\n      swap1\n      pop\n        /* \"#utility.yul\":5290:5403   */\n      swap2\n      swap1\n      pop\n      jump\t// out\n        /* \"#utility.yul\":5439:6171   */\n    tag_230:\n        /* \"#utility.yul\":5558:5561   */\n      0x00\n        /* \"#utility.yul\":5587:5641   */\n      tag_311\n        /* \"#utility.yul\":5635:5640   */\n      dup3\n        /* \"#utility.yul\":5587:5641   */\n      tag_224\n      jump\t// in\n    tag_311:\n        /* \"#utility.yul\":5657:5743   */\n      tag_312\n        /* \"#utility.yul\":5736:5742   */\n      dup2\n        /* \"#utility.yul\":5731:5734   */\n      dup6\n        /* \"#utility.yul\":5657:5743   */\n      tag_225\n      jump\t// in\n    tag_312:\n        /* \"#utility.yul\":5650:5743   */\n      swap4\n      pop\n        /* \"#utility.yul\":5767:5823   */\n      tag_313\n        /* \"#utility.yul\":5817:5822   */\n      dup4\n        /* \"#utility.yul\":5767:5823   */\n      tag_226\n      jump\t// in\n    tag_313:\n        /* \"#utility.yul\":5846:5853   */\n      dup1\n        /* \"#utility.yul\":5877:5878   */\n      0x00\n        /* \"#utility.yul\":5862:6146   */\n    tag_314:\n        /* \"#utility.yul\":5887:5893   */\n      dup4\n        /* \"#utility.yul\":5884:5885   */\n      dup2\n        /* \"#utility.yul\":5881:5894   */\n      lt\n        /* \"#utility.yul\":5862:6146   */\n      iszero\n      tag_316\n      jumpi\n        /* \"#utility.yul\":5963:5969   */\n      dup2\n        /* \"#utility.yul\":5957:5970   */\n      mload\n        /* \"#utility.yul\":5990:6053   */\n      tag_317\n        /* \"#utility.yul\":6049:6052   */\n      dup9\n        /* \"#utility.yul\":6034:6047   */\n      dup3\n        /* \"#utility.yul\":5990:6053   */\n      tag_228\n      jump\t// in\n    tag_317:\n        /* \"#utility.yul\":5983:6053   */\n      swap8\n      pop\n        /* \"#utility.yul\":6076:6136   */\n      tag_318\n        /* \"#utility.yul\":6129:6135   */\n      dup4\n        /* \"#utility.yul\":6076:6136   */\n      tag_229\n      jump\t// in\n    tag_318:\n        /* \"#utility.yul\":6066:6136   */\n      swap3\n      pop\n        /* \"#utility.yul\":5922:6146   */\n      pop\n        /* \"#utility.yul\":5909:5910   */\n      0x01\n        /* \"#utility.yul\":5906:5907   */\n      dup2\n        /* \"#utility.yul\":5902:5911   */\n      add\n        /* \"#utility.yul\":5897:5911   */\n      swap1\n      pop\n        /* \"#utility.yul\":5862:6146   */\n      jump(tag_314)\n    tag_316:\n        /* \"#utility.yul\":5866:5880   */\n      pop\n        /* \"#utility.yul\":6162:6165   */\n      dup6\n        /* \"#utility.yul\":6155:6165   */\n      swap4\n      pop\n        /* \"#utility.yul\":5563:6171   */\n      pop\n      pop\n      pop\n        /* \"#utility.yul\":5439:6171   */\n      swap3\n      swap2\n      pop\n      pop\n      jump\t// out\n        /* \"#utility.yul\":6177:6811   */\n    tag_59:\n        /* \"#utility.yul\":6398:6402   */\n      0x00\n        /* \"#utility.yul\":6436:6438   */\n      0x40\n        /* \"#utility.yul\":6425:6434   */\n      dup3\n        /* \"#utility.yul\":6421:6439   */\n      add\n        /* \"#utility.yul\":6413:6439   */\n      swap1\n      pop\n        /* \"#utility.yul\":6485:6494   */\n      dup2\n        /* \"#utility.yul\":6479:6483   */\n      dup2\n        /* \"#utility.yul\":6475:6495   */\n      sub\n        /* \"#utility.yul\":6471:6472   */\n      0x00\n        /* \"#utility.yul\":6460:6469   */\n      dup4\n        /* \"#utility.yul\":6456:6473   */\n      add\n        /* \"#utility.yul\":6449:6496   */\n      mstore\n        /* \"#utility.yul\":6513:6621   */\n      tag_320\n        /* \"#utility.yul\":6616:6620   */\n      dup2\n        /* \"#utility.yul\":6607:6613   */\n      dup6\n        /* \"#utility.yul\":6513:6621   */\n      tag_223\n      jump\t// in\n    tag_320:\n        /* \"#utility.yul\":6505:6621   */\n      swap1\n      pop\n        /* \"#utility.yul\":6668:6677   */\n      dup2\n        /* \"#utility.yul\":6662:6666   */\n      dup2\n        /* \"#utility.yul\":6658:6678   */\n      sub\n        /* \"#utility.yul\":6653:6655   */\n      0x20\n        /* \"#utility.yul\":6642:6651   */\n      dup4\n        /* \"#utility.yul\":6638:6656   */\n      add\n        /* \"#utility.yul\":6631:6679   */\n      mstore\n        /* \"#utility.yul\":6696:6804   */\n      tag_321\n        /* \"#utility.yul\":6799:6803   */\n      dup2\n        /* \"#utility.yul\":6790:6796   */\n      dup5\n        /* \"#utility.yul\":6696:6804   */\n      tag_230\n      jump\t// in\n    tag_321:\n        /* \"#utility.yul\":6688:6804   */\n      swap1\n      pop\n        /* \"#utility.yul\":6177:6811   */\n      swap4\n      swap3\n      pop\n      pop\n      pop\n      jump\t// out\n        /* \"#utility.yul\":6817:6877   */\n    tag_231:\n        /* \"#utility.yul\":6845:6848   */\n      0x00\n        /* \"#utility.yul\":6866:6871   */\n      dup2\n        /* \"#utility.yul\":6859:6871   */\n      swap1\n      pop\n        /* \"#utility.yul\":6817:6877   */\n      swap2\n      swap1\n      pop\n      jump\t// out\n        /* \"#utility.yul\":6883:7025   */\n    tag_232:\n        /* \"#utility.yul\":6933:6942   */\n      0x00\n        /* \"#utility.yul\":6966:7019   */\n      tag_324\n        /* \"#utility.yul\":6984:7018   */\n      tag_325\n        /* \"#utility.yul\":6993:7017   */\n      tag_326\n        /* \"#utility.yul\":7011:7016   */\n      dup5\n        /* \"#utility.yul\":6993:7017   */\n      tag_208\n      jump\t// in\n    tag_326:\n        /* \"#utility.yul\":6984:7018   */\n      tag_231\n      jump\t// in\n    tag_325:\n        /* \"#utility.yul\":6966:7019   */\n      tag_208\n      jump\t// in\n    tag_324:\n        /* \"#utility.yul\":6953:7019   */\n      swap1\n      pop\n        /* \"#utility.yul\":6883:7025   */\n      swap2\n      swap1\n      pop\n      jump\t// out\n        /* \"#utility.yul\":7031:7157   */\n    tag_233:\n        /* \"#utility.yul\":7081:7090   */\n      0x00\n        /* \"#utility.yul\":7114:7151   */\n      tag_328\n        /* \"#utility.yul\":7145:7150   */\n      dup3\n        /* \"#utility.yul\":7114:7151   */\n      tag_232\n      jump\t// in\n    tag_328:\n        /* \"#utility.yul\":7101:7151   */\n      swap1\n      pop\n        /* \"#utility.yul\":7031:7157   */\n      swap2\n      swap1\n      pop\n      jump\t// out\n        /* \"#utility.yul\":7163:7303   */\n    tag_234:\n        /* \"#utility.yul\":7227:7236   */\n      0x00\n        /* \"#utility.yul\":7260:7297   */\n      tag_330\n        /* \"#utility.yul\":7291:7296   */\n      dup3\n        /* \"#utility.yul\":7260:7297   */\n      tag_233\n      jump\t// in\n    tag_330:\n        /* \"#utility.yul\":7247:7297   */\n      swap1\n      pop\n        /* \"#utility.yul\":7163:7303   */\n      swap2\n      swap1\n      pop\n      jump\t// out\n        /* \"#utility.yul\":7309:7468   */\n    tag_235:\n        /* \"#utility.yul\":7410:7461   */\n      tag_332\n        /* \"#utility.yul\":7455:7460   */\n      dup2\n        /* \"#utility.yul\":7410:7461   */\n      tag_234\n      jump\t// in\n    tag_332:\n        /* \"#utility.yul\":7405:7408   */\n      dup3\n        /* \"#utility.yul\":7398:7462   */\n      mstore\n        /* \"#utility.yul\":7309:7468   */\n      pop\n      pop\n      jump\t// out\n        /* \"#utility.yul\":7474:7724   */\n    tag_73:\n        /* \"#utility.yul\":7581:7585   */\n      0x00\n        /* \"#utility.yul\":7619:7621   */\n      0x20\n        /* \"#utility.yul\":7608:7617   */\n      dup3\n        /* \"#utility.yul\":7604:7622   */\n      add\n        /* \"#utility.yul\":7596:7622   */\n      swap1\n      pop\n        /* \"#utility.yul\":7632:7717   */\n      tag_334\n        /* \"#utility.yul\":7714:7715   */\n      0x00\n        /* \"#utility.yul\":7703:7712   */\n      dup4\n        /* \"#utility.yul\":7699:7716   */\n      add\n        /* \"#utility.yul\":7690:7696   */\n      dup5\n        /* \"#utility.yul\":7632:7717   */\n      tag_235\n      jump\t// in\n    tag_334:\n        /* \"#utility.yul\":7474:7724   */\n      swap3\n      swap2\n      pop\n      pop\n      jump\t// out\n        /* \"#utility.yul\":7730:7899   */\n    tag_236:\n        /* \"#utility.yul\":7814:7825   */\n      0x00\n        /* \"#utility.yul\":7848:7854   */\n      dup3\n        /* \"#utility.yul\":7843:7846   */\n      dup3\n        /* \"#utility.yul\":7836:7855   */\n      mstore\n        /* \"#utility.yul\":7888:7892   */\n      0x20\n        /* \"#utility.yul\":7883:7886   */\n      dup3\n        /* \"#utility.yul\":7879:7893   */\n      add\n        /* \"#utility.yul\":7864:7893   */\n      swap1\n      pop\n        /* \"#utility.yul\":7730:7899   */\n      swap3\n      swap2\n      pop\n      pop\n      jump\t// out\n        /* \"#utility.yul\":7905:8069   */\n    tag_237:\n        /* \"#utility.yul\":8045:8061   */\n      0x4e6f7468696e67207374616b6564000000000000000000000000000000000000\n        /* \"#utility.yul\":8041:8042   */\n      0x00\n        /* \"#utility.yul\":8033:8039   */\n      dup3\n        /* \"#utility.yul\":8029:8043   */\n      add\n        /* \"#utility.yul\":8022:8062   */\n      mstore\n        /* \"#utility.yul\":7905:8069   */\n      pop\n      jump\t// out\n        /* \"#utility.yul\":8075:8441   */\n    tag_238:\n        /* \"#utility.yul\":8217:8220   */\n      0x00\n        /* \"#utility.yul\":8238:8305   */\n      tag_338\n        /* \"#utility.yul\":8302:8304   */\n      0x0e\n        /* \"#utility.yul\":8297:8300   */\n      dup4\n        /* \"#utility.yul\":8238:8305   */\n      tag_236\n      jump\t// in\n    tag_338:\n        /* \"#utility.yul\":8231:8305   */\n      swap2\n      pop\n        /* \"#utility.yul\":8314:8407   */\n      tag_339\n        /* \"#utility.yul\":8403:8406   */\n      dup3\n        /* \"#utility.yul\":8314:8407   */\n      tag_237\n      jump\t// in\n    tag_339:\n        /* \"#utility.yul\":8432:8434   */\n      0x20\n        /* \"#utility.yul\":8427:8430   */\n      dup3\n        /* \"#utility.yul\":8423:8435   */\n      add\n        /* \"#utility.yul\":8416:8435   */\n      swap1\n      pop\n        /* \"#utility.yul\":8075:8441   */\n      swap2\n      swap1\n      pop\n      jump\t// out\n        /* \"#utility.yul\":8447:8866   */\n    tag_81:\n        /* \"#utility.yul\":8613:8617   */\n      0x00\n        /* \"#utility.yul\":8651:8653   */\n      0x20\n        /* \"#utility.yul\":8640:8649   */\n      dup3\n        /* \"#utility.yul\":8636:8654   */\n      add\n        /* \"#utility.yul\":8628:8654   */\n      swap1\n      pop\n        /* \"#utility.yul\":8700:8709   */\n      dup2\n        /* \"#utility.yul\":8694:8698   */\n      dup2\n        /* \"#utility.yul\":8690:8710   */\n      sub\n        /* \"#utility.yul\":8686:8687   */\n      0x00\n        /* \"#utility.yul\":8675:8684   */\n      dup4\n        /* \"#utility.yul\":8671:8688   */\n      add\n        /* \"#utility.yul\":8664:8711   */\n      mstore\n        /* \"#utility.yul\":8728:8859   */\n      tag_341\n        /* \"#utility.yul\":8854:8858   */\n      dup2\n        /* \"#utility.yul\":8728:8859   */\n      tag_238\n      jump\t// in\n    tag_341:\n        /* \"#utility.yul\":8720:8859   */\n      swap1\n      pop\n        /* \"#utility.yul\":8447:8866   */\n      swap2\n      swap1\n      pop\n      jump\t// out\n        /* \"#utility.yul\":8872:9052   */\n    tag_239:\n        /* \"#utility.yul\":8920:8997   */\n      0x4e487b7100000000000000000000000000000000000000000000000000000000\n        /* \"#utility.yul\":8917:8918   */\n      0x00\n        /* \"#utility.yul\":8910:8998   */\n      mstore\n        /* \"#utility.yul\":9017:9021   */\n      0x11\n        /* \"#utility.yul\":9014:9015   */\n      0x04\n        /* \"#utility.yul\":9007:9022   */\n      mstore\n        /* \"#utility.yul\":9041:9045   */\n      0x24\n        /* \"#utility.yul\":9038:9039   */\n      0x00\n        /* \"#utility.yul\":9031:9046   */\n      revert\n        /* \"#utility.yul\":9058:9252   */\n    tag_84:\n        /* \"#utility.yul\":9098:9102   */\n      0x00\n        /* \"#utility.yul\":9118:9138   */\n      tag_344\n        /* \"#utility.yul\":9136:9137   */\n      dup3\n        /* \"#utility.yul\":9118:9138   */\n      tag_212\n      jump\t// in\n    tag_344:\n        /* \"#utility.yul\":9113:9138   */\n      swap2\n      pop\n        /* \"#utility.yul\":9152:9172   */\n      tag_345\n        /* \"#utility.yul\":9170:9171   */\n      dup4\n        /* \"#utility.yul\":9152:9172   */\n      tag_212\n      jump\t// in\n    tag_345:\n        /* \"#utility.yul\":9147:9172   */\n      swap3\n      pop\n        /* \"#utility.yul\":9196:9197   */\n      dup3\n        /* \"#utility.yul\":9193:9194   */\n      dup3\n        /* \"#utility.yul\":9189:9198   */\n      sub\n        /* \"#utility.yul\":9181:9198   */\n      swap1\n      pop\n        /* \"#utility.yul\":9220:9221   */\n      dup2\n        /* \"#utility.yul\":9214:9218   */\n      dup2\n        /* \"#utility.yul\":9211:9222   */\n      gt\n        /* \"#utility.yul\":9208:9245   */\n      iszero\n      tag_346\n      jumpi\n        /* \"#utility.yul\":9225:9243   */\n      tag_347\n      tag_239\n      jump\t// in\n    tag_347:\n        /* \"#utility.yul\":9208:9245   */\n    tag_346:\n        /* \"#utility.yul\":9058:9252   */\n      swap3\n      swap2\n      pop\n      pop\n      jump\t// out\n        /* \"#utility.yul\":9258:9668   */\n    tag_88:\n        /* \"#utility.yul\":9298:9305   */\n      0x00\n        /* \"#utility.yul\":9321:9341   */\n      tag_349\n        /* \"#utility.yul\":9339:9340   */\n      dup3\n        /* \"#utility.yul\":9321:9341   */\n      tag_212\n      jump\t// in\n    tag_349:\n        /* \"#utility.yul\":9316:9341   */\n      swap2\n      pop\n        /* \"#utility.yul\":9355:9375   */\n      tag_350\n        /* \"#utility.yul\":9373:9374   */\n      dup4\n        /* \"#utility.yul\":9355:9375   */\n      tag_212\n      jump\t// in\n    tag_350:\n        /* \"#utility.yul\":9350:9375   */\n      swap3\n      pop\n        /* \"#utility.yul\":9410:9411   */\n      dup3\n        /* \"#utility.yul\":9407:9408   */\n      dup3\n        /* \"#utility.yul\":9403:9412   */\n      mul\n        /* \"#utility.yul\":9432:9462   */\n      tag_351\n        /* \"#utility.yul\":9450:9461   */\n      dup2\n        /* \"#utility.yul\":9432:9462   */\n      tag_212\n      jump\t// in\n    tag_351:\n        /* \"#utility.yul\":9421:9462   */\n      swap2\n      pop\n        /* \"#utility.yul\":9611:9612   */\n      dup3\n        /* \"#utility.yul\":9602:9609   */\n      dup3\n        /* \"#utility.yul\":9598:9613   */\n      div\n        /* \"#utility.yul\":9595:9596   */\n      dup5\n        /* \"#utility.yul\":9592:9614   */\n      eq\n        /* \"#utility.yul\":9572:9573   */\n      dup4\n        /* \"#utility.yul\":9565:9574   */\n      iszero\n        /* \"#utility.yul\":9545:9628   */\n      or\n        /* \"#utility.yul\":9522:9661   */\n      tag_352\n      jumpi\n        /* \"#utility.yul\":9641:9659   */\n      tag_353\n      tag_239\n      jump\t// in\n    tag_353:\n        /* \"#utility.yul\":9522:9661   */\n    tag_352:\n        /* \"#utility.yul\":9306:9668   */\n      pop\n        /* \"#utility.yul\":9258:9668   */\n      swap3\n      swap2\n      pop\n      pop\n      jump\t// out\n        /* \"#utility.yul\":9674:9854   */\n    tag_240:\n        /* \"#utility.yul\":9722:9799   */\n      0x4e487b7100000000000000000000000000000000000000000000000000000000\n        /* \"#utility.yul\":9719:9720   */\n      0x00\n        /* \"#utility.yul\":9712:9800   */\n      mstore\n        /* \"#utility.yul\":9819:9823   */\n      0x12\n        /* \"#utility.yul\":9816:9817   */\n      0x04\n        /* \"#utility.yul\":9809:9824   */\n      mstore\n        /* \"#utility.yul\":9843:9847   */\n      0x24\n        /* \"#utility.yul\":9840:9841   */\n      0x00\n        /* \"#utility.yul\":9833:9848   */\n      revert\n        /* \"#utility.yul\":9860:10045   */\n    tag_90:\n        /* \"#utility.yul\":9900:9901   */\n      0x00\n        /* \"#utility.yul\":9917:9937   */\n      tag_356\n        /* \"#utility.yul\":9935:9936   */\n      dup3\n        /* \"#utility.yul\":9917:9937   */\n      tag_212\n      jump\t// in\n    tag_356:\n        /* \"#utility.yul\":9912:9937   */\n      swap2\n      pop\n        /* \"#utility.yul\":9951:9971   */\n      tag_357\n        /* \"#utility.yul\":9969:9970   */\n      dup4\n        /* \"#utility.yul\":9951:9971   */\n      tag_212\n      jump\t// in\n    tag_357:\n        /* \"#utility.yul\":9946:9971   */\n      swap3\n      pop\n        /* \"#utility.yul\":9990:9991   */\n      dup3\n        /* \"#utility.yul\":9980:10015   */\n      tag_358\n      jumpi\n        /* \"#utility.yul\":9995:10013   */\n      tag_359\n      tag_240\n      jump\t// in\n    tag_359:\n        /* \"#utility.yul\":9980:10015   */\n    tag_358:\n        /* \"#utility.yul\":10037:10038   */\n      dup3\n        /* \"#utility.yul\":10034:10035   */\n      dup3\n        /* \"#utility.yul\":10030:10039   */\n      div\n        /* \"#utility.yul\":10025:10039   */\n      swap1\n      pop\n        /* \"#utility.yul\":9860:10045   */\n      swap3\n      swap2\n      pop\n      pop\n      jump\t// out\n        /* \"#utility.yul\":10051:10242   */\n    tag_92:\n        /* \"#utility.yul\":10091:10094   */\n      0x00\n        /* \"#utility.yul\":10110:10130   */\n      tag_361\n        /* \"#utility.yul\":10128:10129   */\n      dup3\n        /* \"#utility.yul\":10110:10130   */\n      tag_212\n      jump\t// in\n    tag_361:\n        /* \"#utility.yul\":10105:10130   */\n      swap2\n      pop\n        /* \"#utility.yul\":10144:10164   */\n      tag_362\n        /* \"#utility.yul\":10162:10163   */\n      dup4\n        /* \"#utility.yul\":10144:10164   */\n      tag_212\n      jump\t// in\n    tag_362:\n        /* \"#utility.yul\":10139:10164   */\n      swap3\n      pop\n        /* \"#utility.yul\":10187:10188   */\n      dup3\n        /* \"#utility.yul\":10184:10185   */\n      dup3\n        /* \"#utility.yul\":10180:10189   */\n      add\n        /* \"#utility.yul\":10173:10189   */\n      swap1\n      pop\n        /* \"#utility.yul\":10208:10211   */\n      dup1\n        /* \"#utility.yul\":10205:10206   */\n      dup3\n        /* \"#utility.yul\":10202:10212   */\n      gt\n        /* \"#utility.yul\":10199:10235   */\n      iszero\n      tag_363\n      jumpi\n        /* \"#utility.yul\":10215:10233   */\n      tag_364\n      tag_239\n      jump\t// in\n    tag_364:\n        /* \"#utility.yul\":10199:10235   */\n    tag_363:\n        /* \"#utility.yul\":10051:10242   */\n      swap3\n      swap2\n      pop\n      pop\n      jump\t// out\n        /* \"#utility.yul\":10248:10580   */\n    tag_94:\n        /* \"#utility.yul\":10369:10373   */\n      0x00\n        /* \"#utility.yul\":10407:10409   */\n      0x40\n        /* \"#utility.yul\":10396:10405   */\n      dup3\n        /* \"#utility.yul\":10392:10410   */\n      add\n        /* \"#utility.yul\":10384:10410   */\n      swap1\n      pop\n        /* \"#utility.yul\":10420:10491   */\n      tag_366\n        /* \"#utility.yul\":10488:10489   */\n      0x00\n        /* \"#utility.yul\":10477:10486   */\n      dup4\n        /* \"#utility.yul\":10473:10490   */\n      add\n        /* \"#utility.yul\":10464:10470   */\n      dup6\n        /* \"#utility.yul\":10420:10491   */\n      tag_214\n      jump\t// in\n    tag_366:\n        /* \"#utility.yul\":10501:10573   */\n      tag_367\n        /* \"#utility.yul\":10569:10571   */\n      0x20\n        /* \"#utility.yul\":10558:10567   */\n      dup4\n        /* \"#utility.yul\":10554:10572   */\n      add\n        /* \"#utility.yul\":10545:10551   */\n      dup5\n        /* \"#utility.yul\":10501:10573   */\n      tag_213\n      jump\t// in\n    tag_367:\n        /* \"#utility.yul\":10248:10580   */\n      swap4\n      swap3\n      pop\n      pop\n      pop\n      jump\t// out\n        /* \"#utility.yul\":10586:10676   */\n    tag_241:\n        /* \"#utility.yul\":10620:10627   */\n      0x00\n        /* \"#utility.yul\":10663:10668   */\n      dup2\n        /* \"#utility.yul\":10656:10669   */\n      iszero\n        /* \"#utility.yul\":10649:10670   */\n      iszero\n        /* \"#utility.yul\":10638:10670   */\n      swap1\n      pop\n        /* \"#utility.yul\":10586:10676   */\n      swap2\n      swap1\n      pop\n      jump\t// out\n        /* \"#utility.yul\":10682:10798   */\n    tag_242:\n        /* \"#utility.yul\":10752:10773   */\n      tag_370\n        /* \"#utility.yul\":10767:10772   */\n      dup2\n        /* \"#utility.yul\":10752:10773   */\n      tag_241\n      jump\t// in\n    tag_370:\n        /* \"#utility.yul\":10745:10750   */\n      dup2\n        /* \"#utility.yul\":10742:10774   */\n      eq\n        /* \"#utility.yul\":10732:10792   */\n      tag_371\n      jumpi\n        /* \"#utility.yul\":10788:10789   */\n      0x00\n        /* \"#utility.yul\":10785:10786   */\n      0x00\n        /* \"#utility.yul\":10778:10790   */\n      revert\n        /* \"#utility.yul\":10732:10792   */\n    tag_371:\n        /* \"#utility.yul\":10682:10798   */\n      pop\n      jump\t// out\n        /* \"#utility.yul\":10804:10941   */\n    tag_243:\n        /* \"#utility.yul\":10858:10863   */\n      0x00\n        /* \"#utility.yul\":10889:10895   */\n      dup2\n        /* \"#utility.yul\":10883:10896   */\n      mload\n        /* \"#utility.yul\":10874:10896   */\n      swap1\n      pop\n        /* \"#utility.yul\":10905:10935   */\n      tag_373\n        /* \"#utility.yul\":10929:10934   */\n      dup2\n        /* \"#utility.yul\":10905:10935   */\n      tag_242\n      jump\t// in\n    tag_373:\n        /* \"#utility.yul\":10804:10941   */\n      swap3\n      swap2\n      pop\n      pop\n      jump\t// out\n        /* \"#utility.yul\":10947:11292   */\n    tag_98:\n        /* \"#utility.yul\":11014:11020   */\n      0x00\n        /* \"#utility.yul\":11063:11065   */\n      0x20\n        /* \"#utility.yul\":11051:11060   */\n      dup3\n        /* \"#utility.yul\":11042:11049   */\n      dup5\n        /* \"#utility.yul\":11038:11061   */\n      sub\n        /* \"#utility.yul\":11034:11066   */\n      slt\n        /* \"#utility.yul\":11031:11150   */\n      iszero\n      tag_375\n      jumpi\n        /* \"#utility.yul\":11069:11148   */\n      tag_376\n      tag_206\n      jump\t// in\n    tag_376:\n        /* \"#utility.yul\":11031:11150   */\n    tag_375:\n        /* \"#utility.yul\":11189:11190   */\n      0x00\n        /* \"#utility.yul\":11214:11275   */\n      tag_377\n        /* \"#utility.yul\":11267:11274   */\n      dup5\n        /* \"#utility.yul\":11258:11264   */\n      dup3\n        /* \"#utility.yul\":11247:11256   */\n      dup6\n        /* \"#utility.yul\":11243:11265   */\n      add\n        /* \"#utility.yul\":11214:11275   */\n      tag_243\n      jump\t// in\n    tag_377:\n        /* \"#utility.yul\":11204:11275   */\n      swap2\n      pop\n        /* \"#utility.yul\":11160:11285   */\n      pop\n        /* \"#utility.yul\":10947:11292   */\n      swap3\n      swap2\n      pop\n      pop\n      jump\t// out\n        /* \"#utility.yul\":11298:11463   */\n    tag_244:\n        /* \"#utility.yul\":11438:11455   */\n      0x4e6f20616374697665207374616b650000000000000000000000000000000000\n        /* \"#utility.yul\":11434:11435   */\n      0x00\n        /* \"#utility.yul\":11426:11432   */\n      dup3\n        /* \"#utility.yul\":11422:11436   */\n      add\n        /* \"#utility.yul\":11415:11456   */\n      mstore\n        /* \"#utility.yul\":11298:11463   */\n      pop\n      jump\t// out\n        /* \"#utility.yul\":11469:11835   */\n    tag_245:\n        /* \"#utility.yul\":11611:11614   */\n      0x00\n        /* \"#utility.yul\":11632:11699   */\n      tag_380\n        /* \"#utility.yul\":11696:11698   */\n      0x0f\n        /* \"#utility.yul\":11691:11694   */\n      dup4\n        /* \"#utility.yul\":11632:11699   */\n      tag_236\n      jump\t// in\n    tag_380:\n        /* \"#utility.yul\":11625:11699   */\n      swap2\n      pop\n        /* \"#utility.yul\":11708:11801   */\n      tag_381\n        /* \"#utility.yul\":11797:11800   */\n      dup3\n        /* \"#utility.yul\":11708:11801   */\n      tag_244\n      jump\t// in\n    tag_381:\n        /* \"#utility.yul\":11826:11828   */\n      0x20\n        /* \"#utility.yul\":11821:11824   */\n      dup3\n        /* \"#utility.yul\":11817:11829   */\n      add\n        /* \"#utility.yul\":11810:11829   */\n      swap1\n      pop\n        /* \"#utility.yul\":11469:11835   */\n      swap2\n      swap1\n      pop\n      jump\t// out\n        /* \"#utility.yul\":11841:12260   */\n    tag_102:\n        /* \"#utility.yul\":12007:12011   */\n      0x00\n        /* \"#utility.yul\":12045:12047   */\n      0x20\n        /* \"#utility.yul\":12034:12043   */\n      dup3\n        /* \"#utility.yul\":12030:12048   */\n      add\n        /* \"#utility.yul\":12022:12048   */\n      swap1\n      pop\n        /* \"#utility.yul\":12094:12103   */\n      dup2\n        /* \"#utility.yul\":12088:12092   */\n      dup2\n        /* \"#utility.yul\":12084:12104   */\n      sub\n        /* \"#utility.yul\":12080:12081   */\n      0x00\n        /* \"#utility.yul\":12069:12078   */\n      dup4\n        /* \"#utility.yul\":12065:12082   */\n      add\n        /* \"#utility.yul\":12058:12105   */\n      mstore\n        /* \"#utility.yul\":12122:12253   */\n      tag_383\n        /* \"#utility.yul\":12248:12252   */\n      dup2\n        /* \"#utility.yul\":12122:12253   */\n      tag_245\n      jump\t// in\n    tag_383:\n        /* \"#utility.yul\":12114:12253   */\n      swap1\n      pop\n        /* \"#utility.yul\":11841:12260   */\n      swap2\n      swap1\n      pop\n      jump\t// out\n        /* \"#utility.yul\":12266:12430   */\n    tag_246:\n        /* \"#utility.yul\":12406:12422   */\n      0x43616e6e6f74207374616b652030000000000000000000000000000000000000\n        /* \"#utility.yul\":12402:12403   */\n      0x00\n        /* \"#utility.yul\":12394:12400   */\n      dup3\n        /* \"#utility.yul\":12390:12404   */\n      add\n        /* \"#utility.yul\":12383:12423   */\n      mstore\n        /* \"#utility.yul\":12266:12430   */\n      pop\n      jump\t// out\n        /* \"#utility.yul\":12436:12802   */\n    tag_247:\n        /* \"#utility.yul\":12578:12581   */\n      0x00\n        /* \"#utility.yul\":12599:12666   */\n      tag_386\n        /* \"#utility.yul\":12663:12665   */\n      0x0e\n        /* \"#utility.yul\":12658:12661   */\n      dup4\n        /* \"#utility.yul\":12599:12666   */\n      tag_236\n      jump\t// in\n    tag_386:\n        /* \"#utility.yul\":12592:12666   */\n      swap2\n      pop\n        /* \"#utility.yul\":12675:12768   */\n      tag_387\n        /* \"#utility.yul\":12764:12767   */\n      dup3\n        /* \"#utility.yul\":12675:12768   */\n      tag_246\n      jump\t// in\n    tag_387:\n        /* \"#utility.yul\":12793:12795   */\n      0x20\n        /* \"#utility.yul\":12788:12791   */\n      dup3\n        /* \"#utility.yul\":12784:12796   */\n      add\n        /* \"#utility.yul\":12777:12796   */\n      swap1\n      pop\n        /* \"#utility.yul\":12436:12802   */\n      swap2\n      swap1\n      pop\n      jump\t// out\n        /* \"#utility.yul\":12808:13227   */\n    tag_118:\n        /* \"#utility.yul\":12974:12978   */\n      0x00\n        /* \"#utility.yul\":13012:13014   */\n      0x20\n        /* \"#utility.yul\":13001:13010   */\n      dup3\n        /* \"#utility.yul\":12997:13015   */\n      add\n        /* \"#utility.yul\":12989:13015   */\n      swap1\n      pop\n        /* \"#utility.yul\":13061:13070   */\n      dup2\n        /* \"#utility.yul\":13055:13059   */\n      dup2\n        /* \"#utility.yul\":13051:13071   */\n      sub\n        /* \"#utility.yul\":13047:13048   */\n      0x00\n        /* \"#utility.yul\":13036:13045   */\n      dup4\n        /* \"#utility.yul\":13032:13049   */\n      add\n        /* \"#utility.yul\":13025:13072   */\n      mstore\n        /* \"#utility.yul\":13089:13220   */\n      tag_389\n        /* \"#utility.yul\":13215:13219   */\n      dup2\n        /* \"#utility.yul\":13089:13220   */\n      tag_247\n      jump\t// in\n    tag_389:\n        /* \"#utility.yul\":13081:13220   */\n      swap1\n      pop\n        /* \"#utility.yul\":12808:13227   */\n      swap2\n      swap1\n      pop\n      jump\t// out\n        /* \"#utility.yul\":13233:13675   */\n    tag_125:\n        /* \"#utility.yul\":13382:13386   */\n      0x00\n        /* \"#utility.yul\":13420:13422   */\n      0x60\n        /* \"#utility.yul\":13409:13418   */\n      dup3\n        /* \"#utility.yul\":13405:13423   */\n      add\n        /* \"#utility.yul\":13397:13423   */\n      swap1\n      pop\n        /* \"#utility.yul\":13433:13504   */\n      tag_391\n        /* \"#utility.yul\":13501:13502   */\n      0x00\n        /* \"#utility.yul\":13490:13499   */\n      dup4\n        /* \"#utility.yul\":13486:13503   */\n      add\n        /* \"#utility.yul\":13477:13483   */\n      dup7\n        /* \"#utility.yul\":13433:13504   */\n      tag_214\n      jump\t// in\n    tag_391:\n        /* \"#utility.yul\":13514:13586   */\n      tag_392\n        /* \"#utility.yul\":13582:13584   */\n      0x20\n        /* \"#utility.yul\":13571:13580   */\n      dup4\n        /* \"#utility.yul\":13567:13585   */\n      add\n        /* \"#utility.yul\":13558:13564   */\n      dup6\n        /* \"#utility.yul\":13514:13586   */\n      tag_214\n      jump\t// in\n    tag_392:\n        /* \"#utility.yul\":13596:13668   */\n      tag_393\n        /* \"#utility.yul\":13664:13666   */\n      0x40\n        /* \"#utility.yul\":13653:13662   */\n      dup4\n        /* \"#utility.yul\":13649:13667   */\n      add\n        /* \"#utility.yul\":13640:13646   */\n      dup5\n        /* \"#utility.yul\":13596:13668   */\n      tag_213\n      jump\t// in\n    tag_393:\n        /* \"#utility.yul\":13233:13675   */\n      swap5\n      swap4\n      pop\n      pop\n      pop\n      pop\n      jump\t// out\n        /* \"#utility.yul\":13681:13861   */\n    tag_133:\n        /* \"#utility.yul\":13729:13806   */\n      0x4e487b7100000000000000000000000000000000000000000000000000000000\n        /* \"#utility.yul\":13726:13727   */\n      0x00\n        /* \"#utility.yul\":13719:13807   */\n      mstore\n        /* \"#utility.yul\":13826:13830   */\n      0x41\n        /* \"#utility.yul\":13823:13824   */\n      0x04\n        /* \"#utility.yul\":13816:13831   */\n      mstore\n        /* \"#utility.yul\":13850:13854   */\n      0x24\n        /* \"#utility.yul\":13847:13848   */\n      0x00\n        /* \"#utility.yul\":13840:13855   */\n      revert\n        /* \"#utility.yul\":13867:14047   */\n    tag_140:\n        /* \"#utility.yul\":13915:13992   */\n      0x4e487b7100000000000000000000000000000000000000000000000000000000\n        /* \"#utility.yul\":13912:13913   */\n      0x00\n        /* \"#utility.yul\":13905:13993   */\n      mstore\n        /* \"#utility.yul\":14012:14016   */\n      0x32\n        /* \"#utility.yul\":14009:14010   */\n      0x04\n        /* \"#utility.yul\":14002:14017   */\n      mstore\n        /* \"#utility.yul\":14036:14040   */\n      0x24\n        /* \"#utility.yul\":14033:14034   */\n      0x00\n        /* \"#utility.yul\":14026:14041   */\n      revert\n\n    auxdata: 0xa2646970667358221220007c2794209b4ecc91ba0270ca838ebbdb3e678055b917da3066572c1e369d7364736f6c634300081e0033\n}\n",
				"bytecode": {
					"linkReferences": {},
					"object": "6080604052600a600255348015610014575f5ffd5b506040516119673803806119678339818101604052810190610036919061021c565b335f73ffffffffffffffffffffffffffffffffffffffff168173ffffffffffffffffffffffffffffffffffffffff16036100a7575f6040517f1e4fbdf700000000000000000000000000000000000000000000000000000000815260040161009e9190610256565b60405180910390fd5b6100b6816100fd60201b60201c565b508060015f6101000a81548173ffffffffffffffffffffffffffffffffffffffff021916908373ffffffffffffffffffffffffffffffffffffffff1602179055505061026f565b5f5f5f9054906101000a900473ffffffffffffffffffffffffffffffffffffffff169050815f5f6101000a81548173ffffffffffffffffffffffffffffffffffffffff021916908373ffffffffffffffffffffffffffffffffffffffff1602179055508173ffffffffffffffffffffffffffffffffffffffff168173ffffffffffffffffffffffffffffffffffffffff167f8be0079c531659141344cd1fd0a4f28419497f9722a3daafe3b4186f6b6457e060405160405180910390a35050565b5f5ffd5b5f73ffffffffffffffffffffffffffffffffffffffff82169050919050565b5f6101eb826101c2565b9050919050565b6101fb816101e1565b8114610205575f5ffd5b50565b5f81519050610216816101f2565b92915050565b5f60208284031215610231576102306101be565b5b5f61023e84828501610208565b91505092915050565b610250816101e1565b82525050565b5f6020820190506102695f830184610247565b92915050565b6116eb8061027c5f395ff3fe608060405234801561000f575f5ffd5b50600436106100fe575f3560e01c80639e447fc611610095578063e6a69ab811610064578063e6a69ab814610262578063f2fde38b14610280578063fc0c546a1461029c578063fd5e6dd1146102ba576100fe565b80639e447fc6146101c9578063a694fc3a146101e5578063c80ca39a14610201578063d82e396214610232576100fe565b80634e71d92d116100d15780634e71d92d14610179578063715018a6146101835780637b0a47ee1461018d5780638da5cb5b146101ab576100fe565b806316934fc4146101025780631820cabb146101335780631f4531f5146101515780632def66201461016f575b5f5ffd5b61011c6004803603810190610117919061100f565b6102ea565b60405161012a929190611052565b60405180910390f35b61013b61030a565b6040516101489190611079565b60405180910390f35b610159610311565b6040516101669190611079565b60405180910390f35b610177610316565b005b6101816104aa565b005b61018b610561565b005b610195610574565b6040516101a29190611079565b60405180910390f35b6101b361057a565b6040516101c091906110a1565b60405180910390f35b6101e360048036038101906101de91906110e4565b6105a1565b005b6101ff60048036038101906101fa91906110e4565b6105b3565b005b61021b600480360381019061021691906110e4565b61084d565b60405161022992919061127d565b60405180910390f35b61024c6004803603810190610247919061100f565b610cc9565b6040516102599190611079565b60405180910390f35b61026a610d76565b6040516102779190611079565b60405180910390f35b61029a6004803603810190610295919061100f565b610d7e565b005b6102a4610e02565b6040516102b1919061130d565b60405180910390f35b6102d460048036038101906102cf91906110e4565b610e27565b6040516102e191906110a1565b60405180910390f35b6003602052805f5260405f205f91509050805f0154908060010154905082565b6201518081565b603281565b5f60035f3373ffffffffffffffffffffffffffffffffffffffff1673ffffffffffffffffffffffffffffffffffffffff1681526020019081526020015f2090505f815f01541161039b576040517f08c379a000000000000000000000000000000000000000000000000000000000815260040161039290611380565b60405180910390fd5b5f6103a533610cc9565b90505f8260010154426103b891906113cb565b9050620151808110156103ed576064603260646103d591906113cb565b836103e091906113fe565b6103ea919061146c565b91505b5f835f015490505f845f018190555060015f9054906101000a900473ffffffffffffffffffffffffffffffffffffffff1673ffffffffffffffffffffffffffffffffffffffff1663a9059cbb338584610446919061149c565b6040518363ffffffff1660e01b81526004016104639291906114cf565b6020604051808303815f875af115801561047f573d5f5f3e3d5ffd5b505050506040513d601f19601f820116820180604052508101906104a3919061152b565b5050505050565b5f60035f3373ffffffffffffffffffffffffffffffffffffffff1673ffffffffffffffffffffffffffffffffffffffff1681526020019081526020015f2090505f815f01541161052f576040517f08c379a0000000000000000000000000000000000000000000000000000000008152600401610526906115a0565b60405180910390fd5b5f61053933610cc9565b905080825f015f82825461054d919061149c565b925050819055504282600101819055505050565b610569610e62565b6105725f610ee9565b565b60025481565b5f5f5f9054906101000a900473ffffffffffffffffffffffffffffffffffffffff16905090565b6105a9610e62565b8060028190555050565b5f81116105f5576040517f08c379a00000000000000000000000000000000000000000000000000000000081526004016105ec90611608565b60405180910390fd5b5f60035f3373ffffffffffffffffffffffffffffffffffffffff1673ffffffffffffffffffffffffffffffffffffffff1681526020019081526020015f205f0154111561069e576106446104aa565b8060035f3373ffffffffffffffffffffffffffffffffffffffff1673ffffffffffffffffffffffffffffffffffffffff1681526020019081526020015f205f015f828254610692919061149c565b92505081905550610766565b60405180604001604052808281526020014281525060035f3373ffffffffffffffffffffffffffffffffffffffff1673ffffffffffffffffffffffffffffffffffffffff1681526020019081526020015f205f820151815f015560208201518160010155905050600433908060018154018082558091505060019003905f5260205f20015f9091909190916101000a81548173ffffffffffffffffffffffffffffffffffffffff021916908373ffffffffffffffffffffffffffffffffffffffff1602179055505b60015f9054906101000a900473ffffffffffffffffffffffffffffffffffffffff1673ffffffffffffffffffffffffffffffffffffffff166323b872dd3330846040518463ffffffff1660e01b81526004016107c493929190611626565b6020604051808303815f875af11580156107e0573d5f5f3e3d5ffd5b505050506040513d601f19601f82011682018060405250810190610804919061152b565b504260035f3373ffffffffffffffffffffffffffffffffffffffff1673ffffffffffffffffffffffffffffffffffffffff1681526020019081526020015f206001018190555050565b6060805f600480549050905080841115610865578093505b5f8167ffffffffffffffff8111156108805761087f61165b565b5b6040519080825280602002602001820160405280156108ae5781602001602082028036833780820191505090505b5090505f5f90505b8281101561095457600481815481106108d2576108d1611688565b5b905f5260205f20015f9054906101000a900473ffffffffffffffffffffffffffffffffffffffff1682828151811061090d5761090c611688565b5b602002602001019073ffffffffffffffffffffffffffffffffffffffff16908173ffffffffffffffffffffffffffffffffffffffff168152505080806001019150506108b6565b505f5f90505b85811015610b25575f8190505f600183610974919061149c565b90505b84811015610a4a5760035f85848151811061099557610994611688565b5b602002602001015173ffffffffffffffffffffffffffffffffffffffff1673ffffffffffffffffffffffffffffffffffffffff1681526020019081526020015f205f015460035f8684815181106109ef576109ee611688565b5b602002602001015173ffffffffffffffffffffffffffffffffffffffff1673ffffffffffffffffffffffffffffffffffffffff1681526020019081526020015f205f01541115610a3d578091505b8080600101915050610977565b50828181518110610a5e57610a5d611688565b5b6020026020010151838381518110610a7957610a78611688565b5b6020026020010151848481518110610a9457610a93611688565b5b60200260200101858481518110610aae57610aad611688565b5b602002602001018273ffffffffffffffffffffffffffffffffffffffff1673ffffffffffffffffffffffffffffffffffffffff168152508273ffffffffffffffffffffffffffffffffffffffff1673ffffffffffffffffffffffffffffffffffffffff16815250505050808060010191505061095a565b505f8567ffffffffffffffff811115610b4157610b4061165b565b5b604051908082528060200260200182016040528015610b6f5781602001602082028036833780820191505090505b5090505f8667ffffffffffffffff811115610b8d57610b8c61165b565b5b604051908082528060200260200182016040528015610bbb5781602001602082028036833780820191505090505b5090505f5f90505b87811015610cb957838181518110610bde57610bdd611688565b5b6020026020010151838281518110610bf957610bf8611688565b5b602002602001019073ffffffffffffffffffffffffffffffffffffffff16908173ffffffffffffffffffffffffffffffffffffffff168152505060035f858381518110610c4957610c48611688565b5b602002602001015173ffffffffffffffffffffffffffffffffffffffff1673ffffffffffffffffffffffffffffffffffffffff1681526020019081526020015f205f0154828281518110610ca057610c9f611688565b5b6020026020010181815250508080600101915050610bc3565b5081819550955050505050915091565b5f5f60035f8473ffffffffffffffffffffffffffffffffffffffff1673ffffffffffffffffffffffffffffffffffffffff1681526020019081526020015f2090505f815f015403610d1d575f915050610d71565b5f816001015442610d2e91906113cb565b90505f6301e133806064610d4291906113fe565b82600254855f0154610d5491906113fe565b610d5e91906113fe565b610d68919061146c565b90508093505050505b919050565b6301e1338081565b610d86610e62565b5f73ffffffffffffffffffffffffffffffffffffffff168173ffffffffffffffffffffffffffffffffffffffff1603610df6575f6040517f1e4fbdf7000000000000000000000000000000000000000000000000000000008152600401610ded91906110a1565b60405180910390fd5b610dff81610ee9565b50565b60015f9054906101000a900473ffffffffffffffffffffffffffffffffffffffff1681565b60048181548110610e36575f80fd5b905f5260205f20015f915054906101000a900473ffffffffffffffffffffffffffffffffffffffff1681565b610e6a610faa565b73ffffffffffffffffffffffffffffffffffffffff16610e8861057a565b73ffffffffffffffffffffffffffffffffffffffff1614610ee757610eab610faa565b6040517f118cdaa7000000000000000000000000000000000000000000000000000000008152600401610ede91906110a1565b60405180910390fd5b565b5f5f5f9054906101000a900473ffffffffffffffffffffffffffffffffffffffff169050815f5f6101000a81548173ffffffffffffffffffffffffffffffffffffffff021916908373ffffffffffffffffffffffffffffffffffffffff1602179055508173ffffffffffffffffffffffffffffffffffffffff168173ffffffffffffffffffffffffffffffffffffffff167f8be0079c531659141344cd1fd0a4f28419497f9722a3daafe3b4186f6b6457e060405160405180910390a35050565b5f33905090565b5f5ffd5b5f73ffffffffffffffffffffffffffffffffffffffff82169050919050565b5f610fde82610fb5565b9050919050565b610fee81610fd4565b8114610ff8575f5ffd5b50565b5f8135905061100981610fe5565b92915050565b5f6020828403121561102457611023610fb1565b5b5f61103184828501610ffb565b91505092915050565b5f819050919050565b61104c8161103a565b82525050565b5f6040820190506110655f830185611043565b6110726020830184611043565b9392505050565b5f60208201905061108c5f830184611043565b92915050565b61109b81610fd4565b82525050565b5f6020820190506110b45f830184611092565b92915050565b6110c38161103a565b81146110cd575f5ffd5b50565b5f813590506110de816110ba565b92915050565b5f602082840312156110f9576110f8610fb1565b5b5f611106848285016110d0565b91505092915050565b5f81519050919050565b5f82825260208201905092915050565b5f819050602082019050919050565b61114181610fd4565b82525050565b5f6111528383611138565b60208301905092915050565b5f602082019050919050565b5f6111748261110f565b61117e8185611119565b935061118983611129565b805f5b838110156111b95781516111a08882611147565b97506111ab8361115e565b92505060018101905061118c565b5085935050505092915050565b5f81519050919050565b5f82825260208201905092915050565b5f819050602082019050919050565b6111f88161103a565b82525050565b5f61120983836111ef565b60208301905092915050565b5f602082019050919050565b5f61122b826111c6565b61123581856111d0565b9350611240836111e0565b805f5b8381101561127057815161125788826111fe565b975061126283611215565b925050600181019050611243565b5085935050505092915050565b5f6040820190508181035f830152611295818561116a565b905081810360208301526112a98184611221565b90509392505050565b5f819050919050565b5f6112d56112d06112cb84610fb5565b6112b2565b610fb5565b9050919050565b5f6112e6826112bb565b9050919050565b5f6112f7826112dc565b9050919050565b611307816112ed565b82525050565b5f6020820190506113205f8301846112fe565b92915050565b5f82825260208201905092915050565b7f4e6f7468696e67207374616b65640000000000000000000000000000000000005f82015250565b5f61136a600e83611326565b915061137582611336565b602082019050919050565b5f6020820190508181035f8301526113978161135e565b9050919050565b7f4e487b71000000000000000000000000000000000000000000000000000000005f52601160045260245ffd5b5f6113d58261103a565b91506113e08361103a565b92508282039050818111156113f8576113f761139e565b5b92915050565b5f6114088261103a565b91506114138361103a565b92508282026114218161103a565b915082820484148315176114385761143761139e565b5b5092915050565b7f4e487b71000000000000000000000000000000000000000000000000000000005f52601260045260245ffd5b5f6114768261103a565b91506114818361103a565b9250826114915761149061143f565b5b828204905092915050565b5f6114a68261103a565b91506114b18361103a565b92508282019050808211156114c9576114c861139e565b5b92915050565b5f6040820190506114e25f830185611092565b6114ef6020830184611043565b9392505050565b5f8115159050919050565b61150a816114f6565b8114611514575f5ffd5b50565b5f8151905061152581611501565b92915050565b5f602082840312156115405761153f610fb1565b5b5f61154d84828501611517565b91505092915050565b7f4e6f20616374697665207374616b6500000000000000000000000000000000005f82015250565b5f61158a600f83611326565b915061159582611556565b602082019050919050565b5f6020820190508181035f8301526115b78161157e565b9050919050565b7f43616e6e6f74207374616b6520300000000000000000000000000000000000005f82015250565b5f6115f2600e83611326565b91506115fd826115be565b602082019050919050565b5f6020820190508181035f83015261161f816115e6565b9050919050565b5f6060820190506116395f830186611092565b6116466020830185611092565b6116536040830184611043565b949350505050565b7f4e487b71000000000000000000000000000000000000000000000000000000005f52604160045260245ffd5b7f4e487b71000000000000000000000000000000000000000000000000000000005f52603260045260245ffdfea2646970667358221220007c2794209b4ecc91ba0270ca838ebbdb3e678055b917da3066572c1e369d7364736f6c634300081e0033",
					"opcodes": "PUSH1 0x80 PUSH1 0x40 MSTORE PUSH1 0xA PUSH1 0x2 SSTORE CALLVALUE DUP1 ISZERO PUSH2 0x14 JUMPI PUSH0 PUSH0 REVERT JUMPDEST POP PUSH1 0x40 MLOAD PUSH2 0x1967 CODESIZE SUB DUP1 PUSH2 0x1967 DUP4 CODECOPY DUP2 DUP2 ADD PUSH1 0x40 MSTORE DUP2 ADD SWAP1 PUSH2 0x36 SWAP2 SWAP1 PUSH2 0x21C JUMP JUMPDEST CALLER PUSH0 PUSH20 0xFFFFFFFFFFFFFFFFFFFFFFFFFFFFFFFFFFFFFFFF AND DUP2 PUSH20 0xFFFFFFFFFFFFFFFFFFFFFFFFFFFFFFFFFFFFFFFF AND SUB PUSH2 0xA7 JUMPI PUSH0 PUSH1 0x40 MLOAD PUSH32 0x1E4FBDF700000000000000000000000000000000000000000000000000000000 DUP2 MSTORE PUSH1 0x4 ADD PUSH2 0x9E SWAP2 SWAP1 PUSH2 0x256 JUMP JUMPDEST PUSH1 0x40 MLOAD DUP1 SWAP2 SUB SWAP1 REVERT JUMPDEST PUSH2 0xB6 DUP2 PUSH2 0xFD PUSH1 0x20 SHL PUSH1 0x20 SHR JUMP JUMPDEST POP DUP1 PUSH1 0x1 PUSH0 PUSH2 0x100 EXP DUP2 SLOAD DUP2 PUSH20 0xFFFFFFFFFFFFFFFFFFFFFFFFFFFFFFFFFFFFFFFF MUL NOT AND SWAP1 DUP4 PUSH20 0xFFFFFFFFFFFFFFFFFFFFFFFFFFFFFFFFFFFFFFFF AND MUL OR SWAP1 SSTORE POP POP PUSH2 0x26F JUMP JUMPDEST PUSH0 PUSH0 PUSH0 SWAP1 SLOAD SWAP1 PUSH2 0x100 EXP SWAP1 DIV PUSH20 0xFFFFFFFFFFFFFFFFFFFFFFFFFFFFFFFFFFFFFFFF AND SWAP1 POP DUP2 PUSH0 PUSH0 PUSH2 0x100 EXP DUP2 SLOAD DUP2 PUSH20 0xFFFFFFFFFFFFFFFFFFFFFFFFFFFFFFFFFFFFFFFF MUL NOT AND SWAP1 DUP4 PUSH20 0xFFFFFFFFFFFFFFFFFFFFFFFFFFFFFFFFFFFFFFFF AND MUL OR SWAP1 SSTORE POP DUP2 PUSH20 0xFFFFFFFFFFFFFFFFFFFFFFFFFFFFFFFFFFFFFFFF AND DUP2 PUSH20 0xFFFFFFFFFFFFFFFFFFFFFFFFFFFFFFFFFFFFFFFF AND PUSH32 0x8BE0079C531659141344CD1FD0A4F28419497F9722A3DAAFE3B4186F6B6457E0 PUSH1 0x40 MLOAD PUSH1 0x40 MLOAD DUP1 SWAP2 SUB SWAP1 LOG3 POP POP JUMP JUMPDEST PUSH0 PUSH0 REVERT JUMPDEST PUSH0 PUSH20 0xFFFFFFFFFFFFFFFFFFFFFFFFFFFFFFFFFFFFFFFF DUP3 AND SWAP1 POP SWAP2 SWAP1 POP JUMP JUMPDEST PUSH0 PUSH2 0x1EB DUP3 PUSH2 0x1C2 JUMP JUMPDEST SWAP1 POP SWAP2 SWAP1 POP JUMP JUMPDEST PUSH2 0x1FB DUP2 PUSH2 0x1E1 JUMP JUMPDEST DUP2 EQ PUSH2 0x205 JUMPI PUSH0 PUSH0 REVERT JUMPDEST POP JUMP JUMPDEST PUSH0 DUP2 MLOAD SWAP1 POP PUSH2 0x216 DUP2 PUSH2 0x1F2 JUMP JUMPDEST SWAP3 SWAP2 POP POP JUMP JUMPDEST PUSH0 PUSH1 0x20 DUP3 DUP5 SUB SLT ISZERO PUSH2 0x231 JUMPI PUSH2 0x230 PUSH2 0x1BE JUMP JUMPDEST JUMPDEST PUSH0 PUSH2 0x23E DUP5 DUP3 DUP6 ADD PUSH2 0x208 JUMP JUMPDEST SWAP2 POP POP SWAP3 SWAP2 POP POP JUMP JUMPDEST PUSH2 0x250 DUP2 PUSH2 0x1E1 JUMP JUMPDEST DUP3 MSTORE POP POP JUMP JUMPDEST PUSH0 PUSH1 0x20 DUP3 ADD SWAP1 POP PUSH2 0x269 PUSH0 DUP4 ADD DUP5 PUSH2 0x247 JUMP JUMPDEST SWAP3 SWAP2 POP POP JUMP JUMPDEST PUSH2 0x16EB DUP1 PUSH2 0x27C PUSH0 CODECOPY PUSH0 RETURN INVALID PUSH1 0x80 PUSH1 0x40 MSTORE CALLVALUE DUP1 ISZERO PUSH2 0xF JUMPI PUSH0 PUSH0 REVERT JUMPDEST POP PUSH1 0x4 CALLDATASIZE LT PUSH2 0xFE JUMPI PUSH0 CALLDATALOAD PUSH1 0xE0 SHR DUP1 PUSH4 0x9E447FC6 GT PUSH2 0x95 JUMPI DUP1 PUSH4 0xE6A69AB8 GT PUSH2 0x64 JUMPI DUP1 PUSH4 0xE6A69AB8 EQ PUSH2 0x262 JUMPI DUP1 PUSH4 0xF2FDE38B EQ PUSH2 0x280 JUMPI DUP1 PUSH4 0xFC0C546A EQ PUSH2 0x29C JUMPI DUP1 PUSH4 0xFD5E6DD1 EQ PUSH2 0x2BA JUMPI PUSH2 0xFE JUMP JUMPDEST DUP1 PUSH4 0x9E447FC6 EQ PUSH2 0x1C9 JUMPI DUP1 PUSH4 0xA694FC3A EQ PUSH2 0x1E5 JUMPI DUP1 PUSH4 0xC80CA39A EQ PUSH2 0x201 JUMPI DUP1 PUSH4 0xD82E3962 EQ PUSH2 0x232 JUMPI PUSH2 0xFE JUMP JUMPDEST DUP1 PUSH4 0x4E71D92D GT PUSH2 0xD1 JUMPI DUP1 PUSH4 0x4E71D92D EQ PUSH2 0x179 JUMPI DUP1 PUSH4 0x715018A6 EQ PUSH2 0x183 JUMPI DUP1 PUSH4 0x7B0A47EE EQ PUSH2 0x18D JUMPI DUP1 PUSH4 0x8DA5CB5B EQ PUSH2 0x1AB JUMPI PUSH2 0xFE JUMP JUMPDEST DUP1 PUSH4 0x16934FC4 EQ PUSH2 0x102 JUMPI DUP1 PUSH4 0x1820CABB EQ PUSH2 0x133 JUMPI DUP1 PUSH4 0x1F4531F5 EQ PUSH2 0x151 JUMPI DUP1 PUSH4 0x2DEF6620 EQ PUSH2 0x16F JUMPI JUMPDEST PUSH0 PUSH0 REVERT JUMPDEST PUSH2 0x11C PUSH1 0x4 DUP1 CALLDATASIZE SUB DUP2 ADD SWAP1 PUSH2 0x117 SWAP2 SWAP1 PUSH2 0x100F JUMP JUMPDEST PUSH2 0x2EA JUMP JUMPDEST PUSH1 0x40 MLOAD PUSH2 0x12A SWAP3 SWAP2 SWAP1 PUSH2 0x1052 JUMP JUMPDEST PUSH1 0x40 MLOAD DUP1 SWAP2 SUB SWAP1 RETURN JUMPDEST PUSH2 0x13B PUSH2 0x30A JUMP JUMPDEST PUSH1 0x40 MLOAD PUSH2 0x148 SWAP2 SWAP1 PUSH2 0x1079 JUMP JUMPDEST PUSH1 0x40 MLOAD DUP1 SWAP2 SUB SWAP1 RETURN JUMPDEST PUSH2 0x159 PUSH2 0x311 JUMP JUMPDEST PUSH1 0x40 MLOAD PUSH2 0x166 SWAP2 SWAP1 PUSH2 0x1079 JUMP JUMPDEST PUSH1 0x40 MLOAD DUP1 SWAP2 SUB SWAP1 RETURN JUMPDEST PUSH2 0x177 PUSH2 0x316 JUMP JUMPDEST STOP JUMPDEST PUSH2 0x181 PUSH2 0x4AA JUMP JUMPDEST STOP JUMPDEST PUSH2 0x18B PUSH2 0x561 JUMP JUMPDEST STOP JUMPDEST PUSH2 0x195 PUSH2 0x574 JUMP JUMPDEST PUSH1 0x40 MLOAD PUSH2 0x1A2 SWAP2 SWAP1 PUSH2 0x1079 JUMP JUMPDEST PUSH1 0x40 MLOAD DUP1 SWAP2 SUB SWAP1 RETURN JUMPDEST PUSH2 0x1B3 PUSH2 0x57A JUMP JUMPDEST PUSH1 0x40 MLOAD PUSH2 0x1C0 SWAP2 SWAP1 PUSH2 0x10A1 JUMP JUMPDEST PUSH1 0x40 MLOAD DUP1 SWAP2 SUB SWAP1 RETURN JUMPDEST PUSH2 0x1E3 PUSH1 0x4 DUP1 CALLDATASIZE SUB DUP2 ADD SWAP1 PUSH2 0x1DE SWAP2 SWAP1 PUSH2 0x10E4 JUMP JUMPDEST PUSH2 0x5A1 JUMP JUMPDEST STOP JUMPDEST PUSH2 0x1FF PUSH1 0x4 DUP1 CALLDATASIZE SUB DUP2 ADD SWAP1 PUSH2 0x1FA SWAP2 SWAP1 PUSH2 0x10E4 JUMP JUMPDEST PUSH2 0x5B3 JUMP JUMPDEST STOP JUMPDEST PUSH2 0x21B PUSH1 0x4 DUP1 CALLDATASIZE SUB DUP2 ADD SWAP1 PUSH2 0x216 SWAP2 SWAP1 PUSH2 0x10E4 JUMP JUMPDEST PUSH2 0x84D JUMP JUMPDEST PUSH1 0x40 MLOAD PUSH2 0x229 SWAP3 SWAP2 SWAP1 PUSH2 0x127D JUMP JUMPDEST PUSH1 0x40 MLOAD DUP1 SWAP2 SUB SWAP1 RETURN JUMPDEST PUSH2 0x24C PUSH1 0x4 DUP1 CALLDATASIZE SUB DUP2 ADD SWAP1 PUSH2 0x247 SWAP2 SWAP1 PUSH2 0x100F JUMP JUMPDEST PUSH2 0xCC9 JUMP JUMPDEST PUSH1 0x40 MLOAD PUSH2 0x259 SWAP2 SWAP1 PUSH2 0x1079 JUMP JUMPDEST PUSH1 0x40 MLOAD DUP1 SWAP2 SUB SWAP1 RETURN JUMPDEST PUSH2 0x26A PUSH2 0xD76 JUMP JUMPDEST PUSH1 0x40 MLOAD PUSH2 0x277 SWAP2 SWAP1 PUSH2 0x1079 JUMP JUMPDEST PUSH1 0x40 MLOAD DUP1 SWAP2 SUB SWAP1 RETURN JUMPDEST PUSH2 0x29A PUSH1 0x4 DUP1 CALLDATASIZE SUB DUP2 ADD SWAP1 PUSH2 0x295 SWAP2 SWAP1 PUSH2 0x100F JUMP JUMPDEST PUSH2 0xD7E JUMP JUMPDEST STOP JUMPDEST PUSH2 0x2A4 PUSH2 0xE02 JUMP JUMPDEST PUSH1 0x40 MLOAD PUSH2 0x2B1 SWAP2 SWAP1 PUSH2 0x130D JUMP JUMPDEST PUSH1 0x40 MLOAD DUP1 SWAP2 SUB SWAP1 RETURN JUMPDEST PUSH2 0x2D4 PUSH1 0x4 DUP1 CALLDATASIZE SUB DUP2 ADD SWAP1 PUSH2 0x2CF SWAP2 SWAP1 PUSH2 0x10E4 JUMP JUMPDEST PUSH2 0xE27 JUMP JUMPDEST PUSH1 0x40 MLOAD PUSH2 0x2E1 SWAP2 SWAP1 PUSH2 0x10A1 JUMP JUMPDEST PUSH1 0x40 MLOAD DUP1 SWAP2 SUB SWAP1 RETURN JUMPDEST PUSH1 0x3 PUSH1 0x20 MSTORE DUP1 PUSH0 MSTORE PUSH1 0x40 PUSH0 KECCAK256 PUSH0 SWAP2 POP SWAP1 POP DUP1 PUSH0 ADD SLOAD SWAP1 DUP1 PUSH1 0x1 ADD SLOAD SWAP1 POP DUP3 JUMP JUMPDEST PUSH3 0x15180 DUP2 JUMP JUMPDEST PUSH1 0x32 DUP2 JUMP JUMPDEST PUSH0 PUSH1 0x3 PUSH0 CALLER PUSH20 0xFFFFFFFFFFFFFFFFFFFFFFFFFFFFFFFFFFFFFFFF AND PUSH20 0xFFFFFFFFFFFFFFFFFFFFFFFFFFFFFFFFFFFFFFFF AND DUP2 MSTORE PUSH1 0x20 ADD SWAP1 DUP2 MSTORE PUSH1 0x20 ADD PUSH0 KECCAK256 SWAP1 POP PUSH0 DUP2 PUSH0 ADD SLOAD GT PUSH2 0x39B JUMPI PUSH1 0x40 MLOAD PUSH32 0x8C379A000000000000000000000000000000000000000000000000000000000 DUP2 MSTORE PUSH1 0x4 ADD PUSH2 0x392 SWAP1 PUSH2 0x1380 JUMP JUMPDEST PUSH1 0x40 MLOAD DUP1 SWAP2 SUB SWAP1 REVERT JUMPDEST PUSH0 PUSH2 0x3A5 CALLER PUSH2 0xCC9 JUMP JUMPDEST SWAP1 POP PUSH0 DUP3 PUSH1 0x1 ADD SLOAD TIMESTAMP PUSH2 0x3B8 SWAP2 SWAP1 PUSH2 0x13CB JUMP JUMPDEST SWAP1 POP PUSH3 0x15180 DUP2 LT ISZERO PUSH2 0x3ED JUMPI PUSH1 0x64 PUSH1 0x32 PUSH1 0x64 PUSH2 0x3D5 SWAP2 SWAP1 PUSH2 0x13CB JUMP JUMPDEST DUP4 PUSH2 0x3E0 SWAP2 SWAP1 PUSH2 0x13FE JUMP JUMPDEST PUSH2 0x3EA SWAP2 SWAP1 PUSH2 0x146C JUMP JUMPDEST SWAP2 POP JUMPDEST PUSH0 DUP4 PUSH0 ADD SLOAD SWAP1 POP PUSH0 DUP5 PUSH0 ADD DUP2 SWAP1 SSTORE POP PUSH1 0x1 PUSH0 SWAP1 SLOAD SWAP1 PUSH2 0x100 EXP SWAP1 DIV PUSH20 0xFFFFFFFFFFFFFFFFFFFFFFFFFFFFFFFFFFFFFFFF AND PUSH20 0xFFFFFFFFFFFFFFFFFFFFFFFFFFFFFFFFFFFFFFFF AND PUSH4 0xA9059CBB CALLER DUP6 DUP5 PUSH2 0x446 SWAP2 SWAP1 PUSH2 0x149C JUMP JUMPDEST PUSH1 0x40 MLOAD DUP4 PUSH4 0xFFFFFFFF AND PUSH1 0xE0 SHL DUP2 MSTORE PUSH1 0x4 ADD PUSH2 0x463 SWAP3 SWAP2 SWAP1 PUSH2 0x14CF JUMP JUMPDEST PUSH1 0x20 PUSH1 0x40 MLOAD DUP1 DUP4 SUB DUP2 PUSH0 DUP8 GAS CALL ISZERO DUP1 ISZERO PUSH2 0x47F JUMPI RETURNDATASIZE PUSH0 PUSH0 RETURNDATACOPY RETURNDATASIZE PUSH0 REVERT JUMPDEST POP POP POP POP PUSH1 0x40 MLOAD RETURNDATASIZE PUSH1 0x1F NOT PUSH1 0x1F DUP3 ADD AND DUP3 ADD DUP1 PUSH1 0x40 MSTORE POP DUP2 ADD SWAP1 PUSH2 0x4A3 SWAP2 SWAP1 PUSH2 0x152B JUMP JUMPDEST POP POP POP POP POP JUMP JUMPDEST PUSH0 PUSH1 0x3 PUSH0 CALLER PUSH20 0xFFFFFFFFFFFFFFFFFFFFFFFFFFFFFFFFFFFFFFFF AND PUSH20 0xFFFFFFFFFFFFFFFFFFFFFFFFFFFFFFFFFFFFFFFF AND DUP2 MSTORE PUSH1 0x20 ADD SWAP1 DUP2 MSTORE PUSH1 0x20 ADD PUSH0 KECCAK256 SWAP1 POP PUSH0 DUP2 PUSH0 ADD SLOAD GT PUSH2 0x52F JUMPI PUSH1 0x40 MLOAD PUSH32 0x8C379A000000000000000000000000000000000000000000000000000000000 DUP2 MSTORE PUSH1 0x4 ADD PUSH2 0x526 SWAP1 PUSH2 0x15A0 JUMP JUMPDEST PUSH1 0x40 MLOAD DUP1 SWAP2 SUB SWAP1 REVERT JUMPDEST PUSH0 PUSH2 0x539 CALLER PUSH2 0xCC9 JUMP JUMPDEST SWAP1 POP DUP1 DUP3 PUSH0 ADD PUSH0 DUP3 DUP3 SLOAD PUSH2 0x54D SWAP2 SWAP1 PUSH2 0x149C JUMP JUMPDEST SWAP3 POP POP DUP2 SWAP1 SSTORE POP TIMESTAMP DUP3 PUSH1 0x1 ADD DUP2 SWAP1 SSTORE POP POP POP JUMP JUMPDEST PUSH2 0x569 PUSH2 0xE62 JUMP JUMPDEST PUSH2 0x572 PUSH0 PUSH2 0xEE9 JUMP JUMPDEST JUMP JUMPDEST PUSH1 0x2 SLOAD DUP2 JUMP JUMPDEST PUSH0 PUSH0 PUSH0 SWAP1 SLOAD SWAP1 PUSH2 0x100 EXP SWAP1 DIV PUSH20 0xFFFFFFFFFFFFFFFFFFFFFFFFFFFFFFFFFFFFFFFF AND SWAP1 POP SWAP1 JUMP JUMPDEST PUSH2 0x5A9 PUSH2 0xE62 JUMP JUMPDEST DUP1 PUSH1 0x2 DUP2 SWAP1 SSTORE POP POP JUMP JUMPDEST PUSH0 DUP2 GT PUSH2 0x5F5 JUMPI PUSH1 0x40 MLOAD PUSH32 0x8C379A000000000000000000000000000000000000000000000000000000000 DUP2 MSTORE PUSH1 0x4 ADD PUSH2 0x5EC SWAP1 PUSH2 0x1608 JUMP JUMPDEST PUSH1 0x40 MLOAD DUP1 SWAP2 SUB SWAP1 REVERT JUMPDEST PUSH0 PUSH1 0x3 PUSH0 CALLER PUSH20 0xFFFFFFFFFFFFFFFFFFFFFFFFFFFFFFFFFFFFFFFF AND PUSH20 0xFFFFFFFFFFFFFFFFFFFFFFFFFFFFFFFFFFFFFFFF AND DUP2 MSTORE PUSH1 0x20 ADD SWAP1 DUP2 MSTORE PUSH1 0x20 ADD PUSH0 KECCAK256 PUSH0 ADD SLOAD GT ISZERO PUSH2 0x69E JUMPI PUSH2 0x644 PUSH2 0x4AA JUMP JUMPDEST DUP1 PUSH1 0x3 PUSH0 CALLER PUSH20 0xFFFFFFFFFFFFFFFFFFFFFFFFFFFFFFFFFFFFFFFF AND PUSH20 0xFFFFFFFFFFFFFFFFFFFFFFFFFFFFFFFFFFFFFFFF AND DUP2 MSTORE PUSH1 0x20 ADD SWAP1 DUP2 MSTORE PUSH1 0x20 ADD PUSH0 KECCAK256 PUSH0 ADD PUSH0 DUP3 DUP3 SLOAD PUSH2 0x692 SWAP2 SWAP1 PUSH2 0x149C JUMP JUMPDEST SWAP3 POP POP DUP2 SWAP1 SSTORE POP PUSH2 0x766 JUMP JUMPDEST PUSH1 0x40 MLOAD DUP1 PUSH1 0x40 ADD PUSH1 0x40 MSTORE DUP1 DUP3 DUP2 MSTORE PUSH1 0x20 ADD TIMESTAMP DUP2 MSTORE POP PUSH1 0x3 PUSH0 CALLER PUSH20 0xFFFFFFFFFFFFFFFFFFFFFFFFFFFFFFFFFFFFFFFF AND PUSH20 0xFFFFFFFFFFFFFFFFFFFFFFFFFFFFFFFFFFFFFFFF AND DUP2 MSTORE PUSH1 0x20 ADD SWAP1 DUP2 MSTORE PUSH1 0x20 ADD PUSH0 KECCAK256 PUSH0 DUP3 ADD MLOAD DUP2 PUSH0 ADD SSTORE PUSH1 0x20 DUP3 ADD MLOAD DUP2 PUSH1 0x1 ADD SSTORE SWAP1 POP POP PUSH1 0x4 CALLER SWAP1 DUP1 PUSH1 0x1 DUP2 SLOAD ADD DUP1 DUP3 SSTORE DUP1 SWAP2 POP POP PUSH1 0x1 SWAP1 SUB SWAP1 PUSH0 MSTORE PUSH1 0x20 PUSH0 KECCAK256 ADD PUSH0 SWAP1 SWAP2 SWAP1 SWAP2 SWAP1 SWAP2 PUSH2 0x100 EXP DUP2 SLOAD DUP2 PUSH20 0xFFFFFFFFFFFFFFFFFFFFFFFFFFFFFFFFFFFFFFFF MUL NOT AND SWAP1 DUP4 PUSH20 0xFFFFFFFFFFFFFFFFFFFFFFFFFFFFFFFFFFFFFFFF AND MUL OR SWAP1 SSTORE POP JUMPDEST PUSH1 0x1 PUSH0 SWAP1 SLOAD SWAP1 PUSH2 0x100 EXP SWAP1 DIV PUSH20 0xFFFFFFFFFFFFFFFFFFFFFFFFFFFFFFFFFFFFFFFF AND PUSH20 0xFFFFFFFFFFFFFFFFFFFFFFFFFFFFFFFFFFFFFFFF AND PUSH4 0x23B872DD CALLER ADDRESS DUP5 PUSH1 0x40 MLOAD DUP5 PUSH4 0xFFFFFFFF AND PUSH1 0xE0 SHL DUP2 MSTORE PUSH1 0x4 ADD PUSH2 0x7C4 SWAP4 SWAP3 SWAP2 SWAP1 PUSH2 0x1626 JUMP JUMPDEST PUSH1 0x20 PUSH1 0x40 MLOAD DUP1 DUP4 SUB DUP2 PUSH0 DUP8 GAS CALL ISZERO DUP1 ISZERO PUSH2 0x7E0 JUMPI RETURNDATASIZE PUSH0 PUSH0 RETURNDATACOPY RETURNDATASIZE PUSH0 REVERT JUMPDEST POP POP POP POP PUSH1 0x40 MLOAD RETURNDATASIZE PUSH1 0x1F NOT PUSH1 0x1F DUP3 ADD AND DUP3 ADD DUP1 PUSH1 0x40 MSTORE POP DUP2 ADD SWAP1 PUSH2 0x804 SWAP2 SWAP1 PUSH2 0x152B JUMP JUMPDEST POP TIMESTAMP PUSH1 0x3 PUSH0 CALLER PUSH20 0xFFFFFFFFFFFFFFFFFFFFFFFFFFFFFFFFFFFFFFFF AND PUSH20 0xFFFFFFFFFFFFFFFFFFFFFFFFFFFFFFFFFFFFFFFF AND DUP2 MSTORE PUSH1 0x20 ADD SWAP1 DUP2 MSTORE PUSH1 0x20 ADD PUSH0 KECCAK256 PUSH1 0x1 ADD DUP2 SWAP1 SSTORE POP POP JUMP JUMPDEST PUSH1 0x60 DUP1 PUSH0 PUSH1 0x4 DUP1 SLOAD SWAP1 POP SWAP1 POP DUP1 DUP5 GT ISZERO PUSH2 0x865 JUMPI DUP1 SWAP4 POP JUMPDEST PUSH0 DUP2 PUSH8 0xFFFFFFFFFFFFFFFF DUP2 GT ISZERO PUSH2 0x880 JUMPI PUSH2 0x87F PUSH2 0x165B JUMP JUMPDEST JUMPDEST PUSH1 0x40 MLOAD SWAP1 DUP1 DUP3 MSTORE DUP1 PUSH1 0x20 MUL PUSH1 0x20 ADD DUP3 ADD PUSH1 0x40 MSTORE DUP1 ISZERO PUSH2 0x8AE JUMPI DUP2 PUSH1 0x20 ADD PUSH1 0x20 DUP3 MUL DUP1 CALLDATASIZE DUP4 CALLDATACOPY DUP1 DUP3 ADD SWAP2 POP POP SWAP1 POP JUMPDEST POP SWAP1 POP PUSH0 PUSH0 SWAP1 POP JUMPDEST DUP3 DUP2 LT ISZERO PUSH2 0x954 JUMPI PUSH1 0x4 DUP2 DUP2 SLOAD DUP2 LT PUSH2 0x8D2 JUMPI PUSH2 0x8D1 PUSH2 0x1688 JUMP JUMPDEST JUMPDEST SWAP1 PUSH0 MSTORE PUSH1 0x20 PUSH0 KECCAK256 ADD PUSH0 SWAP1 SLOAD SWAP1 PUSH2 0x100 EXP SWAP1 DIV PUSH20 0xFFFFFFFFFFFFFFFFFFFFFFFFFFFFFFFFFFFFFFFF AND DUP3 DUP3 DUP2 MLOAD DUP2 LT PUSH2 0x90D JUMPI PUSH2 0x90C PUSH2 0x1688 JUMP JUMPDEST JUMPDEST PUSH1 0x20 MUL PUSH1 0x20 ADD ADD SWAP1 PUSH20 0xFFFFFFFFFFFFFFFFFFFFFFFFFFFFFFFFFFFFFFFF AND SWAP1 DUP2 PUSH20 0xFFFFFFFFFFFFFFFFFFFFFFFFFFFFFFFFFFFFFFFF AND DUP2 MSTORE POP POP DUP1 DUP1 PUSH1 0x1 ADD SWAP2 POP POP PUSH2 0x8B6 JUMP JUMPDEST POP PUSH0 PUSH0 SWAP1 POP JUMPDEST DUP6 DUP2 LT ISZERO PUSH2 0xB25 JUMPI PUSH0 DUP2 SWAP1 POP PUSH0 PUSH1 0x1 DUP4 PUSH2 0x974 SWAP2 SWAP1 PUSH2 0x149C JUMP JUMPDEST SWAP1 POP JUMPDEST DUP5 DUP2 LT ISZERO PUSH2 0xA4A JUMPI PUSH1 0x3 PUSH0 DUP6 DUP5 DUP2 MLOAD DUP2 LT PUSH2 0x995 JUMPI PUSH2 0x994 PUSH2 0x1688 JUMP JUMPDEST JUMPDEST PUSH1 0x20 MUL PUSH1 0x20 ADD ADD MLOAD PUSH20 0xFFFFFFFFFFFFFFFFFFFFFFFFFFFFFFFFFFFFFFFF AND PUSH20 0xFFFFFFFFFFFFFFFFFFFFFFFFFFFFFFFFFFFFFFFF AND DUP2 MSTORE PUSH1 0x20 ADD SWAP1 DUP2 MSTORE PUSH1 0x20 ADD PUSH0 KECCAK256 PUSH0 ADD SLOAD PUSH1 0x3 PUSH0 DUP7 DUP5 DUP2 MLOAD DUP2 LT PUSH2 0x9EF JUMPI PUSH2 0x9EE PUSH2 0x1688 JUMP JUMPDEST JUMPDEST PUSH1 0x20 MUL PUSH1 0x20 ADD ADD MLOAD PUSH20 0xFFFFFFFFFFFFFFFFFFFFFFFFFFFFFFFFFFFFFFFF AND PUSH20 0xFFFFFFFFFFFFFFFFFFFFFFFFFFFFFFFFFFFFFFFF AND DUP2 MSTORE PUSH1 0x20 ADD SWAP1 DUP2 MSTORE PUSH1 0x20 ADD PUSH0 KECCAK256 PUSH0 ADD SLOAD GT ISZERO PUSH2 0xA3D JUMPI DUP1 SWAP2 POP JUMPDEST DUP1 DUP1 PUSH1 0x1 ADD SWAP2 POP POP PUSH2 0x977 JUMP JUMPDEST POP DUP3 DUP2 DUP2 MLOAD DUP2 LT PUSH2 0xA5E JUMPI PUSH2 0xA5D PUSH2 0x1688 JUMP JUMPDEST JUMPDEST PUSH1 0x20 MUL PUSH1 0x20 ADD ADD MLOAD DUP4 DUP4 DUP2 MLOAD DUP2 LT PUSH2 0xA79 JUMPI PUSH2 0xA78 PUSH2 0x1688 JUMP JUMPDEST JUMPDEST PUSH1 0x20 MUL PUSH1 0x20 ADD ADD MLOAD DUP5 DUP5 DUP2 MLOAD DUP2 LT PUSH2 0xA94 JUMPI PUSH2 0xA93 PUSH2 0x1688 JUMP JUMPDEST JUMPDEST PUSH1 0x20 MUL PUSH1 0x20 ADD ADD DUP6 DUP5 DUP2 MLOAD DUP2 LT PUSH2 0xAAE JUMPI PUSH2 0xAAD PUSH2 0x1688 JUMP JUMPDEST JUMPDEST PUSH1 0x20 MUL PUSH1 0x20 ADD ADD DUP3 PUSH20 0xFFFFFFFFFFFFFFFFFFFFFFFFFFFFFFFFFFFFFFFF AND PUSH20 0xFFFFFFFFFFFFFFFFFFFFFFFFFFFFFFFFFFFFFFFF AND DUP2 MSTORE POP DUP3 PUSH20 0xFFFFFFFFFFFFFFFFFFFFFFFFFFFFFFFFFFFFFFFF AND PUSH20 0xFFFFFFFFFFFFFFFFFFFFFFFFFFFFFFFFFFFFFFFF AND DUP2 MSTORE POP POP POP POP DUP1 DUP1 PUSH1 0x1 ADD SWAP2 POP POP PUSH2 0x95A JUMP JUMPDEST POP PUSH0 DUP6 PUSH8 0xFFFFFFFFFFFFFFFF DUP2 GT ISZERO PUSH2 0xB41 JUMPI PUSH2 0xB40 PUSH2 0x165B JUMP JUMPDEST JUMPDEST PUSH1 0x40 MLOAD SWAP1 DUP1 DUP3 MSTORE DUP1 PUSH1 0x20 MUL PUSH1 0x20 ADD DUP3 ADD PUSH1 0x40 MSTORE DUP1 ISZERO PUSH2 0xB6F JUMPI DUP2 PUSH1 0x20 ADD PUSH1 0x20 DUP3 MUL DUP1 CALLDATASIZE DUP4 CALLDATACOPY DUP1 DUP3 ADD SWAP2 POP POP SWAP1 POP JUMPDEST POP SWAP1 POP PUSH0 DUP7 PUSH8 0xFFFFFFFFFFFFFFFF DUP2 GT ISZERO PUSH2 0xB8D JUMPI PUSH2 0xB8C PUSH2 0x165B JUMP JUMPDEST JUMPDEST PUSH1 0x40 MLOAD SWAP1 DUP1 DUP3 MSTORE DUP1 PUSH1 0x20 MUL PUSH1 0x20 ADD DUP3 ADD PUSH1 0x40 MSTORE DUP1 ISZERO PUSH2 0xBBB JUMPI DUP2 PUSH1 0x20 ADD PUSH1 0x20 DUP3 MUL DUP1 CALLDATASIZE DUP4 CALLDATACOPY DUP1 DUP3 ADD SWAP2 POP POP SWAP1 POP JUMPDEST POP SWAP1 POP PUSH0 PUSH0 SWAP1 POP JUMPDEST DUP8 DUP2 LT ISZERO PUSH2 0xCB9 JUMPI DUP4 DUP2 DUP2 MLOAD DUP2 LT PUSH2 0xBDE JUMPI PUSH2 0xBDD PUSH2 0x1688 JUMP JUMPDEST JUMPDEST PUSH1 0x20 MUL PUSH1 0x20 ADD ADD MLOAD DUP4 DUP3 DUP2 MLOAD DUP2 LT PUSH2 0xBF9 JUMPI PUSH2 0xBF8 PUSH2 0x1688 JUMP JUMPDEST JUMPDEST PUSH1 0x20 MUL PUSH1 0x20 ADD ADD SWAP1 PUSH20 0xFFFFFFFFFFFFFFFFFFFFFFFFFFFFFFFFFFFFFFFF AND SWAP1 DUP2 PUSH20 0xFFFFFFFFFFFFFFFFFFFFFFFFFFFFFFFFFFFFFFFF AND DUP2 MSTORE POP POP PUSH1 0x3 PUSH0 DUP6 DUP4 DUP2 MLOAD DUP2 LT PUSH2 0xC49 JUMPI PUSH2 0xC48 PUSH2 0x1688 JUMP JUMPDEST JUMPDEST PUSH1 0x20 MUL PUSH1 0x20 ADD ADD MLOAD PUSH20 0xFFFFFFFFFFFFFFFFFFFFFFFFFFFFFFFFFFFFFFFF AND PUSH20 0xFFFFFFFFFFFFFFFFFFFFFFFFFFFFFFFFFFFFFFFF AND DUP2 MSTORE PUSH1 0x20 ADD SWAP1 DUP2 MSTORE PUSH1 0x20 ADD PUSH0 KECCAK256 PUSH0 ADD SLOAD DUP3 DUP3 DUP2 MLOAD DUP2 LT PUSH2 0xCA0 JUMPI PUSH2 0xC9F PUSH2 0x1688 JUMP JUMPDEST JUMPDEST PUSH1 0x20 MUL PUSH1 0x20 ADD ADD DUP2 DUP2 MSTORE POP POP DUP1 DUP1 PUSH1 0x1 ADD SWAP2 POP POP PUSH2 0xBC3 JUMP JUMPDEST POP DUP2 DUP2 SWAP6 POP SWAP6 POP POP POP POP POP SWAP2 POP SWAP2 JUMP JUMPDEST PUSH0 PUSH0 PUSH1 0x3 PUSH0 DUP5 PUSH20 0xFFFFFFFFFFFFFFFFFFFFFFFFFFFFFFFFFFFFFFFF AND PUSH20 0xFFFFFFFFFFFFFFFFFFFFFFFFFFFFFFFFFFFFFFFF AND DUP2 MSTORE PUSH1 0x20 ADD SWAP1 DUP2 MSTORE PUSH1 0x20 ADD PUSH0 KECCAK256 SWAP1 POP PUSH0 DUP2 PUSH0 ADD SLOAD SUB PUSH2 0xD1D JUMPI PUSH0 SWAP2 POP POP PUSH2 0xD71 JUMP JUMPDEST PUSH0 DUP2 PUSH1 0x1 ADD SLOAD TIMESTAMP PUSH2 0xD2E SWAP2 SWAP1 PUSH2 0x13CB JUMP JUMPDEST SWAP1 POP PUSH0 PUSH4 0x1E13380 PUSH1 0x64 PUSH2 0xD42 SWAP2 SWAP1 PUSH2 0x13FE JUMP JUMPDEST DUP3 PUSH1 0x2 SLOAD DUP6 PUSH0 ADD SLOAD PUSH2 0xD54 SWAP2 SWAP1 PUSH2 0x13FE JUMP JUMPDEST PUSH2 0xD5E SWAP2 SWAP1 PUSH2 0x13FE JUMP JUMPDEST PUSH2 0xD68 SWAP2 SWAP1 PUSH2 0x146C JUMP JUMPDEST SWAP1 POP DUP1 SWAP4 POP POP POP POP JUMPDEST SWAP2 SWAP1 POP JUMP JUMPDEST PUSH4 0x1E13380 DUP2 JUMP JUMPDEST PUSH2 0xD86 PUSH2 0xE62 JUMP JUMPDEST PUSH0 PUSH20 0xFFFFFFFFFFFFFFFFFFFFFFFFFFFFFFFFFFFFFFFF AND DUP2 PUSH20 0xFFFFFFFFFFFFFFFFFFFFFFFFFFFFFFFFFFFFFFFF AND SUB PUSH2 0xDF6 JUMPI PUSH0 PUSH1 0x40 MLOAD PUSH32 0x1E4FBDF700000000000000000000000000000000000000000000000000000000 DUP2 MSTORE PUSH1 0x4 ADD PUSH2 0xDED SWAP2 SWAP1 PUSH2 0x10A1 JUMP JUMPDEST PUSH1 0x40 MLOAD DUP1 SWAP2 SUB SWAP1 REVERT JUMPDEST PUSH2 0xDFF DUP2 PUSH2 0xEE9 JUMP JUMPDEST POP JUMP JUMPDEST PUSH1 0x1 PUSH0 SWAP1 SLOAD SWAP1 PUSH2 0x100 EXP SWAP1 DIV PUSH20 0xFFFFFFFFFFFFFFFFFFFFFFFFFFFFFFFFFFFFFFFF AND DUP2 JUMP JUMPDEST PUSH1 0x4 DUP2 DUP2 SLOAD DUP2 LT PUSH2 0xE36 JUMPI PUSH0 DUP1 REVERT JUMPDEST SWAP1 PUSH0 MSTORE PUSH1 0x20 PUSH0 KECCAK256 ADD PUSH0 SWAP2 POP SLOAD SWAP1 PUSH2 0x100 EXP SWAP1 DIV PUSH20 0xFFFFFFFFFFFFFFFFFFFFFFFFFFFFFFFFFFFFFFFF AND DUP2 JUMP JUMPDEST PUSH2 0xE6A PUSH2 0xFAA JUMP JUMPDEST PUSH20 0xFFFFFFFFFFFFFFFFFFFFFFFFFFFFFFFFFFFFFFFF AND PUSH2 0xE88 PUSH2 0x57A JUMP JUMPDEST PUSH20 0xFFFFFFFFFFFFFFFFFFFFFFFFFFFFFFFFFFFFFFFF AND EQ PUSH2 0xEE7 JUMPI PUSH2 0xEAB PUSH2 0xFAA JUMP JUMPDEST PUSH1 0x40 MLOAD PUSH32 0x118CDAA700000000000000000000000000000000000000000000000000000000 DUP2 MSTORE PUSH1 0x4 ADD PUSH2 0xEDE SWAP2 SWAP1 PUSH2 0x10A1 JUMP JUMPDEST PUSH1 0x40 MLOAD DUP1 SWAP2 SUB SWAP1 REVERT JUMPDEST JUMP JUMPDEST PUSH0 PUSH0 PUSH0 SWAP1 SLOAD SWAP1 PUSH2 0x100 EXP SWAP1 DIV PUSH20 0xFFFFFFFFFFFFFFFFFFFFFFFFFFFFFFFFFFFFFFFF AND SWAP1 POP DUP2 PUSH0 PUSH0 PUSH2 0x100 EXP DUP2 SLOAD DUP2 PUSH20 0xFFFFFFFFFFFFFFFFFFFFFFFFFFFFFFFFFFFFFFFF MUL NOT AND SWAP1 DUP4 PUSH20 0xFFFFFFFFFFFFFFFFFFFFFFFFFFFFFFFFFFFFFFFF AND MUL OR SWAP1 SSTORE POP DUP2 PUSH20 0xFFFFFFFFFFFFFFFFFFFFFFFFFFFFFFFFFFFFFFFF AND DUP2 PUSH20 0xFFFFFFFFFFFFFFFFFFFFFFFFFFFFFFFFFFFFFFFF AND PUSH32 0x8BE0079C531659141344CD1FD0A4F28419497F9722A3DAAFE3B4186F6B6457E0 PUSH1 0x40 MLOAD PUSH1 0x40 MLOAD DUP1 SWAP2 SUB SWAP1 LOG3 POP POP JUMP JUMPDEST PUSH0 CALLER SWAP1 POP SWAP1 JUMP JUMPDEST PUSH0 PUSH0 REVERT JUMPDEST PUSH0 PUSH20 0xFFFFFFFFFFFFFFFFFFFFFFFFFFFFFFFFFFFFFFFF DUP3 AND SWAP1 POP SWAP2 SWAP1 POP JUMP JUMPDEST PUSH0 PUSH2 0xFDE DUP3 PUSH2 0xFB5 JUMP JUMPDEST SWAP1 POP SWAP2 SWAP1 POP JUMP JUMPDEST PUSH2 0xFEE DUP2 PUSH2 0xFD4 JUMP JUMPDEST DUP2 EQ PUSH2 0xFF8 JUMPI PUSH0 PUSH0 REVERT JUMPDEST POP JUMP JUMPDEST PUSH0 DUP2 CALLDATALOAD SWAP1 POP PUSH2 0x1009 DUP2 PUSH2 0xFE5 JUMP JUMPDEST SWAP3 SWAP2 POP POP JUMP JUMPDEST PUSH0 PUSH1 0x20 DUP3 DUP5 SUB SLT ISZERO PUSH2 0x1024 JUMPI PUSH2 0x1023 PUSH2 0xFB1 JUMP JUMPDEST JUMPDEST PUSH0 PUSH2 0x1031 DUP5 DUP3 DUP6 ADD PUSH2 0xFFB JUMP JUMPDEST SWAP2 POP POP SWAP3 SWAP2 POP POP JUMP JUMPDEST PUSH0 DUP2 SWAP1 POP SWAP2 SWAP1 POP JUMP JUMPDEST PUSH2 0x104C DUP2 PUSH2 0x103A JUMP JUMPDEST DUP3 MSTORE POP POP JUMP JUMPDEST PUSH0 PUSH1 0x40 DUP3 ADD SWAP1 POP PUSH2 0x1065 PUSH0 DUP4 ADD DUP6 PUSH2 0x1043 JUMP JUMPDEST PUSH2 0x1072 PUSH1 0x20 DUP4 ADD DUP5 PUSH2 0x1043 JUMP JUMPDEST SWAP4 SWAP3 POP POP POP JUMP JUMPDEST PUSH0 PUSH1 0x20 DUP3 ADD SWAP1 POP PUSH2 0x108C PUSH0 DUP4 ADD DUP5 PUSH2 0x1043 JUMP JUMPDEST SWAP3 SWAP2 POP POP JUMP JUMPDEST PUSH2 0x109B DUP2 PUSH2 0xFD4 JUMP JUMPDEST DUP3 MSTORE POP POP JUMP JUMPDEST PUSH0 PUSH1 0x20 DUP3 ADD SWAP1 POP PUSH2 0x10B4 PUSH0 DUP4 ADD DUP5 PUSH2 0x1092 JUMP JUMPDEST SWAP3 SWAP2 POP POP JUMP JUMPDEST PUSH2 0x10C3 DUP2 PUSH2 0x103A JUMP JUMPDEST DUP2 EQ PUSH2 0x10CD JUMPI PUSH0 PUSH0 REVERT JUMPDEST POP JUMP JUMPDEST PUSH0 DUP2 CALLDATALOAD SWAP1 POP PUSH2 0x10DE DUP2 PUSH2 0x10BA JUMP JUMPDEST SWAP3 SWAP2 POP POP JUMP JUMPDEST PUSH0 PUSH1 0x20 DUP3 DUP5 SUB SLT ISZERO PUSH2 0x10F9 JUMPI PUSH2 0x10F8 PUSH2 0xFB1 JUMP JUMPDEST JUMPDEST PUSH0 PUSH2 0x1106 DUP5 DUP3 DUP6 ADD PUSH2 0x10D0 JUMP JUMPDEST SWAP2 POP POP SWAP3 SWAP2 POP POP JUMP JUMPDEST PUSH0 DUP2 MLOAD SWAP1 POP SWAP2 SWAP1 POP JUMP JUMPDEST PUSH0 DUP3 DUP3 MSTORE PUSH1 0x20 DUP3 ADD SWAP1 POP SWAP3 SWAP2 POP POP JUMP JUMPDEST PUSH0 DUP2 SWAP1 POP PUSH1 0x20 DUP3 ADD SWAP1 POP SWAP2 SWAP1 POP JUMP JUMPDEST PUSH2 0x1141 DUP2 PUSH2 0xFD4 JUMP JUMPDEST DUP3 MSTORE POP POP JUMP JUMPDEST PUSH0 PUSH2 0x1152 DUP4 DUP4 PUSH2 0x1138 JUMP JUMPDEST PUSH1 0x20 DUP4 ADD SWAP1 POP SWAP3 SWAP2 POP POP JUMP JUMPDEST PUSH0 PUSH1 0x20 DUP3 ADD SWAP1 POP SWAP2 SWAP1 POP JUMP JUMPDEST PUSH0 PUSH2 0x1174 DUP3 PUSH2 0x110F JUMP JUMPDEST PUSH2 0x117E DUP2 DUP6 PUSH2 0x1119 JUMP JUMPDEST SWAP4 POP PUSH2 0x1189 DUP4 PUSH2 0x1129 JUMP JUMPDEST DUP1 PUSH0 JUMPDEST DUP4 DUP2 LT ISZERO PUSH2 0x11B9 JUMPI DUP2 MLOAD PUSH2 0x11A0 DUP9 DUP3 PUSH2 0x1147 JUMP JUMPDEST SWAP8 POP PUSH2 0x11AB DUP4 PUSH2 0x115E JUMP JUMPDEST SWAP3 POP POP PUSH1 0x1 DUP2 ADD SWAP1 POP PUSH2 0x118C JUMP JUMPDEST POP DUP6 SWAP4 POP POP POP POP SWAP3 SWAP2 POP POP JUMP JUMPDEST PUSH0 DUP2 MLOAD SWAP1 POP SWAP2 SWAP1 POP JUMP JUMPDEST PUSH0 DUP3 DUP3 MSTORE PUSH1 0x20 DUP3 ADD SWAP1 POP SWAP3 SWAP2 POP POP JUMP JUMPDEST PUSH0 DUP2 SWAP1 POP PUSH1 0x20 DUP3 ADD SWAP1 POP SWAP2 SWAP1 POP JUMP JUMPDEST PUSH2 0x11F8 DUP2 PUSH2 0x103A JUMP JUMPDEST DUP3 MSTORE POP POP JUMP JUMPDEST PUSH0 PUSH2 0x1209 DUP4 DUP4 PUSH2 0x11EF JUMP JUMPDEST PUSH1 0x20 DUP4 ADD SWAP1 POP SWAP3 SWAP2 POP POP JUMP JUMPDEST PUSH0 PUSH1 0x20 DUP3 ADD SWAP1 POP SWAP2 SWAP1 POP JUMP JUMPDEST PUSH0 PUSH2 0x122B DUP3 PUSH2 0x11C6 JUMP JUMPDEST PUSH2 0x1235 DUP2 DUP6 PUSH2 0x11D0 JUMP JUMPDEST SWAP4 POP PUSH2 0x1240 DUP4 PUSH2 0x11E0 JUMP JUMPDEST DUP1 PUSH0 JUMPDEST DUP4 DUP2 LT ISZERO PUSH2 0x1270 JUMPI DUP2 MLOAD PUSH2 0x1257 DUP9 DUP3 PUSH2 0x11FE JUMP JUMPDEST SWAP8 POP PUSH2 0x1262 DUP4 PUSH2 0x1215 JUMP JUMPDEST SWAP3 POP POP PUSH1 0x1 DUP2 ADD SWAP1 POP PUSH2 0x1243 JUMP JUMPDEST POP DUP6 SWAP4 POP POP POP POP SWAP3 SWAP2 POP POP JUMP JUMPDEST PUSH0 PUSH1 0x40 DUP3 ADD SWAP1 POP DUP2 DUP2 SUB PUSH0 DUP4 ADD MSTORE PUSH2 0x1295 DUP2 DUP6 PUSH2 0x116A JUMP JUMPDEST SWAP1 POP DUP2 DUP2 SUB PUSH1 0x20 DUP4 ADD MSTORE PUSH2 0x12A9 DUP2 DUP5 PUSH2 0x1221 JUMP JUMPDEST SWAP1 POP SWAP4 SWAP3 POP POP POP JUMP JUMPDEST PUSH0 DUP2 SWAP1 POP SWAP2 SWAP1 POP JUMP JUMPDEST PUSH0 PUSH2 0x12D5 PUSH2 0x12D0 PUSH2 0x12CB DUP5 PUSH2 0xFB5 JUMP JUMPDEST PUSH2 0x12B2 JUMP JUMPDEST PUSH2 0xFB5 JUMP JUMPDEST SWAP1 POP SWAP2 SWAP1 POP JUMP JUMPDEST PUSH0 PUSH2 0x12E6 DUP3 PUSH2 0x12BB JUMP JUMPDEST SWAP1 POP SWAP2 SWAP1 POP JUMP JUMPDEST PUSH0 PUSH2 0x12F7 DUP3 PUSH2 0x12DC JUMP JUMPDEST SWAP1 POP SWAP2 SWAP1 POP JUMP JUMPDEST PUSH2 0x1307 DUP2 PUSH2 0x12ED JUMP JUMPDEST DUP3 MSTORE POP POP JUMP JUMPDEST PUSH0 PUSH1 0x20 DUP3 ADD SWAP1 POP PUSH2 0x1320 PUSH0 DUP4 ADD DUP5 PUSH2 0x12FE JUMP JUMPDEST SWAP3 SWAP2 POP POP JUMP JUMPDEST PUSH0 DUP3 DUP3 MSTORE PUSH1 0x20 DUP3 ADD SWAP1 POP SWAP3 SWAP2 POP POP JUMP JUMPDEST PUSH32 0x4E6F7468696E67207374616B6564000000000000000000000000000000000000 PUSH0 DUP3 ADD MSTORE POP JUMP JUMPDEST PUSH0 PUSH2 0x136A PUSH1 0xE DUP4 PUSH2 0x1326 JUMP JUMPDEST SWAP2 POP PUSH2 0x1375 DUP3 PUSH2 0x1336 JUMP JUMPDEST PUSH1 0x20 DUP3 ADD SWAP1 POP SWAP2 SWAP1 POP JUMP JUMPDEST PUSH0 PUSH1 0x20 DUP3 ADD SWAP1 POP DUP2 DUP2 SUB PUSH0 DUP4 ADD MSTORE PUSH2 0x1397 DUP2 PUSH2 0x135E JUMP JUMPDEST SWAP1 POP SWAP2 SWAP1 POP JUMP JUMPDEST PUSH32 0x4E487B7100000000000000000000000000000000000000000000000000000000 PUSH0 MSTORE PUSH1 0x11 PUSH1 0x4 MSTORE PUSH1 0x24 PUSH0 REVERT JUMPDEST PUSH0 PUSH2 0x13D5 DUP3 PUSH2 0x103A JUMP JUMPDEST SWAP2 POP PUSH2 0x13E0 DUP4 PUSH2 0x103A JUMP JUMPDEST SWAP3 POP DUP3 DUP3 SUB SWAP1 POP DUP2 DUP2 GT ISZERO PUSH2 0x13F8 JUMPI PUSH2 0x13F7 PUSH2 0x139E JUMP JUMPDEST JUMPDEST SWAP3 SWAP2 POP POP JUMP JUMPDEST PUSH0 PUSH2 0x1408 DUP3 PUSH2 0x103A JUMP JUMPDEST SWAP2 POP PUSH2 0x1413 DUP4 PUSH2 0x103A JUMP JUMPDEST SWAP3 POP DUP3 DUP3 MUL PUSH2 0x1421 DUP2 PUSH2 0x103A JUMP JUMPDEST SWAP2 POP DUP3 DUP3 DIV DUP5 EQ DUP4 ISZERO OR PUSH2 0x1438 JUMPI PUSH2 0x1437 PUSH2 0x139E JUMP JUMPDEST JUMPDEST POP SWAP3 SWAP2 POP POP JUMP JUMPDEST PUSH32 0x4E487B7100000000000000000000000000000000000000000000000000000000 PUSH0 MSTORE PUSH1 0x12 PUSH1 0x4 MSTORE PUSH1 0x24 PUSH0 REVERT JUMPDEST PUSH0 PUSH2 0x1476 DUP3 PUSH2 0x103A JUMP JUMPDEST SWAP2 POP PUSH2 0x1481 DUP4 PUSH2 0x103A JUMP JUMPDEST SWAP3 POP DUP3 PUSH2 0x1491 JUMPI PUSH2 0x1490 PUSH2 0x143F JUMP JUMPDEST JUMPDEST DUP3 DUP3 DIV SWAP1 POP SWAP3 SWAP2 POP POP JUMP JUMPDEST PUSH0 PUSH2 0x14A6 DUP3 PUSH2 0x103A JUMP JUMPDEST SWAP2 POP PUSH2 0x14B1 DUP4 PUSH2 0x103A JUMP JUMPDEST SWAP3 POP DUP3 DUP3 ADD SWAP1 POP DUP1 DUP3 GT ISZERO PUSH2 0x14C9 JUMPI PUSH2 0x14C8 PUSH2 0x139E JUMP JUMPDEST JUMPDEST SWAP3 SWAP2 POP POP JUMP JUMPDEST PUSH0 PUSH1 0x40 DUP3 ADD SWAP1 POP PUSH2 0x14E2 PUSH0 DUP4 ADD DUP6 PUSH2 0x1092 JUMP JUMPDEST PUSH2 0x14EF PUSH1 0x20 DUP4 ADD DUP5 PUSH2 0x1043 JUMP JUMPDEST SWAP4 SWAP3 POP POP POP JUMP JUMPDEST PUSH0 DUP2 ISZERO ISZERO SWAP1 POP SWAP2 SWAP1 POP JUMP JUMPDEST PUSH2 0x150A DUP2 PUSH2 0x14F6 JUMP JUMPDEST DUP2 EQ PUSH2 0x1514 JUMPI PUSH0 PUSH0 REVERT JUMPDEST POP JUMP JUMPDEST PUSH0 DUP2 MLOAD SWAP1 POP PUSH2 0x1525 DUP2 PUSH2 0x1501 JUMP JUMPDEST SWAP3 SWAP2 POP POP JUMP JUMPDEST PUSH0 PUSH1 0x20 DUP3 DUP5 SUB SLT ISZERO PUSH2 0x1540 JUMPI PUSH2 0x153F PUSH2 0xFB1 JUMP JUMPDEST JUMPDEST PUSH0 PUSH2 0x154D DUP5 DUP3 DUP6 ADD PUSH2 0x1517 JUMP JUMPDEST SWAP2 POP POP SWAP3 SWAP2 POP POP JUMP JUMPDEST PUSH32 0x4E6F20616374697665207374616B650000000000000000000000000000000000 PUSH0 DUP3 ADD MSTORE POP JUMP JUMPDEST PUSH0 PUSH2 0x158A PUSH1 0xF DUP4 PUSH2 0x1326 JUMP JUMPDEST SWAP2 POP PUSH2 0x1595 DUP3 PUSH2 0x1556 JUMP JUMPDEST PUSH1 0x20 DUP3 ADD SWAP1 POP SWAP2 SWAP1 POP JUMP JUMPDEST PUSH0 PUSH1 0x20 DUP3 ADD SWAP1 POP DUP2 DUP2 SUB PUSH0 DUP4 ADD MSTORE PUSH2 0x15B7 DUP2 PUSH2 0x157E JUMP JUMPDEST SWAP1 POP SWAP2 SWAP1 POP JUMP JUMPDEST PUSH32 0x43616E6E6F74207374616B652030000000000000000000000000000000000000 PUSH0 DUP3 ADD MSTORE POP JUMP JUMPDEST PUSH0 PUSH2 0x15F2 PUSH1 0xE DUP4 PUSH2 0x1326 JUMP JUMPDEST SWAP2 POP PUSH2 0x15FD DUP3 PUSH2 0x15BE JUMP JUMPDEST PUSH1 0x20 DUP3 ADD SWAP1 POP SWAP2 SWAP1 POP JUMP JUMPDEST PUSH0 PUSH1 0x20 DUP3 ADD SWAP1 POP DUP2 DUP2 SUB PUSH0 DUP4 ADD MSTORE PUSH2 0x161F DUP2 PUSH2 0x15E6 JUMP JUMPDEST SWAP1 POP SWAP2 SWAP1 POP JUMP JUMPDEST PUSH0 PUSH1 0x60 DUP3 ADD SWAP1 POP PUSH2 0x1639 PUSH0 DUP4 ADD DUP7 PUSH2 0x1092 JUMP JUMPDEST PUSH2 0x1646 PUSH1 0x20 DUP4 ADD DUP6 PUSH2 0x1092 JUMP JUMPDEST PUSH2 0x1653 PUSH1 0x40 DUP4 ADD DUP5 PUSH2 0x1043 JUMP JUMPDEST SWAP5 SWAP4 POP POP POP POP JUMP JUMPDEST PUSH32 0x4E487B7100000000000000000000000000000000000000000000000000000000 PUSH0 MSTORE PUSH1 0x41 PUSH1 0x4 MSTORE PUSH1 0x24 PUSH0 REVERT JUMPDEST PUSH32 0x4E487B7100000000000000000000000000000000000000000000000000000000 PUSH0 MSTORE PUSH1 0x32 PUSH1 0x4 MSTORE PUSH1 0x24 PUSH0 REVERT INVALID LOG2 PUSH5 0x6970667358 0x22 SLT KECCAK256 STOP PUSH29 0x2794209B4ECC91BA0270CA838EBBDB3E678055B917DA3066572C1E369D PUSH20 0x64736F6C634300081E0033000000000000000000 "
				},
				"gasEstimates": {
					"creation": {
						"codeDepositCost": "1173400",
						"executionCost": "infinite",
						"totalCost": "infinite"
					},
					"external": {
						"EARLY_UNSTAKE_PENALTY()": "393",
						"LOCK_PERIOD()": "371",
						"SECONDS_PER_YEAR()": "347",
						"calculateReward(address)": "infinite",
						"claim()": "infinite",
						"getTopStakers(uint256)": "infinite",
						"owner()": "2603",
						"renounceOwnership()": "infinite",
						"rewardRate()": "2492",
						"setRewardRate(uint256)": "infinite",
						"stake(uint256)": "infinite",
						"stakers(uint256)": "5032",
						"stakes(address)": "infinite",
						"token()": "infinite",
						"transferOwnership(address)": "infinite",
						"unstake()": "infinite"
					}
				},
				"methodIdentifiers": {
					"EARLY_UNSTAKE_PENALTY()": "1f4531f5",
					"LOCK_PERIOD()": "1820cabb",
					"SECONDS_PER_YEAR()": "e6a69ab8",
					"calculateReward(address)": "d82e3962",
					"claim()": "4e71d92d",
					"getTopStakers(uint256)": "c80ca39a",
					"owner()": "8da5cb5b",
					"renounceOwnership()": "715018a6",
					"rewardRate()": "7b0a47ee",
					"setRewardRate(uint256)": "9e447fc6",
					"stake(uint256)": "a694fc3a",
					"stakers(uint256)": "fd5e6dd1",
					"stakes(address)": "16934fc4",
					"token()": "fc0c546a",
					"transferOwnership(address)": "f2fde38b",
					"unstake()": "2def6620"
				}
			},
			"storageLayout": {
				"storage": [
					{
						"astId": 8,
						"contract": "SuperBoInuStaking.sol:SuperBoInuStaking",
						"label": "_owner",
						"offset": 0,
						"slot": "0",
						"type": "t_address"
					},
					{
						"astId": 264,
						"contract": "SuperBoInuStaking.sol:SuperBoInuStaking",
						"label": "token",
						"offset": 0,
						"slot": "1",
						"type": "t_contract(IERC20)225"
					},
					{
						"astId": 267,
						"contract": "SuperBoInuStaking.sol:SuperBoInuStaking",
						"label": "rewardRate",
						"offset": 0,
						"slot": "2",
						"type": "t_uint256"
					},
					{
						"astId": 286,
						"contract": "SuperBoInuStaking.sol:SuperBoInuStaking",
						"label": "stakes",
						"offset": 0,
						"slot": "3",
						"type": "t_mapping(t_address,t_struct(Stake)281_storage)"
					},
					{
						"astId": 289,
						"contract": "SuperBoInuStaking.sol:SuperBoInuStaking",
						"label": "stakers",
						"offset": 0,
						"slot": "4",
						"type": "t_array(t_address)dyn_storage"
					}
				],
				"types": {
					"t_address": {
						"encoding": "inplace",
						"label": "address",
						"numberOfBytes": "20"
					},
					"t_array(t_address)dyn_storage": {
						"base": "t_address",
						"encoding": "dynamic_array",
						"label": "address[]",
						"numberOfBytes": "32"
					},
					"t_contract(IERC20)225": {
						"encoding": "inplace",
						"label": "contract IERC20",
						"numberOfBytes": "20"
					},
					"t_mapping(t_address,t_struct(Stake)281_storage)": {
						"encoding": "mapping",
						"key": "t_address",
						"label": "mapping(address => struct SuperBoInuStaking.Stake)",
						"numberOfBytes": "32",
						"value": "t_struct(Stake)281_storage"
					},
					"t_struct(Stake)281_storage": {
						"encoding": "inplace",
						"label": "struct SuperBoInuStaking.Stake",
						"members": [
							{
								"astId": 278,
								"contract": "SuperBoInuStaking.sol:SuperBoInuStaking",
								"label": "amount",
								"offset": 0,
								"slot": "0",
								"type": "t_uint256"
							},
							{
								"astId": 280,
								"contract": "SuperBoInuStaking.sol:SuperBoInuStaking",
								"label": "startTime",
								"offset": 0,
								"slot": "1",
								"type": "t_uint256"
							}
						],
						"numberOfBytes": "64"
					},
					"t_uint256": {
						"encoding": "inplace",
						"label": "uint256",
						"numberOfBytes": "32"
					}
				}
			},
			"userdoc": {
				"kind": "user",
				"methods": {},
				"version": 1
			}
		}
	}
}